{
	"data": {
		"bytecode": {
			"linkReferences": {},
			"object": "60806040526000609c60006101000a81548160ff021916908315150217905550600060a055603560a155601e60a255600a60a355600560a455600260a55534801561004957600080fd5b5061559d806200005a6000396000f3fe608060405234801561001057600080fd5b50600436106102695760003560e01c806370a08231116101515780639f186edb116100c3578063b88d4fde11610087578063b88d4fde14610714578063c84c9e4514610730578063c87b56dd14610760578063c990ac7e14610790578063cc5a3661146107c0578063e985e9c5146107dc57610269565b80639f186edb14610682578063a22cb4651461069e578063a37959cd146106ba578063b047fb50146106d8578063b746118f146106f657610269565b806381808d411161011557806381808d41146105d25780638456cb59146106025780638c37e31e1461060c57806394a3f89a1461062857806395d89b411461064657806398f5ee5d1461066457610269565b806370a082311461050657806377932011146105365780637d42e1a71461056657806380ad40a5146105965780638129fc1c146105c857610269565b806323b872dd116101ea57806347cb72fe116101ae57806347cb72fe146104325780634e0a33791461044e5780634f18a5db1461046a578063530d44f41461049a5780635c975abb146104b85780636352211e146104d657610269565b806323b872dd146103b857806327d7874c146103d45780632ba73c15146103f05780633f4ba83a1461040c57806342842e0e1461041657610269565b8063095ea7b311610231578063095ea7b3146103285780630a0f81681461034457806318160ddd1461036257806318f04090146103805780632385554c1461039c57610269565b806301ffc9a71461026e5780630519ce791461029e57806305ad815e146102bc57806306fdde03146102da578063081812fc146102f8575b600080fd5b61028860048036038101906102839190613daf565b61080c565b60405161029591906145de565b60405180910390f35b6102a66108ee565b6040516102b39190614555565b60405180910390f35b6102c4610914565b6040516102d1919061495b565b60405180910390f35b6102e261091a565b6040516102ef91906145f9565b60405180910390f35b610312600480360381019061030d9190613e01565b6109ac565b60405161031f9190614555565b60405180910390f35b610342600480360381019061033d9190613d73565b610a31565b005b61034c610b49565b6040516103599190614555565b60405180910390f35b61036a610b6f565b604051610377919061495b565b60405180910390f35b61039a60048036038101906103959190613eb5565b610b7c565b005b6103b660048036038101906103b19190613e01565b610d60565b005b6103d260048036038101906103cd9190613c6d565b610ffa565b005b6103ee60048036038101906103e99190613c08565b61105a565b005b61040a60048036038101906104059190613c08565b611168565b005b610414611276565b005b610430600480360381019061042b9190613c6d565b61133c565b005b61044c60048036038101906104479190613f2d565b61135c565b005b61046860048036038101906104639190613c08565b611535565b005b610484600480360381019061047f9190613e66565b611643565b604051610491919061495b565b60405180910390f35b6104a2611710565b6040516104af919061495b565b60405180910390f35b6104c0611716565b6040516104cd91906145de565b60405180910390f35b6104f060048036038101906104eb9190613e01565b611729565b6040516104fd9190614555565b60405180910390f35b610520600480360381019061051b9190613c08565b6117db565b60405161052d919061495b565b60405180910390f35b610550600480360381019061054b9190613e2a565b611893565b60405161055d919061495b565b60405180910390f35b610580600480360381019061057b9190613e2a565b61195b565b60405161058d919061495b565b60405180910390f35b6105b060048036038101906105ab9190613e01565b611b26565b6040516105bf9392919061499f565b60405180910390f35b6105d0611bbc565b005b6105ec60048036038101906105e79190613e01565b611e05565b6040516105f9919061495b565b60405180910390f35b61060a611e1d565b005b61062660048036038101906106219190613c08565b611f94565b005b610630612118565b60405161063d919061495b565b60405180910390f35b61064e61211e565b60405161065b91906145f9565b60405180910390f35b61066c6121b0565b6040516106799190614555565b60405180910390f35b61069c60048036038101906106979190613d37565b6121d6565b005b6106b860048036038101906106b39190613d37565b61231b565b005b6106c261249c565b6040516106cf919061495b565b60405180910390f35b6106e06124a2565b6040516106ed9190614555565b60405180910390f35b6106fe6124c8565b60405161070b919061495b565b60405180910390f35b61072e60048036038101906107299190613cbc565b6124ce565b005b61074a60048036038101906107459190613c08565b612530565b60405161075791906145de565b60405180910390f35b61077a60048036038101906107759190613e01565b612550565b60405161078791906145f9565b60405180910390f35b6107aa60048036038101906107a59190613c08565b6125f7565b6040516107b791906145bc565b60405180910390f35b6107da60048036038101906107d59190613ef1565b61268e565b005b6107f660048036038101906107f19190613c31565b612808565b60405161080391906145de565b60405180910390f35b60007f80ac58cd000000000000000000000000000000000000000000000000000000007bffffffffffffffffffffffffffffffffffffffffffffffffffffffff1916827bffffffffffffffffffffffffffffffffffffffffffffffffffffffff191614806108d757507f5b5e139f000000000000000000000000000000000000000000000000000000007bffffffffffffffffffffffffffffffffffffffffffffffffffffffff1916827bffffffffffffffffffffffffffffffffffffffffffffffffffffffff1916145b806108e757506108e68261289c565b5b9050919050565b609860009054906101000a900473ffffffffffffffffffffffffffffffffffffffff1681565b60a45481565b60606065805461092990614c73565b80601f016020809104026020016040519081016040528092919081815260200182805461095590614c73565b80156109a25780601f10610977576101008083540402835291602001916109a2565b820191906000526020600020905b81548152906001019060200180831161098557829003601f168201915b5050505050905090565b60006109b782612906565b6109f6576040517f08c379a00000000000000000000000000000000000000000000000000000000081526004016109ed9061489b565b60405180910390fd5b6069600083815260200190815260200160002060009054906101000a900473ffffffffffffffffffffffffffffffffffffffff169050919050565b6000610a3c82611729565b90508073ffffffffffffffffffffffffffffffffffffffff168373ffffffffffffffffffffffffffffffffffffffff161415610aad576040517f08c379a0000000000000000000000000000000000000000000000000000000008152600401610aa49061491b565b60405180910390fd5b8073ffffffffffffffffffffffffffffffffffffffff16610acc612972565b73ffffffffffffffffffffffffffffffffffffffff161480610afb5750610afa81610af5612972565b612808565b5b610b3a576040517f08c379a0000000000000000000000000000000000000000000000000000000008152600401610b31906147bb565b60405180910390fd5b610b44838361297a565b505050565b609760009054906101000a900473ffffffffffffffffffffffffffffffffffffffff1681565b6000609f80549050905090565b609960009054906101000a900473ffffffffffffffffffffffffffffffffffffffff1673ffffffffffffffffffffffffffffffffffffffff163373ffffffffffffffffffffffffffffffffffffffff161480610c255750609760009054906101000a900473ffffffffffffffffffffffffffffffffffffffff1673ffffffffffffffffffffffffffffffffffffffff163373ffffffffffffffffffffffffffffffffffffffff16145b80610c7d5750609860009054906101000a900473ffffffffffffffffffffffffffffffffffffffff1673ffffffffffffffffffffffffffffffffffffffff163373ffffffffffffffffffffffffffffffffffffffff16145b610cbc576040517f08c379a0000000000000000000000000000000000000000000000000000000008152600401610cb3906146bb565b60405180910390fd5b610cc582612a33565b8015610d2f57609f8281548110610d05577f4e487b7100000000000000000000000000000000000000000000000000000000600052603260045260246000fd5b90600052602060002090600302016000808201600090556001820160009055600282016000905550505b817fdff72b5a2bc5592edf15f7c8955834664c7d7395a7569eab0038e6a9886e07c960405160405180910390a25050565b803373ffffffffffffffffffffffffffffffffffffffff16610d8182611729565b73ffffffffffffffffffffffffffffffffffffffff1614610dd7576040517f08c379a0000000000000000000000000000000000000000000000000000000008152600401610dce9061467b565b60405180910390fd5b8160006103e8609f8381548110610e17577f4e487b7100000000000000000000000000000000000000000000000000000000600052603260045260246000fd5b906000526020600020906003020160000154610e339190614afe565b14610e73576040517f08c379a0000000000000000000000000000000000000000000000000000000008152600401610e6a9061471b565b60405180910390fd5b82609f8181548110610eae577f4e487b7100000000000000000000000000000000000000000000000000000000600052603260045260246000fd5b906000526020600020906003020160020154421015610f02576040517f08c379a0000000000000000000000000000000000000000000000000000000008152600401610ef99061483b565b60405180910390fd5b610f0b33612b44565b15610f4b576040517f08c379a0000000000000000000000000000000000000000000000000000000008152600401610f429061479b565b60405180910390fd5b6000610fa1609f8681548110610f8a577f4e487b7100000000000000000000000000000000000000000000000000000000600052603260045260246000fd5b906000526020600020906003020160000154612b57565b905080609f8681548110610fde577f4e487b7100000000000000000000000000000000000000000000000000000000600052603260045260246000fd5b9060005260206000209060030201600001819055505050505050565b61100b611005612972565b82612d0b565b61104a576040517f08c379a00000000000000000000000000000000000000000000000000000000081526004016110419061493b565b60405180910390fd5b611055838383612de9565b505050565b609760009054906101000a900473ffffffffffffffffffffffffffffffffffffffff1673ffffffffffffffffffffffffffffffffffffffff163373ffffffffffffffffffffffffffffffffffffffff16146110ea576040517f08c379a00000000000000000000000000000000000000000000000000000000081526004016110e19061485b565b60405180910390fd5b600073ffffffffffffffffffffffffffffffffffffffff168173ffffffffffffffffffffffffffffffffffffffff16141561112457600080fd5b80609760006101000a81548173ffffffffffffffffffffffffffffffffffffffff021916908373ffffffffffffffffffffffffffffffffffffffff16021790555050565b609760009054906101000a900473ffffffffffffffffffffffffffffffffffffffff1673ffffffffffffffffffffffffffffffffffffffff163373ffffffffffffffffffffffffffffffffffffffff16146111f8576040517f08c379a00000000000000000000000000000000000000000000000000000000081526004016111ef9061485b565b60405180910390fd5b600073ffffffffffffffffffffffffffffffffffffffff168173ffffffffffffffffffffffffffffffffffffffff16141561123257600080fd5b80609960006101000a81548173ffffffffffffffffffffffffffffffffffffffff021916908373ffffffffffffffffffffffffffffffffffffffff16021790555050565b609760009054906101000a900473ffffffffffffffffffffffffffffffffffffffff1673ffffffffffffffffffffffffffffffffffffffff163373ffffffffffffffffffffffffffffffffffffffff1614611306576040517f08c379a00000000000000000000000000000000000000000000000000000000081526004016112fd9061485b565b60405180910390fd5b609c60009054906101000a900460ff1661131f57600080fd5b6000609c60006101000a81548160ff021916908315150217905550565b611357838383604051806020016040528060008152506124ce565b505050565b609960009054906101000a900473ffffffffffffffffffffffffffffffffffffffff1673ffffffffffffffffffffffffffffffffffffffff163373ffffffffffffffffffffffffffffffffffffffff1614806114055750609760009054906101000a900473ffffffffffffffffffffffffffffffffffffffff1673ffffffffffffffffffffffffffffffffffffffff163373ffffffffffffffffffffffffffffffffffffffff16145b8061145d5750609860009054906101000a900473ffffffffffffffffffffffffffffffffffffffff1673ffffffffffffffffffffffffffffffffffffffff163373ffffffffffffffffffffffffffffffffffffffff16145b61149c576040517f08c379a0000000000000000000000000000000000000000000000000000000008152600401611493906146bb565b60405180910390fd5b606481838587896114ad9190614aa8565b6114b79190614aa8565b6114c19190614aa8565b6114cb9190614aa8565b1461150b576040517f08c379a00000000000000000000000000000000000000000000000000000000081526004016115029061461b565b60405180910390fd5b8460a1819055508360a2819055508260a3819055508160a4819055508060a5819055505050505050565b609760009054906101000a900473ffffffffffffffffffffffffffffffffffffffff1673ffffffffffffffffffffffffffffffffffffffff163373ffffffffffffffffffffffffffffffffffffffff16146115c5576040517f08c379a00000000000000000000000000000000000000000000000000000000081526004016115bc9061485b565b60405180910390fd5b600073ffffffffffffffffffffffffffffffffffffffff168173ffffffffffffffffffffffffffffffffffffffff1614156115ff57600080fd5b80609860006101000a81548173ffffffffffffffffffffffffffffffffffffffff021916908373ffffffffffffffffffffffffffffffffffffffff16021790555050565b6000609b60003373ffffffffffffffffffffffffffffffffffffffff1673ffffffffffffffffffffffffffffffffffffffff16815260200190815260200160002060009054906101000a900460ff1661169b57600080fd5b60006103e8856116ab9190614afe565b146116eb576040517f08c379a00000000000000000000000000000000000000000000000000000000081526004016116e29061477b565b60405180910390fd5b6000611703858585426116fe9190614aa8565b613045565b9050809150509392505050565b60a15481565b609c60009054906101000a900460ff1681565b6000806067600084815260200190815260200160002060009054906101000a900473ffffffffffffffffffffffffffffffffffffffff169050600073ffffffffffffffffffffffffffffffffffffffff168173ffffffffffffffffffffffffffffffffffffffff1614156117d2576040517f08c379a00000000000000000000000000000000000000000000000000000000081526004016117c9906147fb565b60405180910390fd5b80915050919050565b60008073ffffffffffffffffffffffffffffffffffffffff168273ffffffffffffffffffffffffffffffffffffffff16141561184c576040517f08c379a0000000000000000000000000000000000000000000000000000000008152600401611843906147db565b60405180910390fd5b606860008373ffffffffffffffffffffffffffffffffffffffff1673ffffffffffffffffffffffffffffffffffffffff168152602001908152602001600020549050919050565b600061189e33612b44565b156118de576040517f08c379a00000000000000000000000000000000000000000000000000000000081526004016118d59061479b565b60405180910390fd5b609b60003373ffffffffffffffffffffffffffffffffffffffff1673ffffffffffffffffffffffffffffffffffffffff16815260200190815260200160002060009054906101000a900460ff1661193457600080fd5b600061193f84612b57565b9050600061194e828542613045565b9050809250505092915050565b6000609b60003373ffffffffffffffffffffffffffffffffffffffff1673ffffffffffffffffffffffffffffffffffffffff16815260200190815260200160002060009054906101000a900460ff166119b357600080fd5b6104578310156119f8576040517f08c379a00000000000000000000000000000000000000000000000000000000081526004016119ef9061463b565b60405180910390fd5b6000611a05848442613045565b9050609d60003373ffffffffffffffffffffffffffffffffffffffff1673ffffffffffffffffffffffffffffffffffffffff1681526020019081526020016000208190806001815401808255809150506001900390600052602060002001600090919091909150556000609d60003373ffffffffffffffffffffffffffffffffffffffff1673ffffffffffffffffffffffffffffffffffffffff16815260200190815260200160002080549050905080609e6000848152602001908152602001600020819055508373ffffffffffffffffffffffffffffffffffffffff16827ff40cf4d564092d37e04e369ad4799671265e5e62fc1c7c444999bfec8522c68087604051611b13919061495b565b60405180910390a3819250505092915050565b600080600080609f8581548110611b66577f4e487b7100000000000000000000000000000000000000000000000000000000600052603260045260246000fd5b906000526020600020906003020160405180606001604052908160008201548152602001600182015481526020016002820154815250509050806000015181602001518260400151935093509350509193909250565b600060019054906101000a900460ff1680611be2575060008054906101000a900460ff16155b611c21576040517f08c379a0000000000000000000000000000000000000000000000000000000008152600401611c189061481b565b60405180910390fd5b60008060019054906101000a900460ff161590508015611c71576001600060016101000a81548160ff02191690831515021790555060016000806101000a81548160ff0219169083151502179055505b611ce56040518060400160405280600c81526020017f44696e6f734c616e644e465400000000000000000000000000000000000000008152506040518060400160405280600481526020017f44494e4f000000000000000000000000000000000000000000000000000000008152506130dd565b33609760006101000a81548173ffffffffffffffffffffffffffffffffffffffff021916908373ffffffffffffffffffffffffffffffffffffffff160217905550609f6040518060600160405280600081526020014281526020014281525090806001815401808255809150506001900390600052602060002090600302016000909190919091506000820151816000015560208201518160010155604082015181600201555050611d9a6104573342613045565b50611da86104bc3342613045565b50611db66105213342613045565b50611dc46105213342613045565b50611dd26105223342613045565b50611de06105233342613045565b508015611e025760008060016101000a81548160ff0219169083151502179055505b50565b609e6020528060005260406000206000915090505481565b609960009054906101000a900473ffffffffffffffffffffffffffffffffffffffff1673ffffffffffffffffffffffffffffffffffffffff163373ffffffffffffffffffffffffffffffffffffffff161480611ec65750609760009054906101000a900473ffffffffffffffffffffffffffffffffffffffff1673ffffffffffffffffffffffffffffffffffffffff163373ffffffffffffffffffffffffffffffffffffffff16145b80611f1e5750609860009054906101000a900473ffffffffffffffffffffffffffffffffffffffff1673ffffffffffffffffffffffffffffffffffffffff163373ffffffffffffffffffffffffffffffffffffffff16145b611f5d576040517f08c379a0000000000000000000000000000000000000000000000000000000008152600401611f54906146bb565b60405180910390fd5b609c60009054906101000a900460ff1615611f7757600080fd5b6001609c60006101000a81548160ff021916908315150217905550565b609960009054906101000a900473ffffffffffffffffffffffffffffffffffffffff1673ffffffffffffffffffffffffffffffffffffffff163373ffffffffffffffffffffffffffffffffffffffff16148061203d5750609760009054906101000a900473ffffffffffffffffffffffffffffffffffffffff1673ffffffffffffffffffffffffffffffffffffffff163373ffffffffffffffffffffffffffffffffffffffff16145b806120955750609860009054906101000a900473ffffffffffffffffffffffffffffffffffffffff1673ffffffffffffffffffffffffffffffffffffffff163373ffffffffffffffffffffffffffffffffffffffff16145b6120d4576040517f08c379a00000000000000000000000000000000000000000000000000000000081526004016120cb906146bb565b60405180910390fd5b80609a60006101000a81548173ffffffffffffffffffffffffffffffffffffffff021916908373ffffffffffffffffffffffffffffffffffffffff16021790555050565b60a25481565b60606066805461212d90614c73565b80601f016020809104026020016040519081016040528092919081815260200182805461215990614c73565b80156121a65780601f1061217b576101008083540402835291602001916121a6565b820191906000526020600020905b81548152906001019060200180831161218957829003601f168201915b5050505050905090565b609a60009054906101000a900473ffffffffffffffffffffffffffffffffffffffff1681565b609a60009054906101000a900473ffffffffffffffffffffffffffffffffffffffff1673ffffffffffffffffffffffffffffffffffffffff163373ffffffffffffffffffffffffffffffffffffffff1614612266576040517f08c379a000000000000000000000000000000000000000000000000000000000815260040161225d9061475b565b60405180910390fd5b609a60009054906101000a900473ffffffffffffffffffffffffffffffffffffffff1673ffffffffffffffffffffffffffffffffffffffff163373ffffffffffffffffffffffffffffffffffffffff16146122c057600080fd5b80609b60008473ffffffffffffffffffffffffffffffffffffffff1673ffffffffffffffffffffffffffffffffffffffff16815260200190815260200160002060006101000a81548160ff0219169083151502179055505050565b612323612972565b73ffffffffffffffffffffffffffffffffffffffff168273ffffffffffffffffffffffffffffffffffffffff161415612391576040517f08c379a0000000000000000000000000000000000000000000000000000000008152600401612388906146fb565b60405180910390fd5b80606a600061239e612972565b73ffffffffffffffffffffffffffffffffffffffff1673ffffffffffffffffffffffffffffffffffffffff16815260200190815260200160002060008473ffffffffffffffffffffffffffffffffffffffff1673ffffffffffffffffffffffffffffffffffffffff16815260200190815260200160002060006101000a81548160ff0219169083151502179055508173ffffffffffffffffffffffffffffffffffffffff1661244b612972565b73ffffffffffffffffffffffffffffffffffffffff167f17307eab39ab6107e8899845ad3d59bd9653f200f220920489ca2b5937696c318360405161249091906145de565b60405180910390a35050565b60a55481565b609960009054906101000a900473ffffffffffffffffffffffffffffffffffffffff1681565b60a35481565b6124df6124d9612972565b83612d0b565b61251e576040517f08c379a00000000000000000000000000000000000000000000000000000000081526004016125159061493b565b60405180910390fd5b61252a848484846131d2565b50505050565b609b6020528060005260406000206000915054906101000a900460ff1681565b606061255b82612906565b61259a576040517f08c379a0000000000000000000000000000000000000000000000000000000008152600401612591906148db565b60405180910390fd5b60006125a461322e565b905060008151116125c457604051806020016040528060008152506125ef565b806125ce84613245565b6040516020016125df929190614531565b6040516020818303038152906040525b915050919050565b6060609d60008373ffffffffffffffffffffffffffffffffffffffff1673ffffffffffffffffffffffffffffffffffffffff16815260200190815260200160002080548060200260200160405190810160405280929190818152602001828054801561268257602002820191906000526020600020905b81548152602001906001019080831161266e575b50505050509050919050565b609b60003373ffffffffffffffffffffffffffffffffffffffff1673ffffffffffffffffffffffffffffffffffffffff16815260200190815260200160002060009054906101000a900460ff166126e457600080fd5b610457811015612729576040517f08c379a00000000000000000000000000000000000000000000000000000000081526004016127209061463b565b60405180910390fd5b6000609f8381548110612765577f4e487b7100000000000000000000000000000000000000000000000000000000600052603260045260246000fd5b906000526020600020906003020160000154905081609f84815481106127b4577f4e487b7100000000000000000000000000000000000000000000000000000000600052603260045260246000fd5b906000526020600020906003020160000181905550827f82b010abe1945b626325d9d8883b89bf6b65c1d721906899e32bb214a7ccc4bf82846040516127fb929190614976565b60405180910390a2505050565b6000606a60008473ffffffffffffffffffffffffffffffffffffffff1673ffffffffffffffffffffffffffffffffffffffff16815260200190815260200160002060008373ffffffffffffffffffffffffffffffffffffffff1673ffffffffffffffffffffffffffffffffffffffff16815260200190815260200160002060009054906101000a900460ff16905092915050565b60007f01ffc9a7000000000000000000000000000000000000000000000000000000007bffffffffffffffffffffffffffffffffffffffffffffffffffffffff1916827bffffffffffffffffffffffffffffffffffffffffffffffffffffffff1916149050919050565b60008073ffffffffffffffffffffffffffffffffffffffff166067600084815260200190815260200160002060009054906101000a900473ffffffffffffffffffffffffffffffffffffffff1673ffffffffffffffffffffffffffffffffffffffff1614159050919050565b600033905090565b816069600083815260200190815260200160002060006101000a81548173ffffffffffffffffffffffffffffffffffffffff021916908373ffffffffffffffffffffffffffffffffffffffff160217905550808273ffffffffffffffffffffffffffffffffffffffff166129ed83611729565b73ffffffffffffffffffffffffffffffffffffffff167f8c5be1e5ebec7d5bd14f71427d1e84f3dd0314c0f7b2291e5b200ac8c7c3b92560405160405180910390a45050565b6000612a3e82611729565b9050612a4c816000846133f2565b612a5760008361297a565b6001606860008373ffffffffffffffffffffffffffffffffffffffff1673ffffffffffffffffffffffffffffffffffffffff1681526020019081526020016000206000828254612aa79190614b89565b925050819055506067600083815260200190815260200160002060006101000a81549073ffffffffffffffffffffffffffffffffffffffff021916905581600073ffffffffffffffffffffffffffffffffffffffff168273ffffffffffffffffffffffffffffffffffffffff167fddf252ad1be2c89b69c2b068fc378daa952ba7f163c4a11628f55a4df523b3ef60405160405180910390a45050565b600080823b905060008111915050919050565b6000806103e883612b689190614afe565b14612ba8576040517f08c379a0000000000000000000000000000000000000000000000000000000008152600401612b9f906148fb565b60405180910390fd5b600a821415612be7576000612bbb6133f7565b905060218111612bce57600b9250612be5565b60428111612bdf57600c9250612be4565b600d92505b5b505b6000612bf16133f7565b905060a1548111612c1d57600b606484612c0b9190614b2f565b612c159190614aa8565b915050612d06565b60a25460a154612c2d9190614aa8565b8111612c5457600c606484612c429190614b2f565b612c4c9190614aa8565b915050612d06565b60a35460a25460a154612c679190614aa8565b612c719190614aa8565b8111612c9857600d606484612c869190614b2f565b612c909190614aa8565b915050612d06565b60a45460a35460a25460a154612cae9190614aa8565b612cb89190614aa8565b612cc29190614aa8565b8111612ce957600e606484612cd79190614b2f565b612ce19190614aa8565b915050612d06565b600f606484612cf89190614b2f565b612d029190614aa8565b9150505b919050565b6000612d1682612906565b612d55576040517f08c379a0000000000000000000000000000000000000000000000000000000008152600401612d4c9061473b565b60405180910390fd5b6000612d6083611729565b90508073ffffffffffffffffffffffffffffffffffffffff168473ffffffffffffffffffffffffffffffffffffffff161480612dcf57508373ffffffffffffffffffffffffffffffffffffffff16612db7846109ac565b73ffffffffffffffffffffffffffffffffffffffff16145b80612de05750612ddf8185612808565b5b91505092915050565b8273ffffffffffffffffffffffffffffffffffffffff16612e0982611729565b73ffffffffffffffffffffffffffffffffffffffff1614612e5f576040517f08c379a0000000000000000000000000000000000000000000000000000000008152600401612e56906148bb565b60405180910390fd5b600073ffffffffffffffffffffffffffffffffffffffff168273ffffffffffffffffffffffffffffffffffffffff161415612ecf576040517f08c379a0000000000000000000000000000000000000000000000000000000008152600401612ec6906146db565b60405180910390fd5b612eda8383836133f2565b612ee560008261297a565b6001606860008573ffffffffffffffffffffffffffffffffffffffff1673ffffffffffffffffffffffffffffffffffffffff1681526020019081526020016000206000828254612f359190614b89565b925050819055506001606860008473ffffffffffffffffffffffffffffffffffffffff1673ffffffffffffffffffffffffffffffffffffffff1681526020019081526020016000206000828254612f8c9190614aa8565b92505081905550816067600083815260200190815260200160002060006101000a81548173ffffffffffffffffffffffffffffffffffffffff021916908373ffffffffffffffffffffffffffffffffffffffff160217905550808273ffffffffffffffffffffffffffffffffffffffff168473ffffffffffffffffffffffffffffffffffffffff167fddf252ad1be2c89b69c2b068fc378daa952ba7f163c4a11628f55a4df523b3ef60405160405180910390a4505050565b6000806040518060600160405280868152602001428152602001848152509050609f819080600181540180825580915050600190039060005260206000209060030201600090919091909150600082015181600001556020820151816001015560408201518160020155505060006001609f805490506130c59190614b89565b90506130d18582613461565b80925050509392505050565b600060019054906101000a900460ff1680613103575060008054906101000a900460ff16155b613142576040517f08c379a00000000000000000000000000000000000000000000000000000000081526004016131399061481b565b60405180910390fd5b60008060019054906101000a900460ff161590508015613192576001600060016101000a81548160ff02191690831515021790555060016000806101000a81548160ff0219169083151502179055505b61319a61362f565b6131a2613708565b6131ac83836137e1565b80156131cd5760008060016101000a81548160ff0219169083151502179055505b505050565b6131dd848484612de9565b6131e9848484846138ea565b613228576040517f08c379a000000000000000000000000000000000000000000000000000000000815260040161321f9061465b565b60405180910390fd5b50505050565b606060405180602001604052806000815250905090565b6060600082141561328d576040518060400160405280600181526020017f300000000000000000000000000000000000000000000000000000000000000081525090506133ed565b600082905060005b600082146132bf5780806132a890614cd6565b915050600a826132b89190614afe565b9150613295565b60008167ffffffffffffffff811115613301577f4e487b7100000000000000000000000000000000000000000000000000000000600052604160045260246000fd5b6040519080825280601f01601f1916602001820160405280156133335781602001600182028036833780820191505090505b5090505b600085146133e65760018261334c9190614b89565b9150600a8561335b9190614d4d565b60306133679190614aa8565b60f81b8183815181106133a3577f4e487b7100000000000000000000000000000000000000000000000000000000600052603260045260246000fd5b60200101907effffffffffffffffffffffffffffffffffffffffffffffffffffffffffffff1916908160001a905350600a856133df9190614afe565b9450613337565b8093505050505b919050565b505050565b6000806001606433424460a0600081548092919061341490614cd6565b9190505560405160200161342b94939291906144d8565b6040516020818303038152906040528051906020012060001c61344e9190614d4d565b6134589190614aa8565b90508091505090565b600073ffffffffffffffffffffffffffffffffffffffff168273ffffffffffffffffffffffffffffffffffffffff1614156134d1576040517f08c379a00000000000000000000000000000000000000000000000000000000081526004016134c89061487b565b60405180910390fd5b6134da81612906565b1561351a576040517f08c379a00000000000000000000000000000000000000000000000000000000081526004016135119061469b565b60405180910390fd5b613526600083836133f2565b6001606860008473ffffffffffffffffffffffffffffffffffffffff1673ffffffffffffffffffffffffffffffffffffffff16815260200190815260200160002060008282546135769190614aa8565b92505081905550816067600083815260200190815260200160002060006101000a81548173ffffffffffffffffffffffffffffffffffffffff021916908373ffffffffffffffffffffffffffffffffffffffff160217905550808273ffffffffffffffffffffffffffffffffffffffff16600073ffffffffffffffffffffffffffffffffffffffff167fddf252ad1be2c89b69c2b068fc378daa952ba7f163c4a11628f55a4df523b3ef60405160405180910390a45050565b600060019054906101000a900460ff1680613655575060008054906101000a900460ff16155b613694576040517f08c379a000000000000000000000000000000000000000000000000000000000815260040161368b9061481b565b60405180910390fd5b60008060019054906101000a900460ff1615905080156136e4576001600060016101000a81548160ff02191690831515021790555060016000806101000a81548160ff0219169083151502179055505b80156137055760008060016101000a81548160ff0219169083151502179055505b50565b600060019054906101000a900460ff168061372e575060008054906101000a900460ff16155b61376d576040517f08c379a00000000000000000000000000000000000000000000000000000000081526004016137649061481b565b60405180910390fd5b60008060019054906101000a900460ff1615905080156137bd576001600060016101000a81548160ff02191690831515021790555060016000806101000a81548160ff0219169083151502179055505b80156137de5760008060016101000a81548160ff0219169083151502179055505b50565b600060019054906101000a900460ff1680613807575060008054906101000a900460ff16155b613846576040517f08c379a000000000000000000000000000000000000000000000000000000000815260040161383d9061481b565b60405180910390fd5b60008060019054906101000a900460ff161590508015613896576001600060016101000a81548160ff02191690831515021790555060016000806101000a81548160ff0219169083151502179055505b82606590805190602001906138ac929190613a94565b5081606690805190602001906138c3929190613a94565b5080156138e55760008060016101000a81548160ff0219169083151502179055505b505050565b600061390b8473ffffffffffffffffffffffffffffffffffffffff16613a81565b15613a74578373ffffffffffffffffffffffffffffffffffffffff1663150b7a02613934612972565b8786866040518563ffffffff1660e01b81526004016139569493929190614570565b602060405180830381600087803b15801561397057600080fd5b505af19250505080156139a157506040513d601f19601f8201168201806040525081019061399e9190613dd8565b60015b613a24573d80600081146139d1576040519150601f19603f3d011682016040523d82523d6000602084013e6139d6565b606091505b50600081511415613a1c576040517f08c379a0000000000000000000000000000000000000000000000000000000008152600401613a139061465b565b60405180910390fd5b805181602001fd5b63150b7a0260e01b7bffffffffffffffffffffffffffffffffffffffffffffffffffffffff1916817bffffffffffffffffffffffffffffffffffffffffffffffffffffffff191614915050613a79565b600190505b949350505050565b600080823b905060008111915050919050565b828054613aa090614c73565b90600052602060002090601f016020900481019282613ac25760008555613b09565b82601f10613adb57805160ff1916838001178555613b09565b82800160010185558215613b09579182015b82811115613b08578251825591602001919060010190613aed565b5b509050613b169190613b1a565b5090565b5b80821115613b33576000816000905550600101613b1b565b5090565b6000613b4a613b45846149fb565b6149d6565b905082815260208101848484011115613b6257600080fd5b613b6d848285614c31565b509392505050565b600081359050613b848161550b565b92915050565b600081359050613b9981615522565b92915050565b600081359050613bae81615539565b92915050565b600081519050613bc381615539565b92915050565b600082601f830112613bda57600080fd5b8135613bea848260208601613b37565b91505092915050565b600081359050613c0281615550565b92915050565b600060208284031215613c1a57600080fd5b6000613c2884828501613b75565b91505092915050565b60008060408385031215613c4457600080fd5b6000613c5285828601613b75565b9250506020613c6385828601613b75565b9150509250929050565b600080600060608486031215613c8257600080fd5b6000613c9086828701613b75565b9350506020613ca186828701613b75565b9250506040613cb286828701613bf3565b9150509250925092565b60008060008060808587031215613cd257600080fd5b6000613ce087828801613b75565b9450506020613cf187828801613b75565b9350506040613d0287828801613bf3565b925050606085013567ffffffffffffffff811115613d1f57600080fd5b613d2b87828801613bc9565b91505092959194509250565b60008060408385031215613d4a57600080fd5b6000613d5885828601613b75565b9250506020613d6985828601613b8a565b9150509250929050565b60008060408385031215613d8657600080fd5b6000613d9485828601613b75565b9250506020613da585828601613bf3565b9150509250929050565b600060208284031215613dc157600080fd5b6000613dcf84828501613b9f565b91505092915050565b600060208284031215613dea57600080fd5b6000613df884828501613bb4565b91505092915050565b600060208284031215613e1357600080fd5b6000613e2184828501613bf3565b91505092915050565b60008060408385031215613e3d57600080fd5b6000613e4b85828601613bf3565b9250506020613e5c85828601613b75565b9150509250929050565b600080600060608486031215613e7b57600080fd5b6000613e8986828701613bf3565b9350506020613e9a86828701613b75565b9250506040613eab86828701613bf3565b9150509250925092565b60008060408385031215613ec857600080fd5b6000613ed685828601613bf3565b9250506020613ee785828601613b8a565b9150509250929050565b60008060408385031215613f0457600080fd5b6000613f1285828601613bf3565b9250506020613f2385828601613bf3565b9150509250929050565b600080600080600060a08688031215613f4557600080fd5b6000613f5388828901613bf3565b9550506020613f6488828901613bf3565b9450506040613f7588828901613bf3565b9350506060613f8688828901613bf3565b9250506080613f9788828901613bf3565b9150509295509295909350565b6000613fb083836144a3565b60208301905092915050565b613fc581614bbd565b82525050565b613fdc613fd782614bbd565b614d1f565b82525050565b6000613fed82614a3c565b613ff78185614a6a565b935061400283614a2c565b8060005b8381101561403357815161401a8882613fa4565b975061402583614a5d565b925050600181019050614006565b5085935050505092915050565b61404981614bcf565b82525050565b600061405a82614a47565b6140648185614a7b565b9350614074818560208601614c40565b61407d81614e3a565b840191505092915050565b600061409382614a52565b61409d8185614a8c565b93506140ad818560208601614c40565b6140b681614e3a565b840191505092915050565b60006140cc82614a52565b6140d68185614a9d565b93506140e6818560208601614c40565b80840191505092915050565b60006140ff601883614a8c565b915061410a82614e58565b602082019050919050565b6000614122601783614a8c565b915061412d82614e81565b602082019050919050565b6000614145600883614a9d565b915061415082614eaa565b600882019050919050565b6000614168603283614a8c565b915061417382614ed3565b604082019050919050565b600061418b601a83614a8c565b915061419682614f22565b602082019050919050565b60006141ae601c83614a8c565b91506141b982614f4b565b602082019050919050565b60006141d1602583614a8c565b91506141dc82614f74565b604082019050919050565b60006141f4602483614a8c565b91506141ff82614fc3565b604082019050919050565b6000614217601983614a8c565b915061422282615012565b602082019050919050565b600061423a601083614a8c565b91506142458261503b565b602082019050919050565b600061425d602c83614a8c565b915061426882615064565b604082019050919050565b6000614280602f83614a8c565b915061428b826150b3565b604082019050919050565b60006142a3601b83614a8c565b91506142ae82615102565b602082019050919050565b60006142c6602283614a8c565b91506142d18261512b565b604082019050919050565b60006142e9603883614a8c565b91506142f48261517a565b604082019050919050565b600061430c602a83614a8c565b9150614317826151c9565b604082019050919050565b600061432f602983614a8c565b915061433a82615218565b604082019050919050565b6000614352602e83614a8c565b915061435d82615267565b604082019050919050565b6000614375601083614a8c565b9150614380826152b6565b602082019050919050565b6000614398602283614a8c565b91506143a3826152df565b604082019050919050565b60006143bb602083614a8c565b91506143c68261532e565b602082019050919050565b60006143de602c83614a8c565b91506143e982615357565b604082019050919050565b6000614401602983614a8c565b915061440c826153a6565b604082019050919050565b6000614424602f83614a8c565b915061442f826153f5565b604082019050919050565b6000614447601383614a8c565b915061445282615444565b602082019050919050565b600061446a602183614a8c565b91506144758261546d565b604082019050919050565b600061448d603183614a8c565b9150614498826154bc565b604082019050919050565b6144ac81614c27565b82525050565b6144bb81614c27565b82525050565b6144d26144cd82614c27565b614d43565b82525050565b60006144e48287613fcb565b6014820191506144f482866144c1565b60208201915061450482856144c1565b60208201915061451382614138565b915061451f82846144c1565b60208201915081905095945050505050565b600061453d82856140c1565b915061454982846140c1565b91508190509392505050565b600060208201905061456a6000830184613fbc565b92915050565b60006080820190506145856000830187613fbc565b6145926020830186613fbc565b61459f60408301856144b2565b81810360608301526145b1818461404f565b905095945050505050565b600060208201905081810360008301526145d68184613fe2565b905092915050565b60006020820190506145f36000830184614040565b92915050565b600060208201905081810360008301526146138184614088565b905092915050565b60006020820190508181036000830152614634816140f2565b9050919050565b6000602082019050818103600083015261465481614115565b9050919050565b600060208201905081810360008301526146748161415b565b9050919050565b600060208201905081810360008301526146948161417e565b9050919050565b600060208201905081810360008301526146b4816141a1565b9050919050565b600060208201905081810360008301526146d4816141c4565b9050919050565b600060208201905081810360008301526146f4816141e7565b9050919050565b600060208201905081810360008301526147148161420a565b9050919050565b600060208201905081810360008301526147348161422d565b9050919050565b6000602082019050818103600083015261475481614250565b9050919050565b6000602082019050818103600083015261477481614273565b9050919050565b6000602082019050818103600083015261479481614296565b9050919050565b600060208201905081810360008301526147b4816142b9565b9050919050565b600060208201905081810360008301526147d4816142dc565b9050919050565b600060208201905081810360008301526147f4816142ff565b9050919050565b6000602082019050818103600083015261481481614322565b9050919050565b6000602082019050818103600083015261483481614345565b9050919050565b6000602082019050818103600083015261485481614368565b9050919050565b600060208201905081810360008301526148748161438b565b9050919050565b60006020820190508181036000830152614894816143ae565b9050919050565b600060208201905081810360008301526148b4816143d1565b9050919050565b600060208201905081810360008301526148d4816143f4565b9050919050565b600060208201905081810360008301526148f481614417565b9050919050565b600060208201905081810360008301526149148161443a565b9050919050565b600060208201905081810360008301526149348161445d565b9050919050565b6000602082019050818103600083015261495481614480565b9050919050565b600060208201905061497060008301846144b2565b92915050565b600060408201905061498b60008301856144b2565b61499860208301846144b2565b9392505050565b60006060820190506149b460008301866144b2565b6149c160208301856144b2565b6149ce60408301846144b2565b949350505050565b60006149e06149f1565b90506149ec8282614ca5565b919050565b6000604051905090565b600067ffffffffffffffff821115614a1657614a15614e0b565b5b614a1f82614e3a565b9050602081019050919050565b6000819050602082019050919050565b600081519050919050565b600081519050919050565b600081519050919050565b6000602082019050919050565b600082825260208201905092915050565b600082825260208201905092915050565b600082825260208201905092915050565b600081905092915050565b6000614ab382614c27565b9150614abe83614c27565b9250827fffffffffffffffffffffffffffffffffffffffffffffffffffffffffffffffff03821115614af357614af2614d7e565b5b828201905092915050565b6000614b0982614c27565b9150614b1483614c27565b925082614b2457614b23614dad565b5b828204905092915050565b6000614b3a82614c27565b9150614b4583614c27565b9250817fffffffffffffffffffffffffffffffffffffffffffffffffffffffffffffffff0483118215151615614b7e57614b7d614d7e565b5b828202905092915050565b6000614b9482614c27565b9150614b9f83614c27565b925082821015614bb257614bb1614d7e565b5b828203905092915050565b6000614bc882614c07565b9050919050565b60008115159050919050565b60007fffffffff0000000000000000000000000000000000000000000000000000000082169050919050565b600073ffffffffffffffffffffffffffffffffffffffff82169050919050565b6000819050919050565b82818337600083830152505050565b60005b83811015614c5e578082015181840152602081019050614c43565b83811115614c6d576000848401525b50505050565b60006002820490506001821680614c8b57607f821691505b60208210811415614c9f57614c9e614ddc565b5b50919050565b614cae82614e3a565b810181811067ffffffffffffffff82111715614ccd57614ccc614e0b565b5b80604052505050565b6000614ce182614c27565b91507fffffffffffffffffffffffffffffffffffffffffffffffffffffffffffffffff821415614d1457614d13614d7e565b5b600182019050919050565b6000614d2a82614d31565b9050919050565b6000614d3c82614e4b565b9050919050565b6000819050919050565b6000614d5882614c27565b9150614d6383614c27565b925082614d7357614d72614dad565b5b828206905092915050565b7f4e487b7100000000000000000000000000000000000000000000000000000000600052601160045260246000fd5b7f4e487b7100000000000000000000000000000000000000000000000000000000600052601260045260246000fd5b7f4e487b7100000000000000000000000000000000000000000000000000000000600052602260045260246000fd5b7f4e487b7100000000000000000000000000000000000000000000000000000000600052604160045260246000fd5b6000601f19601f8301169050919050565b60008160601b9050919050565b7f546f74616c2070657263656e74206973206e6f74203130300000000000000000600082015250565b7f44696e6f2067656e6573206973206e6f742076616c6964000000000000000000600082015250565b7f44696e6f4c616e64000000000000000000000000000000000000000000000000600082015250565b7f4552433732313a207472616e7366657220746f206e6f6e20455243373231526560008201527f63656976657220696d706c656d656e7465720000000000000000000000000000602082015250565b7f596f7520646f206e6f742068617665207065726d697373696f6e000000000000600082015250565b7f4552433732313a20746f6b656e20616c7265616479206d696e74656400000000600082015250565b7f5065726d697373696f6e202064656e6965642c206f6e6c7920616c6c6f77204360008201527f4c6576656c000000000000000000000000000000000000000000000000000000602082015250565b7f4552433732313a207472616e7366657220746f20746865207a65726f2061646460008201527f7265737300000000000000000000000000000000000000000000000000000000602082015250565b7f4552433732313a20617070726f766520746f2063616c6c657200000000000000600082015250565b7f4974206973206e6f7420616e2065676700000000000000000000000000000000600082015250565b7f4552433732313a206f70657261746f7220717565727920666f72206e6f6e657860008201527f697374656e7420746f6b656e0000000000000000000000000000000000000000602082015250565b7f5065726d697373696f6e202064656e6965642c206f6e6c7920616c6c6f77207360008201527f7061776e696e67206d616e616765720000000000000000000000000000000000602082015250565b7f44696e6f206567672067656e6573206973206e6f742076616c69640000000000600082015250565b7f43616e206e6f742063616c6c2066726f6d20616e6f7468657220636f6e74726160008201527f6374000000000000000000000000000000000000000000000000000000000000602082015250565b7f4552433732313a20617070726f76652063616c6c6572206973206e6f74206f7760008201527f6e6572206e6f7220617070726f76656420666f7220616c6c0000000000000000602082015250565b7f4552433732313a2062616c616e636520717565727920666f7220746865207a6560008201527f726f206164647265737300000000000000000000000000000000000000000000602082015250565b7f4552433732313a206f776e657220717565727920666f72206e6f6e657869737460008201527f656e7420746f6b656e0000000000000000000000000000000000000000000000602082015250565b7f496e697469616c697a61626c653a20636f6e747261637420697320616c72656160008201527f647920696e697469616c697a6564000000000000000000000000000000000000602082015250565b7f456767206973206e6f7420726561647900000000000000000000000000000000600082015250565b7f5065726d697373696f6e202064656e6965642c206f6e6c7920616c6c6f77204360008201527f454f000000000000000000000000000000000000000000000000000000000000602082015250565b7f4552433732313a206d696e7420746f20746865207a65726f2061646472657373600082015250565b7f4552433732313a20617070726f76656420717565727920666f72206e6f6e657860008201527f697374656e7420746f6b656e0000000000000000000000000000000000000000602082015250565b7f4552433732313a207472616e73666572206f6620746f6b656e2074686174206960008201527f73206e6f74206f776e0000000000000000000000000000000000000000000000602082015250565b7f4552433732314d657461646174613a2055524920717565727920666f72206e6f60008201527f6e6578697374656e7420746f6b656e0000000000000000000000000000000000602082015250565b7f4e6f742076616c6964206567672067656e657300000000000000000000000000600082015250565b7f4552433732313a20617070726f76616c20746f2063757272656e74206f776e6560008201527f7200000000000000000000000000000000000000000000000000000000000000602082015250565b7f4552433732313a207472616e736665722063616c6c6572206973206e6f74206f60008201527f776e6572206e6f7220617070726f766564000000000000000000000000000000602082015250565b61551481614bbd565b811461551f57600080fd5b50565b61552b81614bcf565b811461553657600080fd5b50565b61554281614bdb565b811461554d57600080fd5b50565b61555981614c27565b811461556457600080fd5b5056fea2646970667358221220bfff35921cc703a765093f82e6a61729d6721523be4912626e7e3041c845937964736f6c63430008040033",
			"opcodes": "PUSH1 0x80 PUSH1 0x40 MSTORE PUSH1 0x0 PUSH1 0x9C PUSH1 0x0 PUSH2 0x100 EXP DUP2 SLOAD DUP2 PUSH1 0xFF MUL NOT AND SWAP1 DUP4 ISZERO ISZERO MUL OR SWAP1 SSTORE POP PUSH1 0x0 PUSH1 0xA0 SSTORE PUSH1 0x35 PUSH1 0xA1 SSTORE PUSH1 0x1E PUSH1 0xA2 SSTORE PUSH1 0xA PUSH1 0xA3 SSTORE PUSH1 0x5 PUSH1 0xA4 SSTORE PUSH1 0x2 PUSH1 0xA5 SSTORE CALLVALUE DUP1 ISZERO PUSH2 0x49 JUMPI PUSH1 0x0 DUP1 REVERT JUMPDEST POP PUSH2 0x559D DUP1 PUSH3 0x5A PUSH1 0x0 CODECOPY PUSH1 0x0 RETURN INVALID PUSH1 0x80 PUSH1 0x40 MSTORE CALLVALUE DUP1 ISZERO PUSH2 0x10 JUMPI PUSH1 0x0 DUP1 REVERT JUMPDEST POP PUSH1 0x4 CALLDATASIZE LT PUSH2 0x269 JUMPI PUSH1 0x0 CALLDATALOAD PUSH1 0xE0 SHR DUP1 PUSH4 0x70A08231 GT PUSH2 0x151 JUMPI DUP1 PUSH4 0x9F186EDB GT PUSH2 0xC3 JUMPI DUP1 PUSH4 0xB88D4FDE GT PUSH2 0x87 JUMPI DUP1 PUSH4 0xB88D4FDE EQ PUSH2 0x714 JUMPI DUP1 PUSH4 0xC84C9E45 EQ PUSH2 0x730 JUMPI DUP1 PUSH4 0xC87B56DD EQ PUSH2 0x760 JUMPI DUP1 PUSH4 0xC990AC7E EQ PUSH2 0x790 JUMPI DUP1 PUSH4 0xCC5A3661 EQ PUSH2 0x7C0 JUMPI DUP1 PUSH4 0xE985E9C5 EQ PUSH2 0x7DC JUMPI PUSH2 0x269 JUMP JUMPDEST DUP1 PUSH4 0x9F186EDB EQ PUSH2 0x682 JUMPI DUP1 PUSH4 0xA22CB465 EQ PUSH2 0x69E JUMPI DUP1 PUSH4 0xA37959CD EQ PUSH2 0x6BA JUMPI DUP1 PUSH4 0xB047FB50 EQ PUSH2 0x6D8 JUMPI DUP1 PUSH4 0xB746118F EQ PUSH2 0x6F6 JUMPI PUSH2 0x269 JUMP JUMPDEST DUP1 PUSH4 0x81808D41 GT PUSH2 0x115 JUMPI DUP1 PUSH4 0x81808D41 EQ PUSH2 0x5D2 JUMPI DUP1 PUSH4 0x8456CB59 EQ PUSH2 0x602 JUMPI DUP1 PUSH4 0x8C37E31E EQ PUSH2 0x60C JUMPI DUP1 PUSH4 0x94A3F89A EQ PUSH2 0x628 JUMPI DUP1 PUSH4 0x95D89B41 EQ PUSH2 0x646 JUMPI DUP1 PUSH4 0x98F5EE5D EQ PUSH2 0x664 JUMPI PUSH2 0x269 JUMP JUMPDEST DUP1 PUSH4 0x70A08231 EQ PUSH2 0x506 JUMPI DUP1 PUSH4 0x77932011 EQ PUSH2 0x536 JUMPI DUP1 PUSH4 0x7D42E1A7 EQ PUSH2 0x566 JUMPI DUP1 PUSH4 0x80AD40A5 EQ PUSH2 0x596 JUMPI DUP1 PUSH4 0x8129FC1C EQ PUSH2 0x5C8 JUMPI PUSH2 0x269 JUMP JUMPDEST DUP1 PUSH4 0x23B872DD GT PUSH2 0x1EA JUMPI DUP1 PUSH4 0x47CB72FE GT PUSH2 0x1AE JUMPI DUP1 PUSH4 0x47CB72FE EQ PUSH2 0x432 JUMPI DUP1 PUSH4 0x4E0A3379 EQ PUSH2 0x44E JUMPI DUP1 PUSH4 0x4F18A5DB EQ PUSH2 0x46A JUMPI DUP1 PUSH4 0x530D44F4 EQ PUSH2 0x49A JUMPI DUP1 PUSH4 0x5C975ABB EQ PUSH2 0x4B8 JUMPI DUP1 PUSH4 0x6352211E EQ PUSH2 0x4D6 JUMPI PUSH2 0x269 JUMP JUMPDEST DUP1 PUSH4 0x23B872DD EQ PUSH2 0x3B8 JUMPI DUP1 PUSH4 0x27D7874C EQ PUSH2 0x3D4 JUMPI DUP1 PUSH4 0x2BA73C15 EQ PUSH2 0x3F0 JUMPI DUP1 PUSH4 0x3F4BA83A EQ PUSH2 0x40C JUMPI DUP1 PUSH4 0x42842E0E EQ PUSH2 0x416 JUMPI PUSH2 0x269 JUMP JUMPDEST DUP1 PUSH4 0x95EA7B3 GT PUSH2 0x231 JUMPI DUP1 PUSH4 0x95EA7B3 EQ PUSH2 0x328 JUMPI DUP1 PUSH4 0xA0F8168 EQ PUSH2 0x344 JUMPI DUP1 PUSH4 0x18160DDD EQ PUSH2 0x362 JUMPI DUP1 PUSH4 0x18F04090 EQ PUSH2 0x380 JUMPI DUP1 PUSH4 0x2385554C EQ PUSH2 0x39C JUMPI PUSH2 0x269 JUMP JUMPDEST DUP1 PUSH4 0x1FFC9A7 EQ PUSH2 0x26E JUMPI DUP1 PUSH4 0x519CE79 EQ PUSH2 0x29E JUMPI DUP1 PUSH4 0x5AD815E EQ PUSH2 0x2BC JUMPI DUP1 PUSH4 0x6FDDE03 EQ PUSH2 0x2DA JUMPI DUP1 PUSH4 0x81812FC EQ PUSH2 0x2F8 JUMPI JUMPDEST PUSH1 0x0 DUP1 REVERT JUMPDEST PUSH2 0x288 PUSH1 0x4 DUP1 CALLDATASIZE SUB DUP2 ADD SWAP1 PUSH2 0x283 SWAP2 SWAP1 PUSH2 0x3DAF JUMP JUMPDEST PUSH2 0x80C JUMP JUMPDEST PUSH1 0x40 MLOAD PUSH2 0x295 SWAP2 SWAP1 PUSH2 0x45DE JUMP JUMPDEST PUSH1 0x40 MLOAD DUP1 SWAP2 SUB SWAP1 RETURN JUMPDEST PUSH2 0x2A6 PUSH2 0x8EE JUMP JUMPDEST PUSH1 0x40 MLOAD PUSH2 0x2B3 SWAP2 SWAP1 PUSH2 0x4555 JUMP JUMPDEST PUSH1 0x40 MLOAD DUP1 SWAP2 SUB SWAP1 RETURN JUMPDEST PUSH2 0x2C4 PUSH2 0x914 JUMP JUMPDEST PUSH1 0x40 MLOAD PUSH2 0x2D1 SWAP2 SWAP1 PUSH2 0x495B JUMP JUMPDEST PUSH1 0x40 MLOAD DUP1 SWAP2 SUB SWAP1 RETURN JUMPDEST PUSH2 0x2E2 PUSH2 0x91A JUMP JUMPDEST PUSH1 0x40 MLOAD PUSH2 0x2EF SWAP2 SWAP1 PUSH2 0x45F9 JUMP JUMPDEST PUSH1 0x40 MLOAD DUP1 SWAP2 SUB SWAP1 RETURN JUMPDEST PUSH2 0x312 PUSH1 0x4 DUP1 CALLDATASIZE SUB DUP2 ADD SWAP1 PUSH2 0x30D SWAP2 SWAP1 PUSH2 0x3E01 JUMP JUMPDEST PUSH2 0x9AC JUMP JUMPDEST PUSH1 0x40 MLOAD PUSH2 0x31F SWAP2 SWAP1 PUSH2 0x4555 JUMP JUMPDEST PUSH1 0x40 MLOAD DUP1 SWAP2 SUB SWAP1 RETURN JUMPDEST PUSH2 0x342 PUSH1 0x4 DUP1 CALLDATASIZE SUB DUP2 ADD SWAP1 PUSH2 0x33D SWAP2 SWAP1 PUSH2 0x3D73 JUMP JUMPDEST PUSH2 0xA31 JUMP JUMPDEST STOP JUMPDEST PUSH2 0x34C PUSH2 0xB49 JUMP JUMPDEST PUSH1 0x40 MLOAD PUSH2 0x359 SWAP2 SWAP1 PUSH2 0x4555 JUMP JUMPDEST PUSH1 0x40 MLOAD DUP1 SWAP2 SUB SWAP1 RETURN JUMPDEST PUSH2 0x36A PUSH2 0xB6F JUMP JUMPDEST PUSH1 0x40 MLOAD PUSH2 0x377 SWAP2 SWAP1 PUSH2 0x495B JUMP JUMPDEST PUSH1 0x40 MLOAD DUP1 SWAP2 SUB SWAP1 RETURN JUMPDEST PUSH2 0x39A PUSH1 0x4 DUP1 CALLDATASIZE SUB DUP2 ADD SWAP1 PUSH2 0x395 SWAP2 SWAP1 PUSH2 0x3EB5 JUMP JUMPDEST PUSH2 0xB7C JUMP JUMPDEST STOP JUMPDEST PUSH2 0x3B6 PUSH1 0x4 DUP1 CALLDATASIZE SUB DUP2 ADD SWAP1 PUSH2 0x3B1 SWAP2 SWAP1 PUSH2 0x3E01 JUMP JUMPDEST PUSH2 0xD60 JUMP JUMPDEST STOP JUMPDEST PUSH2 0x3D2 PUSH1 0x4 DUP1 CALLDATASIZE SUB DUP2 ADD SWAP1 PUSH2 0x3CD SWAP2 SWAP1 PUSH2 0x3C6D JUMP JUMPDEST PUSH2 0xFFA JUMP JUMPDEST STOP JUMPDEST PUSH2 0x3EE PUSH1 0x4 DUP1 CALLDATASIZE SUB DUP2 ADD SWAP1 PUSH2 0x3E9 SWAP2 SWAP1 PUSH2 0x3C08 JUMP JUMPDEST PUSH2 0x105A JUMP JUMPDEST STOP JUMPDEST PUSH2 0x40A PUSH1 0x4 DUP1 CALLDATASIZE SUB DUP2 ADD SWAP1 PUSH2 0x405 SWAP2 SWAP1 PUSH2 0x3C08 JUMP JUMPDEST PUSH2 0x1168 JUMP JUMPDEST STOP JUMPDEST PUSH2 0x414 PUSH2 0x1276 JUMP JUMPDEST STOP JUMPDEST PUSH2 0x430 PUSH1 0x4 DUP1 CALLDATASIZE SUB DUP2 ADD SWAP1 PUSH2 0x42B SWAP2 SWAP1 PUSH2 0x3C6D JUMP JUMPDEST PUSH2 0x133C JUMP JUMPDEST STOP JUMPDEST PUSH2 0x44C PUSH1 0x4 DUP1 CALLDATASIZE SUB DUP2 ADD SWAP1 PUSH2 0x447 SWAP2 SWAP1 PUSH2 0x3F2D JUMP JUMPDEST PUSH2 0x135C JUMP JUMPDEST STOP JUMPDEST PUSH2 0x468 PUSH1 0x4 DUP1 CALLDATASIZE SUB DUP2 ADD SWAP1 PUSH2 0x463 SWAP2 SWAP1 PUSH2 0x3C08 JUMP JUMPDEST PUSH2 0x1535 JUMP JUMPDEST STOP JUMPDEST PUSH2 0x484 PUSH1 0x4 DUP1 CALLDATASIZE SUB DUP2 ADD SWAP1 PUSH2 0x47F SWAP2 SWAP1 PUSH2 0x3E66 JUMP JUMPDEST PUSH2 0x1643 JUMP JUMPDEST PUSH1 0x40 MLOAD PUSH2 0x491 SWAP2 SWAP1 PUSH2 0x495B JUMP JUMPDEST PUSH1 0x40 MLOAD DUP1 SWAP2 SUB SWAP1 RETURN JUMPDEST PUSH2 0x4A2 PUSH2 0x1710 JUMP JUMPDEST PUSH1 0x40 MLOAD PUSH2 0x4AF SWAP2 SWAP1 PUSH2 0x495B JUMP JUMPDEST PUSH1 0x40 MLOAD DUP1 SWAP2 SUB SWAP1 RETURN JUMPDEST PUSH2 0x4C0 PUSH2 0x1716 JUMP JUMPDEST PUSH1 0x40 MLOAD PUSH2 0x4CD SWAP2 SWAP1 PUSH2 0x45DE JUMP JUMPDEST PUSH1 0x40 MLOAD DUP1 SWAP2 SUB SWAP1 RETURN JUMPDEST PUSH2 0x4F0 PUSH1 0x4 DUP1 CALLDATASIZE SUB DUP2 ADD SWAP1 PUSH2 0x4EB SWAP2 SWAP1 PUSH2 0x3E01 JUMP JUMPDEST PUSH2 0x1729 JUMP JUMPDEST PUSH1 0x40 MLOAD PUSH2 0x4FD SWAP2 SWAP1 PUSH2 0x4555 JUMP JUMPDEST PUSH1 0x40 MLOAD DUP1 SWAP2 SUB SWAP1 RETURN JUMPDEST PUSH2 0x520 PUSH1 0x4 DUP1 CALLDATASIZE SUB DUP2 ADD SWAP1 PUSH2 0x51B SWAP2 SWAP1 PUSH2 0x3C08 JUMP JUMPDEST PUSH2 0x17DB JUMP JUMPDEST PUSH1 0x40 MLOAD PUSH2 0x52D SWAP2 SWAP1 PUSH2 0x495B JUMP JUMPDEST PUSH1 0x40 MLOAD DUP1 SWAP2 SUB SWAP1 RETURN JUMPDEST PUSH2 0x550 PUSH1 0x4 DUP1 CALLDATASIZE SUB DUP2 ADD SWAP1 PUSH2 0x54B SWAP2 SWAP1 PUSH2 0x3E2A JUMP JUMPDEST PUSH2 0x1893 JUMP JUMPDEST PUSH1 0x40 MLOAD PUSH2 0x55D SWAP2 SWAP1 PUSH2 0x495B JUMP JUMPDEST PUSH1 0x40 MLOAD DUP1 SWAP2 SUB SWAP1 RETURN JUMPDEST PUSH2 0x580 PUSH1 0x4 DUP1 CALLDATASIZE SUB DUP2 ADD SWAP1 PUSH2 0x57B SWAP2 SWAP1 PUSH2 0x3E2A JUMP JUMPDEST PUSH2 0x195B JUMP JUMPDEST PUSH1 0x40 MLOAD PUSH2 0x58D SWAP2 SWAP1 PUSH2 0x495B JUMP JUMPDEST PUSH1 0x40 MLOAD DUP1 SWAP2 SUB SWAP1 RETURN JUMPDEST PUSH2 0x5B0 PUSH1 0x4 DUP1 CALLDATASIZE SUB DUP2 ADD SWAP1 PUSH2 0x5AB SWAP2 SWAP1 PUSH2 0x3E01 JUMP JUMPDEST PUSH2 0x1B26 JUMP JUMPDEST PUSH1 0x40 MLOAD PUSH2 0x5BF SWAP4 SWAP3 SWAP2 SWAP1 PUSH2 0x499F JUMP JUMPDEST PUSH1 0x40 MLOAD DUP1 SWAP2 SUB SWAP1 RETURN JUMPDEST PUSH2 0x5D0 PUSH2 0x1BBC JUMP JUMPDEST STOP JUMPDEST PUSH2 0x5EC PUSH1 0x4 DUP1 CALLDATASIZE SUB DUP2 ADD SWAP1 PUSH2 0x5E7 SWAP2 SWAP1 PUSH2 0x3E01 JUMP JUMPDEST PUSH2 0x1E05 JUMP JUMPDEST PUSH1 0x40 MLOAD PUSH2 0x5F9 SWAP2 SWAP1 PUSH2 0x495B JUMP JUMPDEST PUSH1 0x40 MLOAD DUP1 SWAP2 SUB SWAP1 RETURN JUMPDEST PUSH2 0x60A PUSH2 0x1E1D JUMP JUMPDEST STOP JUMPDEST PUSH2 0x626 PUSH1 0x4 DUP1 CALLDATASIZE SUB DUP2 ADD SWAP1 PUSH2 0x621 SWAP2 SWAP1 PUSH2 0x3C08 JUMP JUMPDEST PUSH2 0x1F94 JUMP JUMPDEST STOP JUMPDEST PUSH2 0x630 PUSH2 0x2118 JUMP JUMPDEST PUSH1 0x40 MLOAD PUSH2 0x63D SWAP2 SWAP1 PUSH2 0x495B JUMP JUMPDEST PUSH1 0x40 MLOAD DUP1 SWAP2 SUB SWAP1 RETURN JUMPDEST PUSH2 0x64E PUSH2 0x211E JUMP JUMPDEST PUSH1 0x40 MLOAD PUSH2 0x65B SWAP2 SWAP1 PUSH2 0x45F9 JUMP JUMPDEST PUSH1 0x40 MLOAD DUP1 SWAP2 SUB SWAP1 RETURN JUMPDEST PUSH2 0x66C PUSH2 0x21B0 JUMP JUMPDEST PUSH1 0x40 MLOAD PUSH2 0x679 SWAP2 SWAP1 PUSH2 0x4555 JUMP JUMPDEST PUSH1 0x40 MLOAD DUP1 SWAP2 SUB SWAP1 RETURN JUMPDEST PUSH2 0x69C PUSH1 0x4 DUP1 CALLDATASIZE SUB DUP2 ADD SWAP1 PUSH2 0x697 SWAP2 SWAP1 PUSH2 0x3D37 JUMP JUMPDEST PUSH2 0x21D6 JUMP JUMPDEST STOP JUMPDEST PUSH2 0x6B8 PUSH1 0x4 DUP1 CALLDATASIZE SUB DUP2 ADD SWAP1 PUSH2 0x6B3 SWAP2 SWAP1 PUSH2 0x3D37 JUMP JUMPDEST PUSH2 0x231B JUMP JUMPDEST STOP JUMPDEST PUSH2 0x6C2 PUSH2 0x249C JUMP JUMPDEST PUSH1 0x40 MLOAD PUSH2 0x6CF SWAP2 SWAP1 PUSH2 0x495B JUMP JUMPDEST PUSH1 0x40 MLOAD DUP1 SWAP2 SUB SWAP1 RETURN JUMPDEST PUSH2 0x6E0 PUSH2 0x24A2 JUMP JUMPDEST PUSH1 0x40 MLOAD PUSH2 0x6ED SWAP2 SWAP1 PUSH2 0x4555 JUMP JUMPDEST PUSH1 0x40 MLOAD DUP1 SWAP2 SUB SWAP1 RETURN JUMPDEST PUSH2 0x6FE PUSH2 0x24C8 JUMP JUMPDEST PUSH1 0x40 MLOAD PUSH2 0x70B SWAP2 SWAP1 PUSH2 0x495B JUMP JUMPDEST PUSH1 0x40 MLOAD DUP1 SWAP2 SUB SWAP1 RETURN JUMPDEST PUSH2 0x72E PUSH1 0x4 DUP1 CALLDATASIZE SUB DUP2 ADD SWAP1 PUSH2 0x729 SWAP2 SWAP1 PUSH2 0x3CBC JUMP JUMPDEST PUSH2 0x24CE JUMP JUMPDEST STOP JUMPDEST PUSH2 0x74A PUSH1 0x4 DUP1 CALLDATASIZE SUB DUP2 ADD SWAP1 PUSH2 0x745 SWAP2 SWAP1 PUSH2 0x3C08 JUMP JUMPDEST PUSH2 0x2530 JUMP JUMPDEST PUSH1 0x40 MLOAD PUSH2 0x757 SWAP2 SWAP1 PUSH2 0x45DE JUMP JUMPDEST PUSH1 0x40 MLOAD DUP1 SWAP2 SUB SWAP1 RETURN JUMPDEST PUSH2 0x77A PUSH1 0x4 DUP1 CALLDATASIZE SUB DUP2 ADD SWAP1 PUSH2 0x775 SWAP2 SWAP1 PUSH2 0x3E01 JUMP JUMPDEST PUSH2 0x2550 JUMP JUMPDEST PUSH1 0x40 MLOAD PUSH2 0x787 SWAP2 SWAP1 PUSH2 0x45F9 JUMP JUMPDEST PUSH1 0x40 MLOAD DUP1 SWAP2 SUB SWAP1 RETURN JUMPDEST PUSH2 0x7AA PUSH1 0x4 DUP1 CALLDATASIZE SUB DUP2 ADD SWAP1 PUSH2 0x7A5 SWAP2 SWAP1 PUSH2 0x3C08 JUMP JUMPDEST PUSH2 0x25F7 JUMP JUMPDEST PUSH1 0x40 MLOAD PUSH2 0x7B7 SWAP2 SWAP1 PUSH2 0x45BC JUMP JUMPDEST PUSH1 0x40 MLOAD DUP1 SWAP2 SUB SWAP1 RETURN JUMPDEST PUSH2 0x7DA PUSH1 0x4 DUP1 CALLDATASIZE SUB DUP2 ADD SWAP1 PUSH2 0x7D5 SWAP2 SWAP1 PUSH2 0x3EF1 JUMP JUMPDEST PUSH2 0x268E JUMP JUMPDEST STOP JUMPDEST PUSH2 0x7F6 PUSH1 0x4 DUP1 CALLDATASIZE SUB DUP2 ADD SWAP1 PUSH2 0x7F1 SWAP2 SWAP1 PUSH2 0x3C31 JUMP JUMPDEST PUSH2 0x2808 JUMP JUMPDEST PUSH1 0x40 MLOAD PUSH2 0x803 SWAP2 SWAP1 PUSH2 0x45DE JUMP JUMPDEST PUSH1 0x40 MLOAD DUP1 SWAP2 SUB SWAP1 RETURN JUMPDEST PUSH1 0x0 PUSH32 0x80AC58CD00000000000000000000000000000000000000000000000000000000 PUSH28 0xFFFFFFFFFFFFFFFFFFFFFFFFFFFFFFFFFFFFFFFFFFFFFFFFFFFFFFFF NOT AND DUP3 PUSH28 0xFFFFFFFFFFFFFFFFFFFFFFFFFFFFFFFFFFFFFFFFFFFFFFFFFFFFFFFF NOT AND EQ DUP1 PUSH2 0x8D7 JUMPI POP PUSH32 0x5B5E139F00000000000000000000000000000000000000000000000000000000 PUSH28 0xFFFFFFFFFFFFFFFFFFFFFFFFFFFFFFFFFFFFFFFFFFFFFFFFFFFFFFFF NOT AND DUP3 PUSH28 0xFFFFFFFFFFFFFFFFFFFFFFFFFFFFFFFFFFFFFFFFFFFFFFFFFFFFFFFF NOT AND EQ JUMPDEST DUP1 PUSH2 0x8E7 JUMPI POP PUSH2 0x8E6 DUP3 PUSH2 0x289C JUMP JUMPDEST JUMPDEST SWAP1 POP SWAP2 SWAP1 POP JUMP JUMPDEST PUSH1 0x98 PUSH1 0x0 SWAP1 SLOAD SWAP1 PUSH2 0x100 EXP SWAP1 DIV PUSH20 0xFFFFFFFFFFFFFFFFFFFFFFFFFFFFFFFFFFFFFFFF AND DUP2 JUMP JUMPDEST PUSH1 0xA4 SLOAD DUP2 JUMP JUMPDEST PUSH1 0x60 PUSH1 0x65 DUP1 SLOAD PUSH2 0x929 SWAP1 PUSH2 0x4C73 JUMP JUMPDEST DUP1 PUSH1 0x1F ADD PUSH1 0x20 DUP1 SWAP2 DIV MUL PUSH1 0x20 ADD PUSH1 0x40 MLOAD SWAP1 DUP2 ADD PUSH1 0x40 MSTORE DUP1 SWAP3 SWAP2 SWAP1 DUP2 DUP2 MSTORE PUSH1 0x20 ADD DUP3 DUP1 SLOAD PUSH2 0x955 SWAP1 PUSH2 0x4C73 JUMP JUMPDEST DUP1 ISZERO PUSH2 0x9A2 JUMPI DUP1 PUSH1 0x1F LT PUSH2 0x977 JUMPI PUSH2 0x100 DUP1 DUP4 SLOAD DIV MUL DUP4 MSTORE SWAP2 PUSH1 0x20 ADD SWAP2 PUSH2 0x9A2 JUMP JUMPDEST DUP3 ADD SWAP2 SWAP1 PUSH1 0x0 MSTORE PUSH1 0x20 PUSH1 0x0 KECCAK256 SWAP1 JUMPDEST DUP2 SLOAD DUP2 MSTORE SWAP1 PUSH1 0x1 ADD SWAP1 PUSH1 0x20 ADD DUP1 DUP4 GT PUSH2 0x985 JUMPI DUP3 SWAP1 SUB PUSH1 0x1F AND DUP3 ADD SWAP2 JUMPDEST POP POP POP POP POP SWAP1 POP SWAP1 JUMP JUMPDEST PUSH1 0x0 PUSH2 0x9B7 DUP3 PUSH2 0x2906 JUMP JUMPDEST PUSH2 0x9F6 JUMPI PUSH1 0x40 MLOAD PUSH32 0x8C379A000000000000000000000000000000000000000000000000000000000 DUP2 MSTORE PUSH1 0x4 ADD PUSH2 0x9ED SWAP1 PUSH2 0x489B JUMP JUMPDEST PUSH1 0x40 MLOAD DUP1 SWAP2 SUB SWAP1 REVERT JUMPDEST PUSH1 0x69 PUSH1 0x0 DUP4 DUP2 MSTORE PUSH1 0x20 ADD SWAP1 DUP2 MSTORE PUSH1 0x20 ADD PUSH1 0x0 KECCAK256 PUSH1 0x0 SWAP1 SLOAD SWAP1 PUSH2 0x100 EXP SWAP1 DIV PUSH20 0xFFFFFFFFFFFFFFFFFFFFFFFFFFFFFFFFFFFFFFFF AND SWAP1 POP SWAP2 SWAP1 POP JUMP JUMPDEST PUSH1 0x0 PUSH2 0xA3C DUP3 PUSH2 0x1729 JUMP JUMPDEST SWAP1 POP DUP1 PUSH20 0xFFFFFFFFFFFFFFFFFFFFFFFFFFFFFFFFFFFFFFFF AND DUP4 PUSH20 0xFFFFFFFFFFFFFFFFFFFFFFFFFFFFFFFFFFFFFFFF AND EQ ISZERO PUSH2 0xAAD JUMPI PUSH1 0x40 MLOAD PUSH32 0x8C379A000000000000000000000000000000000000000000000000000000000 DUP2 MSTORE PUSH1 0x4 ADD PUSH2 0xAA4 SWAP1 PUSH2 0x491B JUMP JUMPDEST PUSH1 0x40 MLOAD DUP1 SWAP2 SUB SWAP1 REVERT JUMPDEST DUP1 PUSH20 0xFFFFFFFFFFFFFFFFFFFFFFFFFFFFFFFFFFFFFFFF AND PUSH2 0xACC PUSH2 0x2972 JUMP JUMPDEST PUSH20 0xFFFFFFFFFFFFFFFFFFFFFFFFFFFFFFFFFFFFFFFF AND EQ DUP1 PUSH2 0xAFB JUMPI POP PUSH2 0xAFA DUP2 PUSH2 0xAF5 PUSH2 0x2972 JUMP JUMPDEST PUSH2 0x2808 JUMP JUMPDEST JUMPDEST PUSH2 0xB3A JUMPI PUSH1 0x40 MLOAD PUSH32 0x8C379A000000000000000000000000000000000000000000000000000000000 DUP2 MSTORE PUSH1 0x4 ADD PUSH2 0xB31 SWAP1 PUSH2 0x47BB JUMP JUMPDEST PUSH1 0x40 MLOAD DUP1 SWAP2 SUB SWAP1 REVERT JUMPDEST PUSH2 0xB44 DUP4 DUP4 PUSH2 0x297A JUMP JUMPDEST POP POP POP JUMP JUMPDEST PUSH1 0x97 PUSH1 0x0 SWAP1 SLOAD SWAP1 PUSH2 0x100 EXP SWAP1 DIV PUSH20 0xFFFFFFFFFFFFFFFFFFFFFFFFFFFFFFFFFFFFFFFF AND DUP2 JUMP JUMPDEST PUSH1 0x0 PUSH1 0x9F DUP1 SLOAD SWAP1 POP SWAP1 POP SWAP1 JUMP JUMPDEST PUSH1 0x99 PUSH1 0x0 SWAP1 SLOAD SWAP1 PUSH2 0x100 EXP SWAP1 DIV PUSH20 0xFFFFFFFFFFFFFFFFFFFFFFFFFFFFFFFFFFFFFFFF AND PUSH20 0xFFFFFFFFFFFFFFFFFFFFFFFFFFFFFFFFFFFFFFFF AND CALLER PUSH20 0xFFFFFFFFFFFFFFFFFFFFFFFFFFFFFFFFFFFFFFFF AND EQ DUP1 PUSH2 0xC25 JUMPI POP PUSH1 0x97 PUSH1 0x0 SWAP1 SLOAD SWAP1 PUSH2 0x100 EXP SWAP1 DIV PUSH20 0xFFFFFFFFFFFFFFFFFFFFFFFFFFFFFFFFFFFFFFFF AND PUSH20 0xFFFFFFFFFFFFFFFFFFFFFFFFFFFFFFFFFFFFFFFF AND CALLER PUSH20 0xFFFFFFFFFFFFFFFFFFFFFFFFFFFFFFFFFFFFFFFF AND EQ JUMPDEST DUP1 PUSH2 0xC7D JUMPI POP PUSH1 0x98 PUSH1 0x0 SWAP1 SLOAD SWAP1 PUSH2 0x100 EXP SWAP1 DIV PUSH20 0xFFFFFFFFFFFFFFFFFFFFFFFFFFFFFFFFFFFFFFFF AND PUSH20 0xFFFFFFFFFFFFFFFFFFFFFFFFFFFFFFFFFFFFFFFF AND CALLER PUSH20 0xFFFFFFFFFFFFFFFFFFFFFFFFFFFFFFFFFFFFFFFF AND EQ JUMPDEST PUSH2 0xCBC JUMPI PUSH1 0x40 MLOAD PUSH32 0x8C379A000000000000000000000000000000000000000000000000000000000 DUP2 MSTORE PUSH1 0x4 ADD PUSH2 0xCB3 SWAP1 PUSH2 0x46BB JUMP JUMPDEST PUSH1 0x40 MLOAD DUP1 SWAP2 SUB SWAP1 REVERT JUMPDEST PUSH2 0xCC5 DUP3 PUSH2 0x2A33 JUMP JUMPDEST DUP1 ISZERO PUSH2 0xD2F JUMPI PUSH1 0x9F DUP3 DUP2 SLOAD DUP2 LT PUSH2 0xD05 JUMPI PUSH32 0x4E487B7100000000000000000000000000000000000000000000000000000000 PUSH1 0x0 MSTORE PUSH1 0x32 PUSH1 0x4 MSTORE PUSH1 0x24 PUSH1 0x0 REVERT JUMPDEST SWAP1 PUSH1 0x0 MSTORE PUSH1 0x20 PUSH1 0x0 KECCAK256 SWAP1 PUSH1 0x3 MUL ADD PUSH1 0x0 DUP1 DUP3 ADD PUSH1 0x0 SWAP1 SSTORE PUSH1 0x1 DUP3 ADD PUSH1 0x0 SWAP1 SSTORE PUSH1 0x2 DUP3 ADD PUSH1 0x0 SWAP1 SSTORE POP POP JUMPDEST DUP2 PUSH32 0xDFF72B5A2BC5592EDF15F7C8955834664C7D7395A7569EAB0038E6A9886E07C9 PUSH1 0x40 MLOAD PUSH1 0x40 MLOAD DUP1 SWAP2 SUB SWAP1 LOG2 POP POP JUMP JUMPDEST DUP1 CALLER PUSH20 0xFFFFFFFFFFFFFFFFFFFFFFFFFFFFFFFFFFFFFFFF AND PUSH2 0xD81 DUP3 PUSH2 0x1729 JUMP JUMPDEST PUSH20 0xFFFFFFFFFFFFFFFFFFFFFFFFFFFFFFFFFFFFFFFF AND EQ PUSH2 0xDD7 JUMPI PUSH1 0x40 MLOAD PUSH32 0x8C379A000000000000000000000000000000000000000000000000000000000 DUP2 MSTORE PUSH1 0x4 ADD PUSH2 0xDCE SWAP1 PUSH2 0x467B JUMP JUMPDEST PUSH1 0x40 MLOAD DUP1 SWAP2 SUB SWAP1 REVERT JUMPDEST DUP2 PUSH1 0x0 PUSH2 0x3E8 PUSH1 0x9F DUP4 DUP2 SLOAD DUP2 LT PUSH2 0xE17 JUMPI PUSH32 0x4E487B7100000000000000000000000000000000000000000000000000000000 PUSH1 0x0 MSTORE PUSH1 0x32 PUSH1 0x4 MSTORE PUSH1 0x24 PUSH1 0x0 REVERT JUMPDEST SWAP1 PUSH1 0x0 MSTORE PUSH1 0x20 PUSH1 0x0 KECCAK256 SWAP1 PUSH1 0x3 MUL ADD PUSH1 0x0 ADD SLOAD PUSH2 0xE33 SWAP2 SWAP1 PUSH2 0x4AFE JUMP JUMPDEST EQ PUSH2 0xE73 JUMPI PUSH1 0x40 MLOAD PUSH32 0x8C379A000000000000000000000000000000000000000000000000000000000 DUP2 MSTORE PUSH1 0x4 ADD PUSH2 0xE6A SWAP1 PUSH2 0x471B JUMP JUMPDEST PUSH1 0x40 MLOAD DUP1 SWAP2 SUB SWAP1 REVERT JUMPDEST DUP3 PUSH1 0x9F DUP2 DUP2 SLOAD DUP2 LT PUSH2 0xEAE JUMPI PUSH32 0x4E487B7100000000000000000000000000000000000000000000000000000000 PUSH1 0x0 MSTORE PUSH1 0x32 PUSH1 0x4 MSTORE PUSH1 0x24 PUSH1 0x0 REVERT JUMPDEST SWAP1 PUSH1 0x0 MSTORE PUSH1 0x20 PUSH1 0x0 KECCAK256 SWAP1 PUSH1 0x3 MUL ADD PUSH1 0x2 ADD SLOAD TIMESTAMP LT ISZERO PUSH2 0xF02 JUMPI PUSH1 0x40 MLOAD PUSH32 0x8C379A000000000000000000000000000000000000000000000000000000000 DUP2 MSTORE PUSH1 0x4 ADD PUSH2 0xEF9 SWAP1 PUSH2 0x483B JUMP JUMPDEST PUSH1 0x40 MLOAD DUP1 SWAP2 SUB SWAP1 REVERT JUMPDEST PUSH2 0xF0B CALLER PUSH2 0x2B44 JUMP JUMPDEST ISZERO PUSH2 0xF4B JUMPI PUSH1 0x40 MLOAD PUSH32 0x8C379A000000000000000000000000000000000000000000000000000000000 DUP2 MSTORE PUSH1 0x4 ADD PUSH2 0xF42 SWAP1 PUSH2 0x479B JUMP JUMPDEST PUSH1 0x40 MLOAD DUP1 SWAP2 SUB SWAP1 REVERT JUMPDEST PUSH1 0x0 PUSH2 0xFA1 PUSH1 0x9F DUP7 DUP2 SLOAD DUP2 LT PUSH2 0xF8A JUMPI PUSH32 0x4E487B7100000000000000000000000000000000000000000000000000000000 PUSH1 0x0 MSTORE PUSH1 0x32 PUSH1 0x4 MSTORE PUSH1 0x24 PUSH1 0x0 REVERT JUMPDEST SWAP1 PUSH1 0x0 MSTORE PUSH1 0x20 PUSH1 0x0 KECCAK256 SWAP1 PUSH1 0x3 MUL ADD PUSH1 0x0 ADD SLOAD PUSH2 0x2B57 JUMP JUMPDEST SWAP1 POP DUP1 PUSH1 0x9F DUP7 DUP2 SLOAD DUP2 LT PUSH2 0xFDE JUMPI PUSH32 0x4E487B7100000000000000000000000000000000000000000000000000000000 PUSH1 0x0 MSTORE PUSH1 0x32 PUSH1 0x4 MSTORE PUSH1 0x24 PUSH1 0x0 REVERT JUMPDEST SWAP1 PUSH1 0x0 MSTORE PUSH1 0x20 PUSH1 0x0 KECCAK256 SWAP1 PUSH1 0x3 MUL ADD PUSH1 0x0 ADD DUP2 SWAP1 SSTORE POP POP POP POP POP POP JUMP JUMPDEST PUSH2 0x100B PUSH2 0x1005 PUSH2 0x2972 JUMP JUMPDEST DUP3 PUSH2 0x2D0B JUMP JUMPDEST PUSH2 0x104A JUMPI PUSH1 0x40 MLOAD PUSH32 0x8C379A000000000000000000000000000000000000000000000000000000000 DUP2 MSTORE PUSH1 0x4 ADD PUSH2 0x1041 SWAP1 PUSH2 0x493B JUMP JUMPDEST PUSH1 0x40 MLOAD DUP1 SWAP2 SUB SWAP1 REVERT JUMPDEST PUSH2 0x1055 DUP4 DUP4 DUP4 PUSH2 0x2DE9 JUMP JUMPDEST POP POP POP JUMP JUMPDEST PUSH1 0x97 PUSH1 0x0 SWAP1 SLOAD SWAP1 PUSH2 0x100 EXP SWAP1 DIV PUSH20 0xFFFFFFFFFFFFFFFFFFFFFFFFFFFFFFFFFFFFFFFF AND PUSH20 0xFFFFFFFFFFFFFFFFFFFFFFFFFFFFFFFFFFFFFFFF AND CALLER PUSH20 0xFFFFFFFFFFFFFFFFFFFFFFFFFFFFFFFFFFFFFFFF AND EQ PUSH2 0x10EA JUMPI PUSH1 0x40 MLOAD PUSH32 0x8C379A000000000000000000000000000000000000000000000000000000000 DUP2 MSTORE PUSH1 0x4 ADD PUSH2 0x10E1 SWAP1 PUSH2 0x485B JUMP JUMPDEST PUSH1 0x40 MLOAD DUP1 SWAP2 SUB SWAP1 REVERT JUMPDEST PUSH1 0x0 PUSH20 0xFFFFFFFFFFFFFFFFFFFFFFFFFFFFFFFFFFFFFFFF AND DUP2 PUSH20 0xFFFFFFFFFFFFFFFFFFFFFFFFFFFFFFFFFFFFFFFF AND EQ ISZERO PUSH2 0x1124 JUMPI PUSH1 0x0 DUP1 REVERT JUMPDEST DUP1 PUSH1 0x97 PUSH1 0x0 PUSH2 0x100 EXP DUP2 SLOAD DUP2 PUSH20 0xFFFFFFFFFFFFFFFFFFFFFFFFFFFFFFFFFFFFFFFF MUL NOT AND SWAP1 DUP4 PUSH20 0xFFFFFFFFFFFFFFFFFFFFFFFFFFFFFFFFFFFFFFFF AND MUL OR SWAP1 SSTORE POP POP JUMP JUMPDEST PUSH1 0x97 PUSH1 0x0 SWAP1 SLOAD SWAP1 PUSH2 0x100 EXP SWAP1 DIV PUSH20 0xFFFFFFFFFFFFFFFFFFFFFFFFFFFFFFFFFFFFFFFF AND PUSH20 0xFFFFFFFFFFFFFFFFFFFFFFFFFFFFFFFFFFFFFFFF AND CALLER PUSH20 0xFFFFFFFFFFFFFFFFFFFFFFFFFFFFFFFFFFFFFFFF AND EQ PUSH2 0x11F8 JUMPI PUSH1 0x40 MLOAD PUSH32 0x8C379A000000000000000000000000000000000000000000000000000000000 DUP2 MSTORE PUSH1 0x4 ADD PUSH2 0x11EF SWAP1 PUSH2 0x485B JUMP JUMPDEST PUSH1 0x40 MLOAD DUP1 SWAP2 SUB SWAP1 REVERT JUMPDEST PUSH1 0x0 PUSH20 0xFFFFFFFFFFFFFFFFFFFFFFFFFFFFFFFFFFFFFFFF AND DUP2 PUSH20 0xFFFFFFFFFFFFFFFFFFFFFFFFFFFFFFFFFFFFFFFF AND EQ ISZERO PUSH2 0x1232 JUMPI PUSH1 0x0 DUP1 REVERT JUMPDEST DUP1 PUSH1 0x99 PUSH1 0x0 PUSH2 0x100 EXP DUP2 SLOAD DUP2 PUSH20 0xFFFFFFFFFFFFFFFFFFFFFFFFFFFFFFFFFFFFFFFF MUL NOT AND SWAP1 DUP4 PUSH20 0xFFFFFFFFFFFFFFFFFFFFFFFFFFFFFFFFFFFFFFFF AND MUL OR SWAP1 SSTORE POP POP JUMP JUMPDEST PUSH1 0x97 PUSH1 0x0 SWAP1 SLOAD SWAP1 PUSH2 0x100 EXP SWAP1 DIV PUSH20 0xFFFFFFFFFFFFFFFFFFFFFFFFFFFFFFFFFFFFFFFF AND PUSH20 0xFFFFFFFFFFFFFFFFFFFFFFFFFFFFFFFFFFFFFFFF AND CALLER PUSH20 0xFFFFFFFFFFFFFFFFFFFFFFFFFFFFFFFFFFFFFFFF AND EQ PUSH2 0x1306 JUMPI PUSH1 0x40 MLOAD PUSH32 0x8C379A000000000000000000000000000000000000000000000000000000000 DUP2 MSTORE PUSH1 0x4 ADD PUSH2 0x12FD SWAP1 PUSH2 0x485B JUMP JUMPDEST PUSH1 0x40 MLOAD DUP1 SWAP2 SUB SWAP1 REVERT JUMPDEST PUSH1 0x9C PUSH1 0x0 SWAP1 SLOAD SWAP1 PUSH2 0x100 EXP SWAP1 DIV PUSH1 0xFF AND PUSH2 0x131F JUMPI PUSH1 0x0 DUP1 REVERT JUMPDEST PUSH1 0x0 PUSH1 0x9C PUSH1 0x0 PUSH2 0x100 EXP DUP2 SLOAD DUP2 PUSH1 0xFF MUL NOT AND SWAP1 DUP4 ISZERO ISZERO MUL OR SWAP1 SSTORE POP JUMP JUMPDEST PUSH2 0x1357 DUP4 DUP4 DUP4 PUSH1 0x40 MLOAD DUP1 PUSH1 0x20 ADD PUSH1 0x40 MSTORE DUP1 PUSH1 0x0 DUP2 MSTORE POP PUSH2 0x24CE JUMP JUMPDEST POP POP POP JUMP JUMPDEST PUSH1 0x99 PUSH1 0x0 SWAP1 SLOAD SWAP1 PUSH2 0x100 EXP SWAP1 DIV PUSH20 0xFFFFFFFFFFFFFFFFFFFFFFFFFFFFFFFFFFFFFFFF AND PUSH20 0xFFFFFFFFFFFFFFFFFFFFFFFFFFFFFFFFFFFFFFFF AND CALLER PUSH20 0xFFFFFFFFFFFFFFFFFFFFFFFFFFFFFFFFFFFFFFFF AND EQ DUP1 PUSH2 0x1405 JUMPI POP PUSH1 0x97 PUSH1 0x0 SWAP1 SLOAD SWAP1 PUSH2 0x100 EXP SWAP1 DIV PUSH20 0xFFFFFFFFFFFFFFFFFFFFFFFFFFFFFFFFFFFFFFFF AND PUSH20 0xFFFFFFFFFFFFFFFFFFFFFFFFFFFFFFFFFFFFFFFF AND CALLER PUSH20 0xFFFFFFFFFFFFFFFFFFFFFFFFFFFFFFFFFFFFFFFF AND EQ JUMPDEST DUP1 PUSH2 0x145D JUMPI POP PUSH1 0x98 PUSH1 0x0 SWAP1 SLOAD SWAP1 PUSH2 0x100 EXP SWAP1 DIV PUSH20 0xFFFFFFFFFFFFFFFFFFFFFFFFFFFFFFFFFFFFFFFF AND PUSH20 0xFFFFFFFFFFFFFFFFFFFFFFFFFFFFFFFFFFFFFFFF AND CALLER PUSH20 0xFFFFFFFFFFFFFFFFFFFFFFFFFFFFFFFFFFFFFFFF AND EQ JUMPDEST PUSH2 0x149C JUMPI PUSH1 0x40 MLOAD PUSH32 0x8C379A000000000000000000000000000000000000000000000000000000000 DUP2 MSTORE PUSH1 0x4 ADD PUSH2 0x1493 SWAP1 PUSH2 0x46BB JUMP JUMPDEST PUSH1 0x40 MLOAD DUP1 SWAP2 SUB SWAP1 REVERT JUMPDEST PUSH1 0x64 DUP2 DUP4 DUP6 DUP8 DUP10 PUSH2 0x14AD SWAP2 SWAP1 PUSH2 0x4AA8 JUMP JUMPDEST PUSH2 0x14B7 SWAP2 SWAP1 PUSH2 0x4AA8 JUMP JUMPDEST PUSH2 0x14C1 SWAP2 SWAP1 PUSH2 0x4AA8 JUMP JUMPDEST PUSH2 0x14CB SWAP2 SWAP1 PUSH2 0x4AA8 JUMP JUMPDEST EQ PUSH2 0x150B JUMPI PUSH1 0x40 MLOAD PUSH32 0x8C379A000000000000000000000000000000000000000000000000000000000 DUP2 MSTORE PUSH1 0x4 ADD PUSH2 0x1502 SWAP1 PUSH2 0x461B JUMP JUMPDEST PUSH1 0x40 MLOAD DUP1 SWAP2 SUB SWAP1 REVERT JUMPDEST DUP5 PUSH1 0xA1 DUP2 SWAP1 SSTORE POP DUP4 PUSH1 0xA2 DUP2 SWAP1 SSTORE POP DUP3 PUSH1 0xA3 DUP2 SWAP1 SSTORE POP DUP2 PUSH1 0xA4 DUP2 SWAP1 SSTORE POP DUP1 PUSH1 0xA5 DUP2 SWAP1 SSTORE POP POP POP POP POP POP JUMP JUMPDEST PUSH1 0x97 PUSH1 0x0 SWAP1 SLOAD SWAP1 PUSH2 0x100 EXP SWAP1 DIV PUSH20 0xFFFFFFFFFFFFFFFFFFFFFFFFFFFFFFFFFFFFFFFF AND PUSH20 0xFFFFFFFFFFFFFFFFFFFFFFFFFFFFFFFFFFFFFFFF AND CALLER PUSH20 0xFFFFFFFFFFFFFFFFFFFFFFFFFFFFFFFFFFFFFFFF AND EQ PUSH2 0x15C5 JUMPI PUSH1 0x40 MLOAD PUSH32 0x8C379A000000000000000000000000000000000000000000000000000000000 DUP2 MSTORE PUSH1 0x4 ADD PUSH2 0x15BC SWAP1 PUSH2 0x485B JUMP JUMPDEST PUSH1 0x40 MLOAD DUP1 SWAP2 SUB SWAP1 REVERT JUMPDEST PUSH1 0x0 PUSH20 0xFFFFFFFFFFFFFFFFFFFFFFFFFFFFFFFFFFFFFFFF AND DUP2 PUSH20 0xFFFFFFFFFFFFFFFFFFFFFFFFFFFFFFFFFFFFFFFF AND EQ ISZERO PUSH2 0x15FF JUMPI PUSH1 0x0 DUP1 REVERT JUMPDEST DUP1 PUSH1 0x98 PUSH1 0x0 PUSH2 0x100 EXP DUP2 SLOAD DUP2 PUSH20 0xFFFFFFFFFFFFFFFFFFFFFFFFFFFFFFFFFFFFFFFF MUL NOT AND SWAP1 DUP4 PUSH20 0xFFFFFFFFFFFFFFFFFFFFFFFFFFFFFFFFFFFFFFFF AND MUL OR SWAP1 SSTORE POP POP JUMP JUMPDEST PUSH1 0x0 PUSH1 0x9B PUSH1 0x0 CALLER PUSH20 0xFFFFFFFFFFFFFFFFFFFFFFFFFFFFFFFFFFFFFFFF AND PUSH20 0xFFFFFFFFFFFFFFFFFFFFFFFFFFFFFFFFFFFFFFFF AND DUP2 MSTORE PUSH1 0x20 ADD SWAP1 DUP2 MSTORE PUSH1 0x20 ADD PUSH1 0x0 KECCAK256 PUSH1 0x0 SWAP1 SLOAD SWAP1 PUSH2 0x100 EXP SWAP1 DIV PUSH1 0xFF AND PUSH2 0x169B JUMPI PUSH1 0x0 DUP1 REVERT JUMPDEST PUSH1 0x0 PUSH2 0x3E8 DUP6 PUSH2 0x16AB SWAP2 SWAP1 PUSH2 0x4AFE JUMP JUMPDEST EQ PUSH2 0x16EB JUMPI PUSH1 0x40 MLOAD PUSH32 0x8C379A000000000000000000000000000000000000000000000000000000000 DUP2 MSTORE PUSH1 0x4 ADD PUSH2 0x16E2 SWAP1 PUSH2 0x477B JUMP JUMPDEST PUSH1 0x40 MLOAD DUP1 SWAP2 SUB SWAP1 REVERT JUMPDEST PUSH1 0x0 PUSH2 0x1703 DUP6 DUP6 DUP6 TIMESTAMP PUSH2 0x16FE SWAP2 SWAP1 PUSH2 0x4AA8 JUMP JUMPDEST PUSH2 0x3045 JUMP JUMPDEST SWAP1 POP DUP1 SWAP2 POP POP SWAP4 SWAP3 POP POP POP JUMP JUMPDEST PUSH1 0xA1 SLOAD DUP2 JUMP JUMPDEST PUSH1 0x9C PUSH1 0x0 SWAP1 SLOAD SWAP1 PUSH2 0x100 EXP SWAP1 DIV PUSH1 0xFF AND DUP2 JUMP JUMPDEST PUSH1 0x0 DUP1 PUSH1 0x67 PUSH1 0x0 DUP5 DUP2 MSTORE PUSH1 0x20 ADD SWAP1 DUP2 MSTORE PUSH1 0x20 ADD PUSH1 0x0 KECCAK256 PUSH1 0x0 SWAP1 SLOAD SWAP1 PUSH2 0x100 EXP SWAP1 DIV PUSH20 0xFFFFFFFFFFFFFFFFFFFFFFFFFFFFFFFFFFFFFFFF AND SWAP1 POP PUSH1 0x0 PUSH20 0xFFFFFFFFFFFFFFFFFFFFFFFFFFFFFFFFFFFFFFFF AND DUP2 PUSH20 0xFFFFFFFFFFFFFFFFFFFFFFFFFFFFFFFFFFFFFFFF AND EQ ISZERO PUSH2 0x17D2 JUMPI PUSH1 0x40 MLOAD PUSH32 0x8C379A000000000000000000000000000000000000000000000000000000000 DUP2 MSTORE PUSH1 0x4 ADD PUSH2 0x17C9 SWAP1 PUSH2 0x47FB JUMP JUMPDEST PUSH1 0x40 MLOAD DUP1 SWAP2 SUB SWAP1 REVERT JUMPDEST DUP1 SWAP2 POP POP SWAP2 SWAP1 POP JUMP JUMPDEST PUSH1 0x0 DUP1 PUSH20 0xFFFFFFFFFFFFFFFFFFFFFFFFFFFFFFFFFFFFFFFF AND DUP3 PUSH20 0xFFFFFFFFFFFFFFFFFFFFFFFFFFFFFFFFFFFFFFFF AND EQ ISZERO PUSH2 0x184C JUMPI PUSH1 0x40 MLOAD PUSH32 0x8C379A000000000000000000000000000000000000000000000000000000000 DUP2 MSTORE PUSH1 0x4 ADD PUSH2 0x1843 SWAP1 PUSH2 0x47DB JUMP JUMPDEST PUSH1 0x40 MLOAD DUP1 SWAP2 SUB SWAP1 REVERT JUMPDEST PUSH1 0x68 PUSH1 0x0 DUP4 PUSH20 0xFFFFFFFFFFFFFFFFFFFFFFFFFFFFFFFFFFFFFFFF AND PUSH20 0xFFFFFFFFFFFFFFFFFFFFFFFFFFFFFFFFFFFFFFFF AND DUP2 MSTORE PUSH1 0x20 ADD SWAP1 DUP2 MSTORE PUSH1 0x20 ADD PUSH1 0x0 KECCAK256 SLOAD SWAP1 POP SWAP2 SWAP1 POP JUMP JUMPDEST PUSH1 0x0 PUSH2 0x189E CALLER PUSH2 0x2B44 JUMP JUMPDEST ISZERO PUSH2 0x18DE JUMPI PUSH1 0x40 MLOAD PUSH32 0x8C379A000000000000000000000000000000000000000000000000000000000 DUP2 MSTORE PUSH1 0x4 ADD PUSH2 0x18D5 SWAP1 PUSH2 0x479B JUMP JUMPDEST PUSH1 0x40 MLOAD DUP1 SWAP2 SUB SWAP1 REVERT JUMPDEST PUSH1 0x9B PUSH1 0x0 CALLER PUSH20 0xFFFFFFFFFFFFFFFFFFFFFFFFFFFFFFFFFFFFFFFF AND PUSH20 0xFFFFFFFFFFFFFFFFFFFFFFFFFFFFFFFFFFFFFFFF AND DUP2 MSTORE PUSH1 0x20 ADD SWAP1 DUP2 MSTORE PUSH1 0x20 ADD PUSH1 0x0 KECCAK256 PUSH1 0x0 SWAP1 SLOAD SWAP1 PUSH2 0x100 EXP SWAP1 DIV PUSH1 0xFF AND PUSH2 0x1934 JUMPI PUSH1 0x0 DUP1 REVERT JUMPDEST PUSH1 0x0 PUSH2 0x193F DUP5 PUSH2 0x2B57 JUMP JUMPDEST SWAP1 POP PUSH1 0x0 PUSH2 0x194E DUP3 DUP6 TIMESTAMP PUSH2 0x3045 JUMP JUMPDEST SWAP1 POP DUP1 SWAP3 POP POP POP SWAP3 SWAP2 POP POP JUMP JUMPDEST PUSH1 0x0 PUSH1 0x9B PUSH1 0x0 CALLER PUSH20 0xFFFFFFFFFFFFFFFFFFFFFFFFFFFFFFFFFFFFFFFF AND PUSH20 0xFFFFFFFFFFFFFFFFFFFFFFFFFFFFFFFFFFFFFFFF AND DUP2 MSTORE PUSH1 0x20 ADD SWAP1 DUP2 MSTORE PUSH1 0x20 ADD PUSH1 0x0 KECCAK256 PUSH1 0x0 SWAP1 SLOAD SWAP1 PUSH2 0x100 EXP SWAP1 DIV PUSH1 0xFF AND PUSH2 0x19B3 JUMPI PUSH1 0x0 DUP1 REVERT JUMPDEST PUSH2 0x457 DUP4 LT ISZERO PUSH2 0x19F8 JUMPI PUSH1 0x40 MLOAD PUSH32 0x8C379A000000000000000000000000000000000000000000000000000000000 DUP2 MSTORE PUSH1 0x4 ADD PUSH2 0x19EF SWAP1 PUSH2 0x463B JUMP JUMPDEST PUSH1 0x40 MLOAD DUP1 SWAP2 SUB SWAP1 REVERT JUMPDEST PUSH1 0x0 PUSH2 0x1A05 DUP5 DUP5 TIMESTAMP PUSH2 0x3045 JUMP JUMPDEST SWAP1 POP PUSH1 0x9D PUSH1 0x0 CALLER PUSH20 0xFFFFFFFFFFFFFFFFFFFFFFFFFFFFFFFFFFFFFFFF AND PUSH20 0xFFFFFFFFFFFFFFFFFFFFFFFFFFFFFFFFFFFFFFFF AND DUP2 MSTORE PUSH1 0x20 ADD SWAP1 DUP2 MSTORE PUSH1 0x20 ADD PUSH1 0x0 KECCAK256 DUP2 SWAP1 DUP1 PUSH1 0x1 DUP2 SLOAD ADD DUP1 DUP3 SSTORE DUP1 SWAP2 POP POP PUSH1 0x1 SWAP1 SUB SWAP1 PUSH1 0x0 MSTORE PUSH1 0x20 PUSH1 0x0 KECCAK256 ADD PUSH1 0x0 SWAP1 SWAP2 SWAP1 SWAP2 SWAP1 SWAP2 POP SSTORE PUSH1 0x0 PUSH1 0x9D PUSH1 0x0 CALLER PUSH20 0xFFFFFFFFFFFFFFFFFFFFFFFFFFFFFFFFFFFFFFFF AND PUSH20 0xFFFFFFFFFFFFFFFFFFFFFFFFFFFFFFFFFFFFFFFF AND DUP2 MSTORE PUSH1 0x20 ADD SWAP1 DUP2 MSTORE PUSH1 0x20 ADD PUSH1 0x0 KECCAK256 DUP1 SLOAD SWAP1 POP SWAP1 POP DUP1 PUSH1 0x9E PUSH1 0x0 DUP5 DUP2 MSTORE PUSH1 0x20 ADD SWAP1 DUP2 MSTORE PUSH1 0x20 ADD PUSH1 0x0 KECCAK256 DUP2 SWAP1 SSTORE POP DUP4 PUSH20 0xFFFFFFFFFFFFFFFFFFFFFFFFFFFFFFFFFFFFFFFF AND DUP3 PUSH32 0xF40CF4D564092D37E04E369AD4799671265E5E62FC1C7C444999BFEC8522C680 DUP8 PUSH1 0x40 MLOAD PUSH2 0x1B13 SWAP2 SWAP1 PUSH2 0x495B JUMP JUMPDEST PUSH1 0x40 MLOAD DUP1 SWAP2 SUB SWAP1 LOG3 DUP2 SWAP3 POP POP POP SWAP3 SWAP2 POP POP JUMP JUMPDEST PUSH1 0x0 DUP1 PUSH1 0x0 DUP1 PUSH1 0x9F DUP6 DUP2 SLOAD DUP2 LT PUSH2 0x1B66 JUMPI PUSH32 0x4E487B7100000000000000000000000000000000000000000000000000000000 PUSH1 0x0 MSTORE PUSH1 0x32 PUSH1 0x4 MSTORE PUSH1 0x24 PUSH1 0x0 REVERT JUMPDEST SWAP1 PUSH1 0x0 MSTORE PUSH1 0x20 PUSH1 0x0 KECCAK256 SWAP1 PUSH1 0x3 MUL ADD PUSH1 0x40 MLOAD DUP1 PUSH1 0x60 ADD PUSH1 0x40 MSTORE SWAP1 DUP2 PUSH1 0x0 DUP3 ADD SLOAD DUP2 MSTORE PUSH1 0x20 ADD PUSH1 0x1 DUP3 ADD SLOAD DUP2 MSTORE PUSH1 0x20 ADD PUSH1 0x2 DUP3 ADD SLOAD DUP2 MSTORE POP POP SWAP1 POP DUP1 PUSH1 0x0 ADD MLOAD DUP2 PUSH1 0x20 ADD MLOAD DUP3 PUSH1 0x40 ADD MLOAD SWAP4 POP SWAP4 POP SWAP4 POP POP SWAP2 SWAP4 SWAP1 SWAP3 POP JUMP JUMPDEST PUSH1 0x0 PUSH1 0x1 SWAP1 SLOAD SWAP1 PUSH2 0x100 EXP SWAP1 DIV PUSH1 0xFF AND DUP1 PUSH2 0x1BE2 JUMPI POP PUSH1 0x0 DUP1 SLOAD SWAP1 PUSH2 0x100 EXP SWAP1 DIV PUSH1 0xFF AND ISZERO JUMPDEST PUSH2 0x1C21 JUMPI PUSH1 0x40 MLOAD PUSH32 0x8C379A000000000000000000000000000000000000000000000000000000000 DUP2 MSTORE PUSH1 0x4 ADD PUSH2 0x1C18 SWAP1 PUSH2 0x481B JUMP JUMPDEST PUSH1 0x40 MLOAD DUP1 SWAP2 SUB SWAP1 REVERT JUMPDEST PUSH1 0x0 DUP1 PUSH1 0x1 SWAP1 SLOAD SWAP1 PUSH2 0x100 EXP SWAP1 DIV PUSH1 0xFF AND ISZERO SWAP1 POP DUP1 ISZERO PUSH2 0x1C71 JUMPI PUSH1 0x1 PUSH1 0x0 PUSH1 0x1 PUSH2 0x100 EXP DUP2 SLOAD DUP2 PUSH1 0xFF MUL NOT AND SWAP1 DUP4 ISZERO ISZERO MUL OR SWAP1 SSTORE POP PUSH1 0x1 PUSH1 0x0 DUP1 PUSH2 0x100 EXP DUP2 SLOAD DUP2 PUSH1 0xFF MUL NOT AND SWAP1 DUP4 ISZERO ISZERO MUL OR SWAP1 SSTORE POP JUMPDEST PUSH2 0x1CE5 PUSH1 0x40 MLOAD DUP1 PUSH1 0x40 ADD PUSH1 0x40 MSTORE DUP1 PUSH1 0xC DUP2 MSTORE PUSH1 0x20 ADD PUSH32 0x44696E6F734C616E644E46540000000000000000000000000000000000000000 DUP2 MSTORE POP PUSH1 0x40 MLOAD DUP1 PUSH1 0x40 ADD PUSH1 0x40 MSTORE DUP1 PUSH1 0x4 DUP2 MSTORE PUSH1 0x20 ADD PUSH32 0x44494E4F00000000000000000000000000000000000000000000000000000000 DUP2 MSTORE POP PUSH2 0x30DD JUMP JUMPDEST CALLER PUSH1 0x97 PUSH1 0x0 PUSH2 0x100 EXP DUP2 SLOAD DUP2 PUSH20 0xFFFFFFFFFFFFFFFFFFFFFFFFFFFFFFFFFFFFFFFF MUL NOT AND SWAP1 DUP4 PUSH20 0xFFFFFFFFFFFFFFFFFFFFFFFFFFFFFFFFFFFFFFFF AND MUL OR SWAP1 SSTORE POP PUSH1 0x9F PUSH1 0x40 MLOAD DUP1 PUSH1 0x60 ADD PUSH1 0x40 MSTORE DUP1 PUSH1 0x0 DUP2 MSTORE PUSH1 0x20 ADD TIMESTAMP DUP2 MSTORE PUSH1 0x20 ADD TIMESTAMP DUP2 MSTORE POP SWAP1 DUP1 PUSH1 0x1 DUP2 SLOAD ADD DUP1 DUP3 SSTORE DUP1 SWAP2 POP POP PUSH1 0x1 SWAP1 SUB SWAP1 PUSH1 0x0 MSTORE PUSH1 0x20 PUSH1 0x0 KECCAK256 SWAP1 PUSH1 0x3 MUL ADD PUSH1 0x0 SWAP1 SWAP2 SWAP1 SWAP2 SWAP1 SWAP2 POP PUSH1 0x0 DUP3 ADD MLOAD DUP2 PUSH1 0x0 ADD SSTORE PUSH1 0x20 DUP3 ADD MLOAD DUP2 PUSH1 0x1 ADD SSTORE PUSH1 0x40 DUP3 ADD MLOAD DUP2 PUSH1 0x2 ADD SSTORE POP POP PUSH2 0x1D9A PUSH2 0x457 CALLER TIMESTAMP PUSH2 0x3045 JUMP JUMPDEST POP PUSH2 0x1DA8 PUSH2 0x4BC CALLER TIMESTAMP PUSH2 0x3045 JUMP JUMPDEST POP PUSH2 0x1DB6 PUSH2 0x521 CALLER TIMESTAMP PUSH2 0x3045 JUMP JUMPDEST POP PUSH2 0x1DC4 PUSH2 0x521 CALLER TIMESTAMP PUSH2 0x3045 JUMP JUMPDEST POP PUSH2 0x1DD2 PUSH2 0x522 CALLER TIMESTAMP PUSH2 0x3045 JUMP JUMPDEST POP PUSH2 0x1DE0 PUSH2 0x523 CALLER TIMESTAMP PUSH2 0x3045 JUMP JUMPDEST POP DUP1 ISZERO PUSH2 0x1E02 JUMPI PUSH1 0x0 DUP1 PUSH1 0x1 PUSH2 0x100 EXP DUP2 SLOAD DUP2 PUSH1 0xFF MUL NOT AND SWAP1 DUP4 ISZERO ISZERO MUL OR SWAP1 SSTORE POP JUMPDEST POP JUMP JUMPDEST PUSH1 0x9E PUSH1 0x20 MSTORE DUP1 PUSH1 0x0 MSTORE PUSH1 0x40 PUSH1 0x0 KECCAK256 PUSH1 0x0 SWAP2 POP SWAP1 POP SLOAD DUP2 JUMP JUMPDEST PUSH1 0x99 PUSH1 0x0 SWAP1 SLOAD SWAP1 PUSH2 0x100 EXP SWAP1 DIV PUSH20 0xFFFFFFFFFFFFFFFFFFFFFFFFFFFFFFFFFFFFFFFF AND PUSH20 0xFFFFFFFFFFFFFFFFFFFFFFFFFFFFFFFFFFFFFFFF AND CALLER PUSH20 0xFFFFFFFFFFFFFFFFFFFFFFFFFFFFFFFFFFFFFFFF AND EQ DUP1 PUSH2 0x1EC6 JUMPI POP PUSH1 0x97 PUSH1 0x0 SWAP1 SLOAD SWAP1 PUSH2 0x100 EXP SWAP1 DIV PUSH20 0xFFFFFFFFFFFFFFFFFFFFFFFFFFFFFFFFFFFFFFFF AND PUSH20 0xFFFFFFFFFFFFFFFFFFFFFFFFFFFFFFFFFFFFFFFF AND CALLER PUSH20 0xFFFFFFFFFFFFFFFFFFFFFFFFFFFFFFFFFFFFFFFF AND EQ JUMPDEST DUP1 PUSH2 0x1F1E JUMPI POP PUSH1 0x98 PUSH1 0x0 SWAP1 SLOAD SWAP1 PUSH2 0x100 EXP SWAP1 DIV PUSH20 0xFFFFFFFFFFFFFFFFFFFFFFFFFFFFFFFFFFFFFFFF AND PUSH20 0xFFFFFFFFFFFFFFFFFFFFFFFFFFFFFFFFFFFFFFFF AND CALLER PUSH20 0xFFFFFFFFFFFFFFFFFFFFFFFFFFFFFFFFFFFFFFFF AND EQ JUMPDEST PUSH2 0x1F5D JUMPI PUSH1 0x40 MLOAD PUSH32 0x8C379A000000000000000000000000000000000000000000000000000000000 DUP2 MSTORE PUSH1 0x4 ADD PUSH2 0x1F54 SWAP1 PUSH2 0x46BB JUMP JUMPDEST PUSH1 0x40 MLOAD DUP1 SWAP2 SUB SWAP1 REVERT JUMPDEST PUSH1 0x9C PUSH1 0x0 SWAP1 SLOAD SWAP1 PUSH2 0x100 EXP SWAP1 DIV PUSH1 0xFF AND ISZERO PUSH2 0x1F77 JUMPI PUSH1 0x0 DUP1 REVERT JUMPDEST PUSH1 0x1 PUSH1 0x9C PUSH1 0x0 PUSH2 0x100 EXP DUP2 SLOAD DUP2 PUSH1 0xFF MUL NOT AND SWAP1 DUP4 ISZERO ISZERO MUL OR SWAP1 SSTORE POP JUMP JUMPDEST PUSH1 0x99 PUSH1 0x0 SWAP1 SLOAD SWAP1 PUSH2 0x100 EXP SWAP1 DIV PUSH20 0xFFFFFFFFFFFFFFFFFFFFFFFFFFFFFFFFFFFFFFFF AND PUSH20 0xFFFFFFFFFFFFFFFFFFFFFFFFFFFFFFFFFFFFFFFF AND CALLER PUSH20 0xFFFFFFFFFFFFFFFFFFFFFFFFFFFFFFFFFFFFFFFF AND EQ DUP1 PUSH2 0x203D JUMPI POP PUSH1 0x97 PUSH1 0x0 SWAP1 SLOAD SWAP1 PUSH2 0x100 EXP SWAP1 DIV PUSH20 0xFFFFFFFFFFFFFFFFFFFFFFFFFFFFFFFFFFFFFFFF AND PUSH20 0xFFFFFFFFFFFFFFFFFFFFFFFFFFFFFFFFFFFFFFFF AND CALLER PUSH20 0xFFFFFFFFFFFFFFFFFFFFFFFFFFFFFFFFFFFFFFFF AND EQ JUMPDEST DUP1 PUSH2 0x2095 JUMPI POP PUSH1 0x98 PUSH1 0x0 SWAP1 SLOAD SWAP1 PUSH2 0x100 EXP SWAP1 DIV PUSH20 0xFFFFFFFFFFFFFFFFFFFFFFFFFFFFFFFFFFFFFFFF AND PUSH20 0xFFFFFFFFFFFFFFFFFFFFFFFFFFFFFFFFFFFFFFFF AND CALLER PUSH20 0xFFFFFFFFFFFFFFFFFFFFFFFFFFFFFFFFFFFFFFFF AND EQ JUMPDEST PUSH2 0x20D4 JUMPI PUSH1 0x40 MLOAD PUSH32 0x8C379A000000000000000000000000000000000000000000000000000000000 DUP2 MSTORE PUSH1 0x4 ADD PUSH2 0x20CB SWAP1 PUSH2 0x46BB JUMP JUMPDEST PUSH1 0x40 MLOAD DUP1 SWAP2 SUB SWAP1 REVERT JUMPDEST DUP1 PUSH1 0x9A PUSH1 0x0 PUSH2 0x100 EXP DUP2 SLOAD DUP2 PUSH20 0xFFFFFFFFFFFFFFFFFFFFFFFFFFFFFFFFFFFFFFFF MUL NOT AND SWAP1 DUP4 PUSH20 0xFFFFFFFFFFFFFFFFFFFFFFFFFFFFFFFFFFFFFFFF AND MUL OR SWAP1 SSTORE POP POP JUMP JUMPDEST PUSH1 0xA2 SLOAD DUP2 JUMP JUMPDEST PUSH1 0x60 PUSH1 0x66 DUP1 SLOAD PUSH2 0x212D SWAP1 PUSH2 0x4C73 JUMP JUMPDEST DUP1 PUSH1 0x1F ADD PUSH1 0x20 DUP1 SWAP2 DIV MUL PUSH1 0x20 ADD PUSH1 0x40 MLOAD SWAP1 DUP2 ADD PUSH1 0x40 MSTORE DUP1 SWAP3 SWAP2 SWAP1 DUP2 DUP2 MSTORE PUSH1 0x20 ADD DUP3 DUP1 SLOAD PUSH2 0x2159 SWAP1 PUSH2 0x4C73 JUMP JUMPDEST DUP1 ISZERO PUSH2 0x21A6 JUMPI DUP1 PUSH1 0x1F LT PUSH2 0x217B JUMPI PUSH2 0x100 DUP1 DUP4 SLOAD DIV MUL DUP4 MSTORE SWAP2 PUSH1 0x20 ADD SWAP2 PUSH2 0x21A6 JUMP JUMPDEST DUP3 ADD SWAP2 SWAP1 PUSH1 0x0 MSTORE PUSH1 0x20 PUSH1 0x0 KECCAK256 SWAP1 JUMPDEST DUP2 SLOAD DUP2 MSTORE SWAP1 PUSH1 0x1 ADD SWAP1 PUSH1 0x20 ADD DUP1 DUP4 GT PUSH2 0x2189 JUMPI DUP3 SWAP1 SUB PUSH1 0x1F AND DUP3 ADD SWAP2 JUMPDEST POP POP POP POP POP SWAP1 POP SWAP1 JUMP JUMPDEST PUSH1 0x9A PUSH1 0x0 SWAP1 SLOAD SWAP1 PUSH2 0x100 EXP SWAP1 DIV PUSH20 0xFFFFFFFFFFFFFFFFFFFFFFFFFFFFFFFFFFFFFFFF AND DUP2 JUMP JUMPDEST PUSH1 0x9A PUSH1 0x0 SWAP1 SLOAD SWAP1 PUSH2 0x100 EXP SWAP1 DIV PUSH20 0xFFFFFFFFFFFFFFFFFFFFFFFFFFFFFFFFFFFFFFFF AND PUSH20 0xFFFFFFFFFFFFFFFFFFFFFFFFFFFFFFFFFFFFFFFF AND CALLER PUSH20 0xFFFFFFFFFFFFFFFFFFFFFFFFFFFFFFFFFFFFFFFF AND EQ PUSH2 0x2266 JUMPI PUSH1 0x40 MLOAD PUSH32 0x8C379A000000000000000000000000000000000000000000000000000000000 DUP2 MSTORE PUSH1 0x4 ADD PUSH2 0x225D SWAP1 PUSH2 0x475B JUMP JUMPDEST PUSH1 0x40 MLOAD DUP1 SWAP2 SUB SWAP1 REVERT JUMPDEST PUSH1 0x9A PUSH1 0x0 SWAP1 SLOAD SWAP1 PUSH2 0x100 EXP SWAP1 DIV PUSH20 0xFFFFFFFFFFFFFFFFFFFFFFFFFFFFFFFFFFFFFFFF AND PUSH20 0xFFFFFFFFFFFFFFFFFFFFFFFFFFFFFFFFFFFFFFFF AND CALLER PUSH20 0xFFFFFFFFFFFFFFFFFFFFFFFFFFFFFFFFFFFFFFFF AND EQ PUSH2 0x22C0 JUMPI PUSH1 0x0 DUP1 REVERT JUMPDEST DUP1 PUSH1 0x9B PUSH1 0x0 DUP5 PUSH20 0xFFFFFFFFFFFFFFFFFFFFFFFFFFFFFFFFFFFFFFFF AND PUSH20 0xFFFFFFFFFFFFFFFFFFFFFFFFFFFFFFFFFFFFFFFF AND DUP2 MSTORE PUSH1 0x20 ADD SWAP1 DUP2 MSTORE PUSH1 0x20 ADD PUSH1 0x0 KECCAK256 PUSH1 0x0 PUSH2 0x100 EXP DUP2 SLOAD DUP2 PUSH1 0xFF MUL NOT AND SWAP1 DUP4 ISZERO ISZERO MUL OR SWAP1 SSTORE POP POP POP JUMP JUMPDEST PUSH2 0x2323 PUSH2 0x2972 JUMP JUMPDEST PUSH20 0xFFFFFFFFFFFFFFFFFFFFFFFFFFFFFFFFFFFFFFFF AND DUP3 PUSH20 0xFFFFFFFFFFFFFFFFFFFFFFFFFFFFFFFFFFFFFFFF AND EQ ISZERO PUSH2 0x2391 JUMPI PUSH1 0x40 MLOAD PUSH32 0x8C379A000000000000000000000000000000000000000000000000000000000 DUP2 MSTORE PUSH1 0x4 ADD PUSH2 0x2388 SWAP1 PUSH2 0x46FB JUMP JUMPDEST PUSH1 0x40 MLOAD DUP1 SWAP2 SUB SWAP1 REVERT JUMPDEST DUP1 PUSH1 0x6A PUSH1 0x0 PUSH2 0x239E PUSH2 0x2972 JUMP JUMPDEST PUSH20 0xFFFFFFFFFFFFFFFFFFFFFFFFFFFFFFFFFFFFFFFF AND PUSH20 0xFFFFFFFFFFFFFFFFFFFFFFFFFFFFFFFFFFFFFFFF AND DUP2 MSTORE PUSH1 0x20 ADD SWAP1 DUP2 MSTORE PUSH1 0x20 ADD PUSH1 0x0 KECCAK256 PUSH1 0x0 DUP5 PUSH20 0xFFFFFFFFFFFFFFFFFFFFFFFFFFFFFFFFFFFFFFFF AND PUSH20 0xFFFFFFFFFFFFFFFFFFFFFFFFFFFFFFFFFFFFFFFF AND DUP2 MSTORE PUSH1 0x20 ADD SWAP1 DUP2 MSTORE PUSH1 0x20 ADD PUSH1 0x0 KECCAK256 PUSH1 0x0 PUSH2 0x100 EXP DUP2 SLOAD DUP2 PUSH1 0xFF MUL NOT AND SWAP1 DUP4 ISZERO ISZERO MUL OR SWAP1 SSTORE POP DUP2 PUSH20 0xFFFFFFFFFFFFFFFFFFFFFFFFFFFFFFFFFFFFFFFF AND PUSH2 0x244B PUSH2 0x2972 JUMP JUMPDEST PUSH20 0xFFFFFFFFFFFFFFFFFFFFFFFFFFFFFFFFFFFFFFFF AND PUSH32 0x17307EAB39AB6107E8899845AD3D59BD9653F200F220920489CA2B5937696C31 DUP4 PUSH1 0x40 MLOAD PUSH2 0x2490 SWAP2 SWAP1 PUSH2 0x45DE JUMP JUMPDEST PUSH1 0x40 MLOAD DUP1 SWAP2 SUB SWAP1 LOG3 POP POP JUMP JUMPDEST PUSH1 0xA5 SLOAD DUP2 JUMP JUMPDEST PUSH1 0x99 PUSH1 0x0 SWAP1 SLOAD SWAP1 PUSH2 0x100 EXP SWAP1 DIV PUSH20 0xFFFFFFFFFFFFFFFFFFFFFFFFFFFFFFFFFFFFFFFF AND DUP2 JUMP JUMPDEST PUSH1 0xA3 SLOAD DUP2 JUMP JUMPDEST PUSH2 0x24DF PUSH2 0x24D9 PUSH2 0x2972 JUMP JUMPDEST DUP4 PUSH2 0x2D0B JUMP JUMPDEST PUSH2 0x251E JUMPI PUSH1 0x40 MLOAD PUSH32 0x8C379A000000000000000000000000000000000000000000000000000000000 DUP2 MSTORE PUSH1 0x4 ADD PUSH2 0x2515 SWAP1 PUSH2 0x493B JUMP JUMPDEST PUSH1 0x40 MLOAD DUP1 SWAP2 SUB SWAP1 REVERT JUMPDEST PUSH2 0x252A DUP5 DUP5 DUP5 DUP5 PUSH2 0x31D2 JUMP JUMPDEST POP POP POP POP JUMP JUMPDEST PUSH1 0x9B PUSH1 0x20 MSTORE DUP1 PUSH1 0x0 MSTORE PUSH1 0x40 PUSH1 0x0 KECCAK256 PUSH1 0x0 SWAP2 POP SLOAD SWAP1 PUSH2 0x100 EXP SWAP1 DIV PUSH1 0xFF AND DUP2 JUMP JUMPDEST PUSH1 0x60 PUSH2 0x255B DUP3 PUSH2 0x2906 JUMP JUMPDEST PUSH2 0x259A JUMPI PUSH1 0x40 MLOAD PUSH32 0x8C379A000000000000000000000000000000000000000000000000000000000 DUP2 MSTORE PUSH1 0x4 ADD PUSH2 0x2591 SWAP1 PUSH2 0x48DB JUMP JUMPDEST PUSH1 0x40 MLOAD DUP1 SWAP2 SUB SWAP1 REVERT JUMPDEST PUSH1 0x0 PUSH2 0x25A4 PUSH2 0x322E JUMP JUMPDEST SWAP1 POP PUSH1 0x0 DUP2 MLOAD GT PUSH2 0x25C4 JUMPI PUSH1 0x40 MLOAD DUP1 PUSH1 0x20 ADD PUSH1 0x40 MSTORE DUP1 PUSH1 0x0 DUP2 MSTORE POP PUSH2 0x25EF JUMP JUMPDEST DUP1 PUSH2 0x25CE DUP5 PUSH2 0x3245 JUMP JUMPDEST PUSH1 0x40 MLOAD PUSH1 0x20 ADD PUSH2 0x25DF SWAP3 SWAP2 SWAP1 PUSH2 0x4531 JUMP JUMPDEST PUSH1 0x40 MLOAD PUSH1 0x20 DUP2 DUP4 SUB SUB DUP2 MSTORE SWAP1 PUSH1 0x40 MSTORE JUMPDEST SWAP2 POP POP SWAP2 SWAP1 POP JUMP JUMPDEST PUSH1 0x60 PUSH1 0x9D PUSH1 0x0 DUP4 PUSH20 0xFFFFFFFFFFFFFFFFFFFFFFFFFFFFFFFFFFFFFFFF AND PUSH20 0xFFFFFFFFFFFFFFFFFFFFFFFFFFFFFFFFFFFFFFFF AND DUP2 MSTORE PUSH1 0x20 ADD SWAP1 DUP2 MSTORE PUSH1 0x20 ADD PUSH1 0x0 KECCAK256 DUP1 SLOAD DUP1 PUSH1 0x20 MUL PUSH1 0x20 ADD PUSH1 0x40 MLOAD SWAP1 DUP2 ADD PUSH1 0x40 MSTORE DUP1 SWAP3 SWAP2 SWAP1 DUP2 DUP2 MSTORE PUSH1 0x20 ADD DUP3 DUP1 SLOAD DUP1 ISZERO PUSH2 0x2682 JUMPI PUSH1 0x20 MUL DUP3 ADD SWAP2 SWAP1 PUSH1 0x0 MSTORE PUSH1 0x20 PUSH1 0x0 KECCAK256 SWAP1 JUMPDEST DUP2 SLOAD DUP2 MSTORE PUSH1 0x20 ADD SWAP1 PUSH1 0x1 ADD SWAP1 DUP1 DUP4 GT PUSH2 0x266E JUMPI JUMPDEST POP POP POP POP POP SWAP1 POP SWAP2 SWAP1 POP JUMP JUMPDEST PUSH1 0x9B PUSH1 0x0 CALLER PUSH20 0xFFFFFFFFFFFFFFFFFFFFFFFFFFFFFFFFFFFFFFFF AND PUSH20 0xFFFFFFFFFFFFFFFFFFFFFFFFFFFFFFFFFFFFFFFF AND DUP2 MSTORE PUSH1 0x20 ADD SWAP1 DUP2 MSTORE PUSH1 0x20 ADD PUSH1 0x0 KECCAK256 PUSH1 0x0 SWAP1 SLOAD SWAP1 PUSH2 0x100 EXP SWAP1 DIV PUSH1 0xFF AND PUSH2 0x26E4 JUMPI PUSH1 0x0 DUP1 REVERT JUMPDEST PUSH2 0x457 DUP2 LT ISZERO PUSH2 0x2729 JUMPI PUSH1 0x40 MLOAD PUSH32 0x8C379A000000000000000000000000000000000000000000000000000000000 DUP2 MSTORE PUSH1 0x4 ADD PUSH2 0x2720 SWAP1 PUSH2 0x463B JUMP JUMPDEST PUSH1 0x40 MLOAD DUP1 SWAP2 SUB SWAP1 REVERT JUMPDEST PUSH1 0x0 PUSH1 0x9F DUP4 DUP2 SLOAD DUP2 LT PUSH2 0x2765 JUMPI PUSH32 0x4E487B7100000000000000000000000000000000000000000000000000000000 PUSH1 0x0 MSTORE PUSH1 0x32 PUSH1 0x4 MSTORE PUSH1 0x24 PUSH1 0x0 REVERT JUMPDEST SWAP1 PUSH1 0x0 MSTORE PUSH1 0x20 PUSH1 0x0 KECCAK256 SWAP1 PUSH1 0x3 MUL ADD PUSH1 0x0 ADD SLOAD SWAP1 POP DUP2 PUSH1 0x9F DUP5 DUP2 SLOAD DUP2 LT PUSH2 0x27B4 JUMPI PUSH32 0x4E487B7100000000000000000000000000000000000000000000000000000000 PUSH1 0x0 MSTORE PUSH1 0x32 PUSH1 0x4 MSTORE PUSH1 0x24 PUSH1 0x0 REVERT JUMPDEST SWAP1 PUSH1 0x0 MSTORE PUSH1 0x20 PUSH1 0x0 KECCAK256 SWAP1 PUSH1 0x3 MUL ADD PUSH1 0x0 ADD DUP2 SWAP1 SSTORE POP DUP3 PUSH32 0x82B010ABE1945B626325D9D8883B89BF6B65C1D721906899E32BB214A7CCC4BF DUP3 DUP5 PUSH1 0x40 MLOAD PUSH2 0x27FB SWAP3 SWAP2 SWAP1 PUSH2 0x4976 JUMP JUMPDEST PUSH1 0x40 MLOAD DUP1 SWAP2 SUB SWAP1 LOG2 POP POP POP JUMP JUMPDEST PUSH1 0x0 PUSH1 0x6A PUSH1 0x0 DUP5 PUSH20 0xFFFFFFFFFFFFFFFFFFFFFFFFFFFFFFFFFFFFFFFF AND PUSH20 0xFFFFFFFFFFFFFFFFFFFFFFFFFFFFFFFFFFFFFFFF AND DUP2 MSTORE PUSH1 0x20 ADD SWAP1 DUP2 MSTORE PUSH1 0x20 ADD PUSH1 0x0 KECCAK256 PUSH1 0x0 DUP4 PUSH20 0xFFFFFFFFFFFFFFFFFFFFFFFFFFFFFFFFFFFFFFFF AND PUSH20 0xFFFFFFFFFFFFFFFFFFFFFFFFFFFFFFFFFFFFFFFF AND DUP2 MSTORE PUSH1 0x20 ADD SWAP1 DUP2 MSTORE PUSH1 0x20 ADD PUSH1 0x0 KECCAK256 PUSH1 0x0 SWAP1 SLOAD SWAP1 PUSH2 0x100 EXP SWAP1 DIV PUSH1 0xFF AND SWAP1 POP SWAP3 SWAP2 POP POP JUMP JUMPDEST PUSH1 0x0 PUSH32 0x1FFC9A700000000000000000000000000000000000000000000000000000000 PUSH28 0xFFFFFFFFFFFFFFFFFFFFFFFFFFFFFFFFFFFFFFFFFFFFFFFFFFFFFFFF NOT AND DUP3 PUSH28 0xFFFFFFFFFFFFFFFFFFFFFFFFFFFFFFFFFFFFFFFFFFFFFFFFFFFFFFFF NOT AND EQ SWAP1 POP SWAP2 SWAP1 POP JUMP JUMPDEST PUSH1 0x0 DUP1 PUSH20 0xFFFFFFFFFFFFFFFFFFFFFFFFFFFFFFFFFFFFFFFF AND PUSH1 0x67 PUSH1 0x0 DUP5 DUP2 MSTORE PUSH1 0x20 ADD SWAP1 DUP2 MSTORE PUSH1 0x20 ADD PUSH1 0x0 KECCAK256 PUSH1 0x0 SWAP1 SLOAD SWAP1 PUSH2 0x100 EXP SWAP1 DIV PUSH20 0xFFFFFFFFFFFFFFFFFFFFFFFFFFFFFFFFFFFFFFFF AND PUSH20 0xFFFFFFFFFFFFFFFFFFFFFFFFFFFFFFFFFFFFFFFF AND EQ ISZERO SWAP1 POP SWAP2 SWAP1 POP JUMP JUMPDEST PUSH1 0x0 CALLER SWAP1 POP SWAP1 JUMP JUMPDEST DUP2 PUSH1 0x69 PUSH1 0x0 DUP4 DUP2 MSTORE PUSH1 0x20 ADD SWAP1 DUP2 MSTORE PUSH1 0x20 ADD PUSH1 0x0 KECCAK256 PUSH1 0x0 PUSH2 0x100 EXP DUP2 SLOAD DUP2 PUSH20 0xFFFFFFFFFFFFFFFFFFFFFFFFFFFFFFFFFFFFFFFF MUL NOT AND SWAP1 DUP4 PUSH20 0xFFFFFFFFFFFFFFFFFFFFFFFFFFFFFFFFFFFFFFFF AND MUL OR SWAP1 SSTORE POP DUP1 DUP3 PUSH20 0xFFFFFFFFFFFFFFFFFFFFFFFFFFFFFFFFFFFFFFFF AND PUSH2 0x29ED DUP4 PUSH2 0x1729 JUMP JUMPDEST PUSH20 0xFFFFFFFFFFFFFFFFFFFFFFFFFFFFFFFFFFFFFFFF AND PUSH32 0x8C5BE1E5EBEC7D5BD14F71427D1E84F3DD0314C0F7B2291E5B200AC8C7C3B925 PUSH1 0x40 MLOAD PUSH1 0x40 MLOAD DUP1 SWAP2 SUB SWAP1 LOG4 POP POP JUMP JUMPDEST PUSH1 0x0 PUSH2 0x2A3E DUP3 PUSH2 0x1729 JUMP JUMPDEST SWAP1 POP PUSH2 0x2A4C DUP2 PUSH1 0x0 DUP5 PUSH2 0x33F2 JUMP JUMPDEST PUSH2 0x2A57 PUSH1 0x0 DUP4 PUSH2 0x297A JUMP JUMPDEST PUSH1 0x1 PUSH1 0x68 PUSH1 0x0 DUP4 PUSH20 0xFFFFFFFFFFFFFFFFFFFFFFFFFFFFFFFFFFFFFFFF AND PUSH20 0xFFFFFFFFFFFFFFFFFFFFFFFFFFFFFFFFFFFFFFFF AND DUP2 MSTORE PUSH1 0x20 ADD SWAP1 DUP2 MSTORE PUSH1 0x20 ADD PUSH1 0x0 KECCAK256 PUSH1 0x0 DUP3 DUP3 SLOAD PUSH2 0x2AA7 SWAP2 SWAP1 PUSH2 0x4B89 JUMP JUMPDEST SWAP3 POP POP DUP2 SWAP1 SSTORE POP PUSH1 0x67 PUSH1 0x0 DUP4 DUP2 MSTORE PUSH1 0x20 ADD SWAP1 DUP2 MSTORE PUSH1 0x20 ADD PUSH1 0x0 KECCAK256 PUSH1 0x0 PUSH2 0x100 EXP DUP2 SLOAD SWAP1 PUSH20 0xFFFFFFFFFFFFFFFFFFFFFFFFFFFFFFFFFFFFFFFF MUL NOT AND SWAP1 SSTORE DUP2 PUSH1 0x0 PUSH20 0xFFFFFFFFFFFFFFFFFFFFFFFFFFFFFFFFFFFFFFFF AND DUP3 PUSH20 0xFFFFFFFFFFFFFFFFFFFFFFFFFFFFFFFFFFFFFFFF AND PUSH32 0xDDF252AD1BE2C89B69C2B068FC378DAA952BA7F163C4A11628F55A4DF523B3EF PUSH1 0x40 MLOAD PUSH1 0x40 MLOAD DUP1 SWAP2 SUB SWAP1 LOG4 POP POP JUMP JUMPDEST PUSH1 0x0 DUP1 DUP3 EXTCODESIZE SWAP1 POP PUSH1 0x0 DUP2 GT SWAP2 POP POP SWAP2 SWAP1 POP JUMP JUMPDEST PUSH1 0x0 DUP1 PUSH2 0x3E8 DUP4 PUSH2 0x2B68 SWAP2 SWAP1 PUSH2 0x4AFE JUMP JUMPDEST EQ PUSH2 0x2BA8 JUMPI PUSH1 0x40 MLOAD PUSH32 0x8C379A000000000000000000000000000000000000000000000000000000000 DUP2 MSTORE PUSH1 0x4 ADD PUSH2 0x2B9F SWAP1 PUSH2 0x48FB JUMP JUMPDEST PUSH1 0x40 MLOAD DUP1 SWAP2 SUB SWAP1 REVERT JUMPDEST PUSH1 0xA DUP3 EQ ISZERO PUSH2 0x2BE7 JUMPI PUSH1 0x0 PUSH2 0x2BBB PUSH2 0x33F7 JUMP JUMPDEST SWAP1 POP PUSH1 0x21 DUP2 GT PUSH2 0x2BCE JUMPI PUSH1 0xB SWAP3 POP PUSH2 0x2BE5 JUMP JUMPDEST PUSH1 0x42 DUP2 GT PUSH2 0x2BDF JUMPI PUSH1 0xC SWAP3 POP PUSH2 0x2BE4 JUMP JUMPDEST PUSH1 0xD SWAP3 POP JUMPDEST JUMPDEST POP JUMPDEST PUSH1 0x0 PUSH2 0x2BF1 PUSH2 0x33F7 JUMP JUMPDEST SWAP1 POP PUSH1 0xA1 SLOAD DUP2 GT PUSH2 0x2C1D JUMPI PUSH1 0xB PUSH1 0x64 DUP5 PUSH2 0x2C0B SWAP2 SWAP1 PUSH2 0x4B2F JUMP JUMPDEST PUSH2 0x2C15 SWAP2 SWAP1 PUSH2 0x4AA8 JUMP JUMPDEST SWAP2 POP POP PUSH2 0x2D06 JUMP JUMPDEST PUSH1 0xA2 SLOAD PUSH1 0xA1 SLOAD PUSH2 0x2C2D SWAP2 SWAP1 PUSH2 0x4AA8 JUMP JUMPDEST DUP2 GT PUSH2 0x2C54 JUMPI PUSH1 0xC PUSH1 0x64 DUP5 PUSH2 0x2C42 SWAP2 SWAP1 PUSH2 0x4B2F JUMP JUMPDEST PUSH2 0x2C4C SWAP2 SWAP1 PUSH2 0x4AA8 JUMP JUMPDEST SWAP2 POP POP PUSH2 0x2D06 JUMP JUMPDEST PUSH1 0xA3 SLOAD PUSH1 0xA2 SLOAD PUSH1 0xA1 SLOAD PUSH2 0x2C67 SWAP2 SWAP1 PUSH2 0x4AA8 JUMP JUMPDEST PUSH2 0x2C71 SWAP2 SWAP1 PUSH2 0x4AA8 JUMP JUMPDEST DUP2 GT PUSH2 0x2C98 JUMPI PUSH1 0xD PUSH1 0x64 DUP5 PUSH2 0x2C86 SWAP2 SWAP1 PUSH2 0x4B2F JUMP JUMPDEST PUSH2 0x2C90 SWAP2 SWAP1 PUSH2 0x4AA8 JUMP JUMPDEST SWAP2 POP POP PUSH2 0x2D06 JUMP JUMPDEST PUSH1 0xA4 SLOAD PUSH1 0xA3 SLOAD PUSH1 0xA2 SLOAD PUSH1 0xA1 SLOAD PUSH2 0x2CAE SWAP2 SWAP1 PUSH2 0x4AA8 JUMP JUMPDEST PUSH2 0x2CB8 SWAP2 SWAP1 PUSH2 0x4AA8 JUMP JUMPDEST PUSH2 0x2CC2 SWAP2 SWAP1 PUSH2 0x4AA8 JUMP JUMPDEST DUP2 GT PUSH2 0x2CE9 JUMPI PUSH1 0xE PUSH1 0x64 DUP5 PUSH2 0x2CD7 SWAP2 SWAP1 PUSH2 0x4B2F JUMP JUMPDEST PUSH2 0x2CE1 SWAP2 SWAP1 PUSH2 0x4AA8 JUMP JUMPDEST SWAP2 POP POP PUSH2 0x2D06 JUMP JUMPDEST PUSH1 0xF PUSH1 0x64 DUP5 PUSH2 0x2CF8 SWAP2 SWAP1 PUSH2 0x4B2F JUMP JUMPDEST PUSH2 0x2D02 SWAP2 SWAP1 PUSH2 0x4AA8 JUMP JUMPDEST SWAP2 POP POP JUMPDEST SWAP2 SWAP1 POP JUMP JUMPDEST PUSH1 0x0 PUSH2 0x2D16 DUP3 PUSH2 0x2906 JUMP JUMPDEST PUSH2 0x2D55 JUMPI PUSH1 0x40 MLOAD PUSH32 0x8C379A000000000000000000000000000000000000000000000000000000000 DUP2 MSTORE PUSH1 0x4 ADD PUSH2 0x2D4C SWAP1 PUSH2 0x473B JUMP JUMPDEST PUSH1 0x40 MLOAD DUP1 SWAP2 SUB SWAP1 REVERT JUMPDEST PUSH1 0x0 PUSH2 0x2D60 DUP4 PUSH2 0x1729 JUMP JUMPDEST SWAP1 POP DUP1 PUSH20 0xFFFFFFFFFFFFFFFFFFFFFFFFFFFFFFFFFFFFFFFF AND DUP5 PUSH20 0xFFFFFFFFFFFFFFFFFFFFFFFFFFFFFFFFFFFFFFFF AND EQ DUP1 PUSH2 0x2DCF JUMPI POP DUP4 PUSH20 0xFFFFFFFFFFFFFFFFFFFFFFFFFFFFFFFFFFFFFFFF AND PUSH2 0x2DB7 DUP5 PUSH2 0x9AC JUMP JUMPDEST PUSH20 0xFFFFFFFFFFFFFFFFFFFFFFFFFFFFFFFFFFFFFFFF AND EQ JUMPDEST DUP1 PUSH2 0x2DE0 JUMPI POP PUSH2 0x2DDF DUP2 DUP6 PUSH2 0x2808 JUMP JUMPDEST JUMPDEST SWAP2 POP POP SWAP3 SWAP2 POP POP JUMP JUMPDEST DUP3 PUSH20 0xFFFFFFFFFFFFFFFFFFFFFFFFFFFFFFFFFFFFFFFF AND PUSH2 0x2E09 DUP3 PUSH2 0x1729 JUMP JUMPDEST PUSH20 0xFFFFFFFFFFFFFFFFFFFFFFFFFFFFFFFFFFFFFFFF AND EQ PUSH2 0x2E5F JUMPI PUSH1 0x40 MLOAD PUSH32 0x8C379A000000000000000000000000000000000000000000000000000000000 DUP2 MSTORE PUSH1 0x4 ADD PUSH2 0x2E56 SWAP1 PUSH2 0x48BB JUMP JUMPDEST PUSH1 0x40 MLOAD DUP1 SWAP2 SUB SWAP1 REVERT JUMPDEST PUSH1 0x0 PUSH20 0xFFFFFFFFFFFFFFFFFFFFFFFFFFFFFFFFFFFFFFFF AND DUP3 PUSH20 0xFFFFFFFFFFFFFFFFFFFFFFFFFFFFFFFFFFFFFFFF AND EQ ISZERO PUSH2 0x2ECF JUMPI PUSH1 0x40 MLOAD PUSH32 0x8C379A000000000000000000000000000000000000000000000000000000000 DUP2 MSTORE PUSH1 0x4 ADD PUSH2 0x2EC6 SWAP1 PUSH2 0x46DB JUMP JUMPDEST PUSH1 0x40 MLOAD DUP1 SWAP2 SUB SWAP1 REVERT JUMPDEST PUSH2 0x2EDA DUP4 DUP4 DUP4 PUSH2 0x33F2 JUMP JUMPDEST PUSH2 0x2EE5 PUSH1 0x0 DUP3 PUSH2 0x297A JUMP JUMPDEST PUSH1 0x1 PUSH1 0x68 PUSH1 0x0 DUP6 PUSH20 0xFFFFFFFFFFFFFFFFFFFFFFFFFFFFFFFFFFFFFFFF AND PUSH20 0xFFFFFFFFFFFFFFFFFFFFFFFFFFFFFFFFFFFFFFFF AND DUP2 MSTORE PUSH1 0x20 ADD SWAP1 DUP2 MSTORE PUSH1 0x20 ADD PUSH1 0x0 KECCAK256 PUSH1 0x0 DUP3 DUP3 SLOAD PUSH2 0x2F35 SWAP2 SWAP1 PUSH2 0x4B89 JUMP JUMPDEST SWAP3 POP POP DUP2 SWAP1 SSTORE POP PUSH1 0x1 PUSH1 0x68 PUSH1 0x0 DUP5 PUSH20 0xFFFFFFFFFFFFFFFFFFFFFFFFFFFFFFFFFFFFFFFF AND PUSH20 0xFFFFFFFFFFFFFFFFFFFFFFFFFFFFFFFFFFFFFFFF AND DUP2 MSTORE PUSH1 0x20 ADD SWAP1 DUP2 MSTORE PUSH1 0x20 ADD PUSH1 0x0 KECCAK256 PUSH1 0x0 DUP3 DUP3 SLOAD PUSH2 0x2F8C SWAP2 SWAP1 PUSH2 0x4AA8 JUMP JUMPDEST SWAP3 POP POP DUP2 SWAP1 SSTORE POP DUP2 PUSH1 0x67 PUSH1 0x0 DUP4 DUP2 MSTORE PUSH1 0x20 ADD SWAP1 DUP2 MSTORE PUSH1 0x20 ADD PUSH1 0x0 KECCAK256 PUSH1 0x0 PUSH2 0x100 EXP DUP2 SLOAD DUP2 PUSH20 0xFFFFFFFFFFFFFFFFFFFFFFFFFFFFFFFFFFFFFFFF MUL NOT AND SWAP1 DUP4 PUSH20 0xFFFFFFFFFFFFFFFFFFFFFFFFFFFFFFFFFFFFFFFF AND MUL OR SWAP1 SSTORE POP DUP1 DUP3 PUSH20 0xFFFFFFFFFFFFFFFFFFFFFFFFFFFFFFFFFFFFFFFF AND DUP5 PUSH20 0xFFFFFFFFFFFFFFFFFFFFFFFFFFFFFFFFFFFFFFFF AND PUSH32 0xDDF252AD1BE2C89B69C2B068FC378DAA952BA7F163C4A11628F55A4DF523B3EF PUSH1 0x40 MLOAD PUSH1 0x40 MLOAD DUP1 SWAP2 SUB SWAP1 LOG4 POP POP POP JUMP JUMPDEST PUSH1 0x0 DUP1 PUSH1 0x40 MLOAD DUP1 PUSH1 0x60 ADD PUSH1 0x40 MSTORE DUP1 DUP7 DUP2 MSTORE PUSH1 0x20 ADD TIMESTAMP DUP2 MSTORE PUSH1 0x20 ADD DUP5 DUP2 MSTORE POP SWAP1 POP PUSH1 0x9F DUP2 SWAP1 DUP1 PUSH1 0x1 DUP2 SLOAD ADD DUP1 DUP3 SSTORE DUP1 SWAP2 POP POP PUSH1 0x1 SWAP1 SUB SWAP1 PUSH1 0x0 MSTORE PUSH1 0x20 PUSH1 0x0 KECCAK256 SWAP1 PUSH1 0x3 MUL ADD PUSH1 0x0 SWAP1 SWAP2 SWAP1 SWAP2 SWAP1 SWAP2 POP PUSH1 0x0 DUP3 ADD MLOAD DUP2 PUSH1 0x0 ADD SSTORE PUSH1 0x20 DUP3 ADD MLOAD DUP2 PUSH1 0x1 ADD SSTORE PUSH1 0x40 DUP3 ADD MLOAD DUP2 PUSH1 0x2 ADD SSTORE POP POP PUSH1 0x0 PUSH1 0x1 PUSH1 0x9F DUP1 SLOAD SWAP1 POP PUSH2 0x30C5 SWAP2 SWAP1 PUSH2 0x4B89 JUMP JUMPDEST SWAP1 POP PUSH2 0x30D1 DUP6 DUP3 PUSH2 0x3461 JUMP JUMPDEST DUP1 SWAP3 POP POP POP SWAP4 SWAP3 POP POP POP JUMP JUMPDEST PUSH1 0x0 PUSH1 0x1 SWAP1 SLOAD SWAP1 PUSH2 0x100 EXP SWAP1 DIV PUSH1 0xFF AND DUP1 PUSH2 0x3103 JUMPI POP PUSH1 0x0 DUP1 SLOAD SWAP1 PUSH2 0x100 EXP SWAP1 DIV PUSH1 0xFF AND ISZERO JUMPDEST PUSH2 0x3142 JUMPI PUSH1 0x40 MLOAD PUSH32 0x8C379A000000000000000000000000000000000000000000000000000000000 DUP2 MSTORE PUSH1 0x4 ADD PUSH2 0x3139 SWAP1 PUSH2 0x481B JUMP JUMPDEST PUSH1 0x40 MLOAD DUP1 SWAP2 SUB SWAP1 REVERT JUMPDEST PUSH1 0x0 DUP1 PUSH1 0x1 SWAP1 SLOAD SWAP1 PUSH2 0x100 EXP SWAP1 DIV PUSH1 0xFF AND ISZERO SWAP1 POP DUP1 ISZERO PUSH2 0x3192 JUMPI PUSH1 0x1 PUSH1 0x0 PUSH1 0x1 PUSH2 0x100 EXP DUP2 SLOAD DUP2 PUSH1 0xFF MUL NOT AND SWAP1 DUP4 ISZERO ISZERO MUL OR SWAP1 SSTORE POP PUSH1 0x1 PUSH1 0x0 DUP1 PUSH2 0x100 EXP DUP2 SLOAD DUP2 PUSH1 0xFF MUL NOT AND SWAP1 DUP4 ISZERO ISZERO MUL OR SWAP1 SSTORE POP JUMPDEST PUSH2 0x319A PUSH2 0x362F JUMP JUMPDEST PUSH2 0x31A2 PUSH2 0x3708 JUMP JUMPDEST PUSH2 0x31AC DUP4 DUP4 PUSH2 0x37E1 JUMP JUMPDEST DUP1 ISZERO PUSH2 0x31CD JUMPI PUSH1 0x0 DUP1 PUSH1 0x1 PUSH2 0x100 EXP DUP2 SLOAD DUP2 PUSH1 0xFF MUL NOT AND SWAP1 DUP4 ISZERO ISZERO MUL OR SWAP1 SSTORE POP JUMPDEST POP POP POP JUMP JUMPDEST PUSH2 0x31DD DUP5 DUP5 DUP5 PUSH2 0x2DE9 JUMP JUMPDEST PUSH2 0x31E9 DUP5 DUP5 DUP5 DUP5 PUSH2 0x38EA JUMP JUMPDEST PUSH2 0x3228 JUMPI PUSH1 0x40 MLOAD PUSH32 0x8C379A000000000000000000000000000000000000000000000000000000000 DUP2 MSTORE PUSH1 0x4 ADD PUSH2 0x321F SWAP1 PUSH2 0x465B JUMP JUMPDEST PUSH1 0x40 MLOAD DUP1 SWAP2 SUB SWAP1 REVERT JUMPDEST POP POP POP POP JUMP JUMPDEST PUSH1 0x60 PUSH1 0x40 MLOAD DUP1 PUSH1 0x20 ADD PUSH1 0x40 MSTORE DUP1 PUSH1 0x0 DUP2 MSTORE POP SWAP1 POP SWAP1 JUMP JUMPDEST PUSH1 0x60 PUSH1 0x0 DUP3 EQ ISZERO PUSH2 0x328D JUMPI PUSH1 0x40 MLOAD DUP1 PUSH1 0x40 ADD PUSH1 0x40 MSTORE DUP1 PUSH1 0x1 DUP2 MSTORE PUSH1 0x20 ADD PUSH32 0x3000000000000000000000000000000000000000000000000000000000000000 DUP2 MSTORE POP SWAP1 POP PUSH2 0x33ED JUMP JUMPDEST PUSH1 0x0 DUP3 SWAP1 POP PUSH1 0x0 JUMPDEST PUSH1 0x0 DUP3 EQ PUSH2 0x32BF JUMPI DUP1 DUP1 PUSH2 0x32A8 SWAP1 PUSH2 0x4CD6 JUMP JUMPDEST SWAP2 POP POP PUSH1 0xA DUP3 PUSH2 0x32B8 SWAP2 SWAP1 PUSH2 0x4AFE JUMP JUMPDEST SWAP2 POP PUSH2 0x3295 JUMP JUMPDEST PUSH1 0x0 DUP2 PUSH8 0xFFFFFFFFFFFFFFFF DUP2 GT ISZERO PUSH2 0x3301 JUMPI PUSH32 0x4E487B7100000000000000000000000000000000000000000000000000000000 PUSH1 0x0 MSTORE PUSH1 0x41 PUSH1 0x4 MSTORE PUSH1 0x24 PUSH1 0x0 REVERT JUMPDEST PUSH1 0x40 MLOAD SWAP1 DUP1 DUP3 MSTORE DUP1 PUSH1 0x1F ADD PUSH1 0x1F NOT AND PUSH1 0x20 ADD DUP3 ADD PUSH1 0x40 MSTORE DUP1 ISZERO PUSH2 0x3333 JUMPI DUP2 PUSH1 0x20 ADD PUSH1 0x1 DUP3 MUL DUP1 CALLDATASIZE DUP4 CALLDATACOPY DUP1 DUP3 ADD SWAP2 POP POP SWAP1 POP JUMPDEST POP SWAP1 POP JUMPDEST PUSH1 0x0 DUP6 EQ PUSH2 0x33E6 JUMPI PUSH1 0x1 DUP3 PUSH2 0x334C SWAP2 SWAP1 PUSH2 0x4B89 JUMP JUMPDEST SWAP2 POP PUSH1 0xA DUP6 PUSH2 0x335B SWAP2 SWAP1 PUSH2 0x4D4D JUMP JUMPDEST PUSH1 0x30 PUSH2 0x3367 SWAP2 SWAP1 PUSH2 0x4AA8 JUMP JUMPDEST PUSH1 0xF8 SHL DUP2 DUP4 DUP2 MLOAD DUP2 LT PUSH2 0x33A3 JUMPI PUSH32 0x4E487B7100000000000000000000000000000000000000000000000000000000 PUSH1 0x0 MSTORE PUSH1 0x32 PUSH1 0x4 MSTORE PUSH1 0x24 PUSH1 0x0 REVERT JUMPDEST PUSH1 0x20 ADD ADD SWAP1 PUSH31 0xFFFFFFFFFFFFFFFFFFFFFFFFFFFFFFFFFFFFFFFFFFFFFFFFFFFFFFFFFFFFFF NOT AND SWAP1 DUP2 PUSH1 0x0 BYTE SWAP1 MSTORE8 POP PUSH1 0xA DUP6 PUSH2 0x33DF SWAP2 SWAP1 PUSH2 0x4AFE JUMP JUMPDEST SWAP5 POP PUSH2 0x3337 JUMP JUMPDEST DUP1 SWAP4 POP POP POP POP JUMPDEST SWAP2 SWAP1 POP JUMP JUMPDEST POP POP POP JUMP JUMPDEST PUSH1 0x0 DUP1 PUSH1 0x1 PUSH1 0x64 CALLER TIMESTAMP DIFFICULTY PUSH1 0xA0 PUSH1 0x0 DUP2 SLOAD DUP1 SWAP3 SWAP2 SWAP1 PUSH2 0x3414 SWAP1 PUSH2 0x4CD6 JUMP JUMPDEST SWAP2 SWAP1 POP SSTORE PUSH1 0x40 MLOAD PUSH1 0x20 ADD PUSH2 0x342B SWAP5 SWAP4 SWAP3 SWAP2 SWAP1 PUSH2 0x44D8 JUMP JUMPDEST PUSH1 0x40 MLOAD PUSH1 0x20 DUP2 DUP4 SUB SUB DUP2 MSTORE SWAP1 PUSH1 0x40 MSTORE DUP1 MLOAD SWAP1 PUSH1 0x20 ADD KECCAK256 PUSH1 0x0 SHR PUSH2 0x344E SWAP2 SWAP1 PUSH2 0x4D4D JUMP JUMPDEST PUSH2 0x3458 SWAP2 SWAP1 PUSH2 0x4AA8 JUMP JUMPDEST SWAP1 POP DUP1 SWAP2 POP POP SWAP1 JUMP JUMPDEST PUSH1 0x0 PUSH20 0xFFFFFFFFFFFFFFFFFFFFFFFFFFFFFFFFFFFFFFFF AND DUP3 PUSH20 0xFFFFFFFFFFFFFFFFFFFFFFFFFFFFFFFFFFFFFFFF AND EQ ISZERO PUSH2 0x34D1 JUMPI PUSH1 0x40 MLOAD PUSH32 0x8C379A000000000000000000000000000000000000000000000000000000000 DUP2 MSTORE PUSH1 0x4 ADD PUSH2 0x34C8 SWAP1 PUSH2 0x487B JUMP JUMPDEST PUSH1 0x40 MLOAD DUP1 SWAP2 SUB SWAP1 REVERT JUMPDEST PUSH2 0x34DA DUP2 PUSH2 0x2906 JUMP JUMPDEST ISZERO PUSH2 0x351A JUMPI PUSH1 0x40 MLOAD PUSH32 0x8C379A000000000000000000000000000000000000000000000000000000000 DUP2 MSTORE PUSH1 0x4 ADD PUSH2 0x3511 SWAP1 PUSH2 0x469B JUMP JUMPDEST PUSH1 0x40 MLOAD DUP1 SWAP2 SUB SWAP1 REVERT JUMPDEST PUSH2 0x3526 PUSH1 0x0 DUP4 DUP4 PUSH2 0x33F2 JUMP JUMPDEST PUSH1 0x1 PUSH1 0x68 PUSH1 0x0 DUP5 PUSH20 0xFFFFFFFFFFFFFFFFFFFFFFFFFFFFFFFFFFFFFFFF AND PUSH20 0xFFFFFFFFFFFFFFFFFFFFFFFFFFFFFFFFFFFFFFFF AND DUP2 MSTORE PUSH1 0x20 ADD SWAP1 DUP2 MSTORE PUSH1 0x20 ADD PUSH1 0x0 KECCAK256 PUSH1 0x0 DUP3 DUP3 SLOAD PUSH2 0x3576 SWAP2 SWAP1 PUSH2 0x4AA8 JUMP JUMPDEST SWAP3 POP POP DUP2 SWAP1 SSTORE POP DUP2 PUSH1 0x67 PUSH1 0x0 DUP4 DUP2 MSTORE PUSH1 0x20 ADD SWAP1 DUP2 MSTORE PUSH1 0x20 ADD PUSH1 0x0 KECCAK256 PUSH1 0x0 PUSH2 0x100 EXP DUP2 SLOAD DUP2 PUSH20 0xFFFFFFFFFFFFFFFFFFFFFFFFFFFFFFFFFFFFFFFF MUL NOT AND SWAP1 DUP4 PUSH20 0xFFFFFFFFFFFFFFFFFFFFFFFFFFFFFFFFFFFFFFFF AND MUL OR SWAP1 SSTORE POP DUP1 DUP3 PUSH20 0xFFFFFFFFFFFFFFFFFFFFFFFFFFFFFFFFFFFFFFFF AND PUSH1 0x0 PUSH20 0xFFFFFFFFFFFFFFFFFFFFFFFFFFFFFFFFFFFFFFFF AND PUSH32 0xDDF252AD1BE2C89B69C2B068FC378DAA952BA7F163C4A11628F55A4DF523B3EF PUSH1 0x40 MLOAD PUSH1 0x40 MLOAD DUP1 SWAP2 SUB SWAP1 LOG4 POP POP JUMP JUMPDEST PUSH1 0x0 PUSH1 0x1 SWAP1 SLOAD SWAP1 PUSH2 0x100 EXP SWAP1 DIV PUSH1 0xFF AND DUP1 PUSH2 0x3655 JUMPI POP PUSH1 0x0 DUP1 SLOAD SWAP1 PUSH2 0x100 EXP SWAP1 DIV PUSH1 0xFF AND ISZERO JUMPDEST PUSH2 0x3694 JUMPI PUSH1 0x40 MLOAD PUSH32 0x8C379A000000000000000000000000000000000000000000000000000000000 DUP2 MSTORE PUSH1 0x4 ADD PUSH2 0x368B SWAP1 PUSH2 0x481B JUMP JUMPDEST PUSH1 0x40 MLOAD DUP1 SWAP2 SUB SWAP1 REVERT JUMPDEST PUSH1 0x0 DUP1 PUSH1 0x1 SWAP1 SLOAD SWAP1 PUSH2 0x100 EXP SWAP1 DIV PUSH1 0xFF AND ISZERO SWAP1 POP DUP1 ISZERO PUSH2 0x36E4 JUMPI PUSH1 0x1 PUSH1 0x0 PUSH1 0x1 PUSH2 0x100 EXP DUP2 SLOAD DUP2 PUSH1 0xFF MUL NOT AND SWAP1 DUP4 ISZERO ISZERO MUL OR SWAP1 SSTORE POP PUSH1 0x1 PUSH1 0x0 DUP1 PUSH2 0x100 EXP DUP2 SLOAD DUP2 PUSH1 0xFF MUL NOT AND SWAP1 DUP4 ISZERO ISZERO MUL OR SWAP1 SSTORE POP JUMPDEST DUP1 ISZERO PUSH2 0x3705 JUMPI PUSH1 0x0 DUP1 PUSH1 0x1 PUSH2 0x100 EXP DUP2 SLOAD DUP2 PUSH1 0xFF MUL NOT AND SWAP1 DUP4 ISZERO ISZERO MUL OR SWAP1 SSTORE POP JUMPDEST POP JUMP JUMPDEST PUSH1 0x0 PUSH1 0x1 SWAP1 SLOAD SWAP1 PUSH2 0x100 EXP SWAP1 DIV PUSH1 0xFF AND DUP1 PUSH2 0x372E JUMPI POP PUSH1 0x0 DUP1 SLOAD SWAP1 PUSH2 0x100 EXP SWAP1 DIV PUSH1 0xFF AND ISZERO JUMPDEST PUSH2 0x376D JUMPI PUSH1 0x40 MLOAD PUSH32 0x8C379A000000000000000000000000000000000000000000000000000000000 DUP2 MSTORE PUSH1 0x4 ADD PUSH2 0x3764 SWAP1 PUSH2 0x481B JUMP JUMPDEST PUSH1 0x40 MLOAD DUP1 SWAP2 SUB SWAP1 REVERT JUMPDEST PUSH1 0x0 DUP1 PUSH1 0x1 SWAP1 SLOAD SWAP1 PUSH2 0x100 EXP SWAP1 DIV PUSH1 0xFF AND ISZERO SWAP1 POP DUP1 ISZERO PUSH2 0x37BD JUMPI PUSH1 0x1 PUSH1 0x0 PUSH1 0x1 PUSH2 0x100 EXP DUP2 SLOAD DUP2 PUSH1 0xFF MUL NOT AND SWAP1 DUP4 ISZERO ISZERO MUL OR SWAP1 SSTORE POP PUSH1 0x1 PUSH1 0x0 DUP1 PUSH2 0x100 EXP DUP2 SLOAD DUP2 PUSH1 0xFF MUL NOT AND SWAP1 DUP4 ISZERO ISZERO MUL OR SWAP1 SSTORE POP JUMPDEST DUP1 ISZERO PUSH2 0x37DE JUMPI PUSH1 0x0 DUP1 PUSH1 0x1 PUSH2 0x100 EXP DUP2 SLOAD DUP2 PUSH1 0xFF MUL NOT AND SWAP1 DUP4 ISZERO ISZERO MUL OR SWAP1 SSTORE POP JUMPDEST POP JUMP JUMPDEST PUSH1 0x0 PUSH1 0x1 SWAP1 SLOAD SWAP1 PUSH2 0x100 EXP SWAP1 DIV PUSH1 0xFF AND DUP1 PUSH2 0x3807 JUMPI POP PUSH1 0x0 DUP1 SLOAD SWAP1 PUSH2 0x100 EXP SWAP1 DIV PUSH1 0xFF AND ISZERO JUMPDEST PUSH2 0x3846 JUMPI PUSH1 0x40 MLOAD PUSH32 0x8C379A000000000000000000000000000000000000000000000000000000000 DUP2 MSTORE PUSH1 0x4 ADD PUSH2 0x383D SWAP1 PUSH2 0x481B JUMP JUMPDEST PUSH1 0x40 MLOAD DUP1 SWAP2 SUB SWAP1 REVERT JUMPDEST PUSH1 0x0 DUP1 PUSH1 0x1 SWAP1 SLOAD SWAP1 PUSH2 0x100 EXP SWAP1 DIV PUSH1 0xFF AND ISZERO SWAP1 POP DUP1 ISZERO PUSH2 0x3896 JUMPI PUSH1 0x1 PUSH1 0x0 PUSH1 0x1 PUSH2 0x100 EXP DUP2 SLOAD DUP2 PUSH1 0xFF MUL NOT AND SWAP1 DUP4 ISZERO ISZERO MUL OR SWAP1 SSTORE POP PUSH1 0x1 PUSH1 0x0 DUP1 PUSH2 0x100 EXP DUP2 SLOAD DUP2 PUSH1 0xFF MUL NOT AND SWAP1 DUP4 ISZERO ISZERO MUL OR SWAP1 SSTORE POP JUMPDEST DUP3 PUSH1 0x65 SWAP1 DUP1 MLOAD SWAP1 PUSH1 0x20 ADD SWAP1 PUSH2 0x38AC SWAP3 SWAP2 SWAP1 PUSH2 0x3A94 JUMP JUMPDEST POP DUP2 PUSH1 0x66 SWAP1 DUP1 MLOAD SWAP1 PUSH1 0x20 ADD SWAP1 PUSH2 0x38C3 SWAP3 SWAP2 SWAP1 PUSH2 0x3A94 JUMP JUMPDEST POP DUP1 ISZERO PUSH2 0x38E5 JUMPI PUSH1 0x0 DUP1 PUSH1 0x1 PUSH2 0x100 EXP DUP2 SLOAD DUP2 PUSH1 0xFF MUL NOT AND SWAP1 DUP4 ISZERO ISZERO MUL OR SWAP1 SSTORE POP JUMPDEST POP POP POP JUMP JUMPDEST PUSH1 0x0 PUSH2 0x390B DUP5 PUSH20 0xFFFFFFFFFFFFFFFFFFFFFFFFFFFFFFFFFFFFFFFF AND PUSH2 0x3A81 JUMP JUMPDEST ISZERO PUSH2 0x3A74 JUMPI DUP4 PUSH20 0xFFFFFFFFFFFFFFFFFFFFFFFFFFFFFFFFFFFFFFFF AND PUSH4 0x150B7A02 PUSH2 0x3934 PUSH2 0x2972 JUMP JUMPDEST DUP8 DUP7 DUP7 PUSH1 0x40 MLOAD DUP6 PUSH4 0xFFFFFFFF AND PUSH1 0xE0 SHL DUP2 MSTORE PUSH1 0x4 ADD PUSH2 0x3956 SWAP5 SWAP4 SWAP3 SWAP2 SWAP1 PUSH2 0x4570 JUMP JUMPDEST PUSH1 0x20 PUSH1 0x40 MLOAD DUP1 DUP4 SUB DUP2 PUSH1 0x0 DUP8 DUP1 EXTCODESIZE ISZERO DUP1 ISZERO PUSH2 0x3970 JUMPI PUSH1 0x0 DUP1 REVERT JUMPDEST POP GAS CALL SWAP3 POP POP POP DUP1 ISZERO PUSH2 0x39A1 JUMPI POP PUSH1 0x40 MLOAD RETURNDATASIZE PUSH1 0x1F NOT PUSH1 0x1F DUP3 ADD AND DUP3 ADD DUP1 PUSH1 0x40 MSTORE POP DUP2 ADD SWAP1 PUSH2 0x399E SWAP2 SWAP1 PUSH2 0x3DD8 JUMP JUMPDEST PUSH1 0x1 JUMPDEST PUSH2 0x3A24 JUMPI RETURNDATASIZE DUP1 PUSH1 0x0 DUP2 EQ PUSH2 0x39D1 JUMPI PUSH1 0x40 MLOAD SWAP2 POP PUSH1 0x1F NOT PUSH1 0x3F RETURNDATASIZE ADD AND DUP3 ADD PUSH1 0x40 MSTORE RETURNDATASIZE DUP3 MSTORE RETURNDATASIZE PUSH1 0x0 PUSH1 0x20 DUP5 ADD RETURNDATACOPY PUSH2 0x39D6 JUMP JUMPDEST PUSH1 0x60 SWAP2 POP JUMPDEST POP PUSH1 0x0 DUP2 MLOAD EQ ISZERO PUSH2 0x3A1C JUMPI PUSH1 0x40 MLOAD PUSH32 0x8C379A000000000000000000000000000000000000000000000000000000000 DUP2 MSTORE PUSH1 0x4 ADD PUSH2 0x3A13 SWAP1 PUSH2 0x465B JUMP JUMPDEST PUSH1 0x40 MLOAD DUP1 SWAP2 SUB SWAP1 REVERT JUMPDEST DUP1 MLOAD DUP2 PUSH1 0x20 ADD REVERT JUMPDEST PUSH4 0x150B7A02 PUSH1 0xE0 SHL PUSH28 0xFFFFFFFFFFFFFFFFFFFFFFFFFFFFFFFFFFFFFFFFFFFFFFFFFFFFFFFF NOT AND DUP2 PUSH28 0xFFFFFFFFFFFFFFFFFFFFFFFFFFFFFFFFFFFFFFFFFFFFFFFFFFFFFFFF NOT AND EQ SWAP2 POP POP PUSH2 0x3A79 JUMP JUMPDEST PUSH1 0x1 SWAP1 POP JUMPDEST SWAP5 SWAP4 POP POP POP POP JUMP JUMPDEST PUSH1 0x0 DUP1 DUP3 EXTCODESIZE SWAP1 POP PUSH1 0x0 DUP2 GT SWAP2 POP POP SWAP2 SWAP1 POP JUMP JUMPDEST DUP3 DUP1 SLOAD PUSH2 0x3AA0 SWAP1 PUSH2 0x4C73 JUMP JUMPDEST SWAP1 PUSH1 0x0 MSTORE PUSH1 0x20 PUSH1 0x0 KECCAK256 SWAP1 PUSH1 0x1F ADD PUSH1 0x20 SWAP1 DIV DUP2 ADD SWAP3 DUP3 PUSH2 0x3AC2 JUMPI PUSH1 0x0 DUP6 SSTORE PUSH2 0x3B09 JUMP JUMPDEST DUP3 PUSH1 0x1F LT PUSH2 0x3ADB JUMPI DUP1 MLOAD PUSH1 0xFF NOT AND DUP4 DUP1 ADD OR DUP6 SSTORE PUSH2 0x3B09 JUMP JUMPDEST DUP3 DUP1 ADD PUSH1 0x1 ADD DUP6 SSTORE DUP3 ISZERO PUSH2 0x3B09 JUMPI SWAP2 DUP3 ADD JUMPDEST DUP3 DUP2 GT ISZERO PUSH2 0x3B08 JUMPI DUP3 MLOAD DUP3 SSTORE SWAP2 PUSH1 0x20 ADD SWAP2 SWAP1 PUSH1 0x1 ADD SWAP1 PUSH2 0x3AED JUMP JUMPDEST JUMPDEST POP SWAP1 POP PUSH2 0x3B16 SWAP2 SWAP1 PUSH2 0x3B1A JUMP JUMPDEST POP SWAP1 JUMP JUMPDEST JUMPDEST DUP1 DUP3 GT ISZERO PUSH2 0x3B33 JUMPI PUSH1 0x0 DUP2 PUSH1 0x0 SWAP1 SSTORE POP PUSH1 0x1 ADD PUSH2 0x3B1B JUMP JUMPDEST POP SWAP1 JUMP JUMPDEST PUSH1 0x0 PUSH2 0x3B4A PUSH2 0x3B45 DUP5 PUSH2 0x49FB JUMP JUMPDEST PUSH2 0x49D6 JUMP JUMPDEST SWAP1 POP DUP3 DUP2 MSTORE PUSH1 0x20 DUP2 ADD DUP5 DUP5 DUP5 ADD GT ISZERO PUSH2 0x3B62 JUMPI PUSH1 0x0 DUP1 REVERT JUMPDEST PUSH2 0x3B6D DUP5 DUP3 DUP6 PUSH2 0x4C31 JUMP JUMPDEST POP SWAP4 SWAP3 POP POP POP JUMP JUMPDEST PUSH1 0x0 DUP2 CALLDATALOAD SWAP1 POP PUSH2 0x3B84 DUP2 PUSH2 0x550B JUMP JUMPDEST SWAP3 SWAP2 POP POP JUMP JUMPDEST PUSH1 0x0 DUP2 CALLDATALOAD SWAP1 POP PUSH2 0x3B99 DUP2 PUSH2 0x5522 JUMP JUMPDEST SWAP3 SWAP2 POP POP JUMP JUMPDEST PUSH1 0x0 DUP2 CALLDATALOAD SWAP1 POP PUSH2 0x3BAE DUP2 PUSH2 0x5539 JUMP JUMPDEST SWAP3 SWAP2 POP POP JUMP JUMPDEST PUSH1 0x0 DUP2 MLOAD SWAP1 POP PUSH2 0x3BC3 DUP2 PUSH2 0x5539 JUMP JUMPDEST SWAP3 SWAP2 POP POP JUMP JUMPDEST PUSH1 0x0 DUP3 PUSH1 0x1F DUP4 ADD SLT PUSH2 0x3BDA JUMPI PUSH1 0x0 DUP1 REVERT JUMPDEST DUP2 CALLDATALOAD PUSH2 0x3BEA DUP5 DUP3 PUSH1 0x20 DUP7 ADD PUSH2 0x3B37 JUMP JUMPDEST SWAP2 POP POP SWAP3 SWAP2 POP POP JUMP JUMPDEST PUSH1 0x0 DUP2 CALLDATALOAD SWAP1 POP PUSH2 0x3C02 DUP2 PUSH2 0x5550 JUMP JUMPDEST SWAP3 SWAP2 POP POP JUMP JUMPDEST PUSH1 0x0 PUSH1 0x20 DUP3 DUP5 SUB SLT ISZERO PUSH2 0x3C1A JUMPI PUSH1 0x0 DUP1 REVERT JUMPDEST PUSH1 0x0 PUSH2 0x3C28 DUP5 DUP3 DUP6 ADD PUSH2 0x3B75 JUMP JUMPDEST SWAP2 POP POP SWAP3 SWAP2 POP POP JUMP JUMPDEST PUSH1 0x0 DUP1 PUSH1 0x40 DUP4 DUP6 SUB SLT ISZERO PUSH2 0x3C44 JUMPI PUSH1 0x0 DUP1 REVERT JUMPDEST PUSH1 0x0 PUSH2 0x3C52 DUP6 DUP3 DUP7 ADD PUSH2 0x3B75 JUMP JUMPDEST SWAP3 POP POP PUSH1 0x20 PUSH2 0x3C63 DUP6 DUP3 DUP7 ADD PUSH2 0x3B75 JUMP JUMPDEST SWAP2 POP POP SWAP3 POP SWAP3 SWAP1 POP JUMP JUMPDEST PUSH1 0x0 DUP1 PUSH1 0x0 PUSH1 0x60 DUP5 DUP7 SUB SLT ISZERO PUSH2 0x3C82 JUMPI PUSH1 0x0 DUP1 REVERT JUMPDEST PUSH1 0x0 PUSH2 0x3C90 DUP7 DUP3 DUP8 ADD PUSH2 0x3B75 JUMP JUMPDEST SWAP4 POP POP PUSH1 0x20 PUSH2 0x3CA1 DUP7 DUP3 DUP8 ADD PUSH2 0x3B75 JUMP JUMPDEST SWAP3 POP POP PUSH1 0x40 PUSH2 0x3CB2 DUP7 DUP3 DUP8 ADD PUSH2 0x3BF3 JUMP JUMPDEST SWAP2 POP POP SWAP3 POP SWAP3 POP SWAP3 JUMP JUMPDEST PUSH1 0x0 DUP1 PUSH1 0x0 DUP1 PUSH1 0x80 DUP6 DUP8 SUB SLT ISZERO PUSH2 0x3CD2 JUMPI PUSH1 0x0 DUP1 REVERT JUMPDEST PUSH1 0x0 PUSH2 0x3CE0 DUP8 DUP3 DUP9 ADD PUSH2 0x3B75 JUMP JUMPDEST SWAP5 POP POP PUSH1 0x20 PUSH2 0x3CF1 DUP8 DUP3 DUP9 ADD PUSH2 0x3B75 JUMP JUMPDEST SWAP4 POP POP PUSH1 0x40 PUSH2 0x3D02 DUP8 DUP3 DUP9 ADD PUSH2 0x3BF3 JUMP JUMPDEST SWAP3 POP POP PUSH1 0x60 DUP6 ADD CALLDATALOAD PUSH8 0xFFFFFFFFFFFFFFFF DUP2 GT ISZERO PUSH2 0x3D1F JUMPI PUSH1 0x0 DUP1 REVERT JUMPDEST PUSH2 0x3D2B DUP8 DUP3 DUP9 ADD PUSH2 0x3BC9 JUMP JUMPDEST SWAP2 POP POP SWAP3 SWAP6 SWAP2 SWAP5 POP SWAP3 POP JUMP JUMPDEST PUSH1 0x0 DUP1 PUSH1 0x40 DUP4 DUP6 SUB SLT ISZERO PUSH2 0x3D4A JUMPI PUSH1 0x0 DUP1 REVERT JUMPDEST PUSH1 0x0 PUSH2 0x3D58 DUP6 DUP3 DUP7 ADD PUSH2 0x3B75 JUMP JUMPDEST SWAP3 POP POP PUSH1 0x20 PUSH2 0x3D69 DUP6 DUP3 DUP7 ADD PUSH2 0x3B8A JUMP JUMPDEST SWAP2 POP POP SWAP3 POP SWAP3 SWAP1 POP JUMP JUMPDEST PUSH1 0x0 DUP1 PUSH1 0x40 DUP4 DUP6 SUB SLT ISZERO PUSH2 0x3D86 JUMPI PUSH1 0x0 DUP1 REVERT JUMPDEST PUSH1 0x0 PUSH2 0x3D94 DUP6 DUP3 DUP7 ADD PUSH2 0x3B75 JUMP JUMPDEST SWAP3 POP POP PUSH1 0x20 PUSH2 0x3DA5 DUP6 DUP3 DUP7 ADD PUSH2 0x3BF3 JUMP JUMPDEST SWAP2 POP POP SWAP3 POP SWAP3 SWAP1 POP JUMP JUMPDEST PUSH1 0x0 PUSH1 0x20 DUP3 DUP5 SUB SLT ISZERO PUSH2 0x3DC1 JUMPI PUSH1 0x0 DUP1 REVERT JUMPDEST PUSH1 0x0 PUSH2 0x3DCF DUP5 DUP3 DUP6 ADD PUSH2 0x3B9F JUMP JUMPDEST SWAP2 POP POP SWAP3 SWAP2 POP POP JUMP JUMPDEST PUSH1 0x0 PUSH1 0x20 DUP3 DUP5 SUB SLT ISZERO PUSH2 0x3DEA JUMPI PUSH1 0x0 DUP1 REVERT JUMPDEST PUSH1 0x0 PUSH2 0x3DF8 DUP5 DUP3 DUP6 ADD PUSH2 0x3BB4 JUMP JUMPDEST SWAP2 POP POP SWAP3 SWAP2 POP POP JUMP JUMPDEST PUSH1 0x0 PUSH1 0x20 DUP3 DUP5 SUB SLT ISZERO PUSH2 0x3E13 JUMPI PUSH1 0x0 DUP1 REVERT JUMPDEST PUSH1 0x0 PUSH2 0x3E21 DUP5 DUP3 DUP6 ADD PUSH2 0x3BF3 JUMP JUMPDEST SWAP2 POP POP SWAP3 SWAP2 POP POP JUMP JUMPDEST PUSH1 0x0 DUP1 PUSH1 0x40 DUP4 DUP6 SUB SLT ISZERO PUSH2 0x3E3D JUMPI PUSH1 0x0 DUP1 REVERT JUMPDEST PUSH1 0x0 PUSH2 0x3E4B DUP6 DUP3 DUP7 ADD PUSH2 0x3BF3 JUMP JUMPDEST SWAP3 POP POP PUSH1 0x20 PUSH2 0x3E5C DUP6 DUP3 DUP7 ADD PUSH2 0x3B75 JUMP JUMPDEST SWAP2 POP POP SWAP3 POP SWAP3 SWAP1 POP JUMP JUMPDEST PUSH1 0x0 DUP1 PUSH1 0x0 PUSH1 0x60 DUP5 DUP7 SUB SLT ISZERO PUSH2 0x3E7B JUMPI PUSH1 0x0 DUP1 REVERT JUMPDEST PUSH1 0x0 PUSH2 0x3E89 DUP7 DUP3 DUP8 ADD PUSH2 0x3BF3 JUMP JUMPDEST SWAP4 POP POP PUSH1 0x20 PUSH2 0x3E9A DUP7 DUP3 DUP8 ADD PUSH2 0x3B75 JUMP JUMPDEST SWAP3 POP POP PUSH1 0x40 PUSH2 0x3EAB DUP7 DUP3 DUP8 ADD PUSH2 0x3BF3 JUMP JUMPDEST SWAP2 POP POP SWAP3 POP SWAP3 POP SWAP3 JUMP JUMPDEST PUSH1 0x0 DUP1 PUSH1 0x40 DUP4 DUP6 SUB SLT ISZERO PUSH2 0x3EC8 JUMPI PUSH1 0x0 DUP1 REVERT JUMPDEST PUSH1 0x0 PUSH2 0x3ED6 DUP6 DUP3 DUP7 ADD PUSH2 0x3BF3 JUMP JUMPDEST SWAP3 POP POP PUSH1 0x20 PUSH2 0x3EE7 DUP6 DUP3 DUP7 ADD PUSH2 0x3B8A JUMP JUMPDEST SWAP2 POP POP SWAP3 POP SWAP3 SWAP1 POP JUMP JUMPDEST PUSH1 0x0 DUP1 PUSH1 0x40 DUP4 DUP6 SUB SLT ISZERO PUSH2 0x3F04 JUMPI PUSH1 0x0 DUP1 REVERT JUMPDEST PUSH1 0x0 PUSH2 0x3F12 DUP6 DUP3 DUP7 ADD PUSH2 0x3BF3 JUMP JUMPDEST SWAP3 POP POP PUSH1 0x20 PUSH2 0x3F23 DUP6 DUP3 DUP7 ADD PUSH2 0x3BF3 JUMP JUMPDEST SWAP2 POP POP SWAP3 POP SWAP3 SWAP1 POP JUMP JUMPDEST PUSH1 0x0 DUP1 PUSH1 0x0 DUP1 PUSH1 0x0 PUSH1 0xA0 DUP7 DUP9 SUB SLT ISZERO PUSH2 0x3F45 JUMPI PUSH1 0x0 DUP1 REVERT JUMPDEST PUSH1 0x0 PUSH2 0x3F53 DUP9 DUP3 DUP10 ADD PUSH2 0x3BF3 JUMP JUMPDEST SWAP6 POP POP PUSH1 0x20 PUSH2 0x3F64 DUP9 DUP3 DUP10 ADD PUSH2 0x3BF3 JUMP JUMPDEST SWAP5 POP POP PUSH1 0x40 PUSH2 0x3F75 DUP9 DUP3 DUP10 ADD PUSH2 0x3BF3 JUMP JUMPDEST SWAP4 POP POP PUSH1 0x60 PUSH2 0x3F86 DUP9 DUP3 DUP10 ADD PUSH2 0x3BF3 JUMP JUMPDEST SWAP3 POP POP PUSH1 0x80 PUSH2 0x3F97 DUP9 DUP3 DUP10 ADD PUSH2 0x3BF3 JUMP JUMPDEST SWAP2 POP POP SWAP3 SWAP6 POP SWAP3 SWAP6 SWAP1 SWAP4 POP JUMP JUMPDEST PUSH1 0x0 PUSH2 0x3FB0 DUP4 DUP4 PUSH2 0x44A3 JUMP JUMPDEST PUSH1 0x20 DUP4 ADD SWAP1 POP SWAP3 SWAP2 POP POP JUMP JUMPDEST PUSH2 0x3FC5 DUP2 PUSH2 0x4BBD JUMP JUMPDEST DUP3 MSTORE POP POP JUMP JUMPDEST PUSH2 0x3FDC PUSH2 0x3FD7 DUP3 PUSH2 0x4BBD JUMP JUMPDEST PUSH2 0x4D1F JUMP JUMPDEST DUP3 MSTORE POP POP JUMP JUMPDEST PUSH1 0x0 PUSH2 0x3FED DUP3 PUSH2 0x4A3C JUMP JUMPDEST PUSH2 0x3FF7 DUP2 DUP6 PUSH2 0x4A6A JUMP JUMPDEST SWAP4 POP PUSH2 0x4002 DUP4 PUSH2 0x4A2C JUMP JUMPDEST DUP1 PUSH1 0x0 JUMPDEST DUP4 DUP2 LT ISZERO PUSH2 0x4033 JUMPI DUP2 MLOAD PUSH2 0x401A DUP9 DUP3 PUSH2 0x3FA4 JUMP JUMPDEST SWAP8 POP PUSH2 0x4025 DUP4 PUSH2 0x4A5D JUMP JUMPDEST SWAP3 POP POP PUSH1 0x1 DUP2 ADD SWAP1 POP PUSH2 0x4006 JUMP JUMPDEST POP DUP6 SWAP4 POP POP POP POP SWAP3 SWAP2 POP POP JUMP JUMPDEST PUSH2 0x4049 DUP2 PUSH2 0x4BCF JUMP JUMPDEST DUP3 MSTORE POP POP JUMP JUMPDEST PUSH1 0x0 PUSH2 0x405A DUP3 PUSH2 0x4A47 JUMP JUMPDEST PUSH2 0x4064 DUP2 DUP6 PUSH2 0x4A7B JUMP JUMPDEST SWAP4 POP PUSH2 0x4074 DUP2 DUP6 PUSH1 0x20 DUP7 ADD PUSH2 0x4C40 JUMP JUMPDEST PUSH2 0x407D DUP2 PUSH2 0x4E3A JUMP JUMPDEST DUP5 ADD SWAP2 POP POP SWAP3 SWAP2 POP POP JUMP JUMPDEST PUSH1 0x0 PUSH2 0x4093 DUP3 PUSH2 0x4A52 JUMP JUMPDEST PUSH2 0x409D DUP2 DUP6 PUSH2 0x4A8C JUMP JUMPDEST SWAP4 POP PUSH2 0x40AD DUP2 DUP6 PUSH1 0x20 DUP7 ADD PUSH2 0x4C40 JUMP JUMPDEST PUSH2 0x40B6 DUP2 PUSH2 0x4E3A JUMP JUMPDEST DUP5 ADD SWAP2 POP POP SWAP3 SWAP2 POP POP JUMP JUMPDEST PUSH1 0x0 PUSH2 0x40CC DUP3 PUSH2 0x4A52 JUMP JUMPDEST PUSH2 0x40D6 DUP2 DUP6 PUSH2 0x4A9D JUMP JUMPDEST SWAP4 POP PUSH2 0x40E6 DUP2 DUP6 PUSH1 0x20 DUP7 ADD PUSH2 0x4C40 JUMP JUMPDEST DUP1 DUP5 ADD SWAP2 POP POP SWAP3 SWAP2 POP POP JUMP JUMPDEST PUSH1 0x0 PUSH2 0x40FF PUSH1 0x18 DUP4 PUSH2 0x4A8C JUMP JUMPDEST SWAP2 POP PUSH2 0x410A DUP3 PUSH2 0x4E58 JUMP JUMPDEST PUSH1 0x20 DUP3 ADD SWAP1 POP SWAP2 SWAP1 POP JUMP JUMPDEST PUSH1 0x0 PUSH2 0x4122 PUSH1 0x17 DUP4 PUSH2 0x4A8C JUMP JUMPDEST SWAP2 POP PUSH2 0x412D DUP3 PUSH2 0x4E81 JUMP JUMPDEST PUSH1 0x20 DUP3 ADD SWAP1 POP SWAP2 SWAP1 POP JUMP JUMPDEST PUSH1 0x0 PUSH2 0x4145 PUSH1 0x8 DUP4 PUSH2 0x4A9D JUMP JUMPDEST SWAP2 POP PUSH2 0x4150 DUP3 PUSH2 0x4EAA JUMP JUMPDEST PUSH1 0x8 DUP3 ADD SWAP1 POP SWAP2 SWAP1 POP JUMP JUMPDEST PUSH1 0x0 PUSH2 0x4168 PUSH1 0x32 DUP4 PUSH2 0x4A8C JUMP JUMPDEST SWAP2 POP PUSH2 0x4173 DUP3 PUSH2 0x4ED3 JUMP JUMPDEST PUSH1 0x40 DUP3 ADD SWAP1 POP SWAP2 SWAP1 POP JUMP JUMPDEST PUSH1 0x0 PUSH2 0x418B PUSH1 0x1A DUP4 PUSH2 0x4A8C JUMP JUMPDEST SWAP2 POP PUSH2 0x4196 DUP3 PUSH2 0x4F22 JUMP JUMPDEST PUSH1 0x20 DUP3 ADD SWAP1 POP SWAP2 SWAP1 POP JUMP JUMPDEST PUSH1 0x0 PUSH2 0x41AE PUSH1 0x1C DUP4 PUSH2 0x4A8C JUMP JUMPDEST SWAP2 POP PUSH2 0x41B9 DUP3 PUSH2 0x4F4B JUMP JUMPDEST PUSH1 0x20 DUP3 ADD SWAP1 POP SWAP2 SWAP1 POP JUMP JUMPDEST PUSH1 0x0 PUSH2 0x41D1 PUSH1 0x25 DUP4 PUSH2 0x4A8C JUMP JUMPDEST SWAP2 POP PUSH2 0x41DC DUP3 PUSH2 0x4F74 JUMP JUMPDEST PUSH1 0x40 DUP3 ADD SWAP1 POP SWAP2 SWAP1 POP JUMP JUMPDEST PUSH1 0x0 PUSH2 0x41F4 PUSH1 0x24 DUP4 PUSH2 0x4A8C JUMP JUMPDEST SWAP2 POP PUSH2 0x41FF DUP3 PUSH2 0x4FC3 JUMP JUMPDEST PUSH1 0x40 DUP3 ADD SWAP1 POP SWAP2 SWAP1 POP JUMP JUMPDEST PUSH1 0x0 PUSH2 0x4217 PUSH1 0x19 DUP4 PUSH2 0x4A8C JUMP JUMPDEST SWAP2 POP PUSH2 0x4222 DUP3 PUSH2 0x5012 JUMP JUMPDEST PUSH1 0x20 DUP3 ADD SWAP1 POP SWAP2 SWAP1 POP JUMP JUMPDEST PUSH1 0x0 PUSH2 0x423A PUSH1 0x10 DUP4 PUSH2 0x4A8C JUMP JUMPDEST SWAP2 POP PUSH2 0x4245 DUP3 PUSH2 0x503B JUMP JUMPDEST PUSH1 0x20 DUP3 ADD SWAP1 POP SWAP2 SWAP1 POP JUMP JUMPDEST PUSH1 0x0 PUSH2 0x425D PUSH1 0x2C DUP4 PUSH2 0x4A8C JUMP JUMPDEST SWAP2 POP PUSH2 0x4268 DUP3 PUSH2 0x5064 JUMP JUMPDEST PUSH1 0x40 DUP3 ADD SWAP1 POP SWAP2 SWAP1 POP JUMP JUMPDEST PUSH1 0x0 PUSH2 0x4280 PUSH1 0x2F DUP4 PUSH2 0x4A8C JUMP JUMPDEST SWAP2 POP PUSH2 0x428B DUP3 PUSH2 0x50B3 JUMP JUMPDEST PUSH1 0x40 DUP3 ADD SWAP1 POP SWAP2 SWAP1 POP JUMP JUMPDEST PUSH1 0x0 PUSH2 0x42A3 PUSH1 0x1B DUP4 PUSH2 0x4A8C JUMP JUMPDEST SWAP2 POP PUSH2 0x42AE DUP3 PUSH2 0x5102 JUMP JUMPDEST PUSH1 0x20 DUP3 ADD SWAP1 POP SWAP2 SWAP1 POP JUMP JUMPDEST PUSH1 0x0 PUSH2 0x42C6 PUSH1 0x22 DUP4 PUSH2 0x4A8C JUMP JUMPDEST SWAP2 POP PUSH2 0x42D1 DUP3 PUSH2 0x512B JUMP JUMPDEST PUSH1 0x40 DUP3 ADD SWAP1 POP SWAP2 SWAP1 POP JUMP JUMPDEST PUSH1 0x0 PUSH2 0x42E9 PUSH1 0x38 DUP4 PUSH2 0x4A8C JUMP JUMPDEST SWAP2 POP PUSH2 0x42F4 DUP3 PUSH2 0x517A JUMP JUMPDEST PUSH1 0x40 DUP3 ADD SWAP1 POP SWAP2 SWAP1 POP JUMP JUMPDEST PUSH1 0x0 PUSH2 0x430C PUSH1 0x2A DUP4 PUSH2 0x4A8C JUMP JUMPDEST SWAP2 POP PUSH2 0x4317 DUP3 PUSH2 0x51C9 JUMP JUMPDEST PUSH1 0x40 DUP3 ADD SWAP1 POP SWAP2 SWAP1 POP JUMP JUMPDEST PUSH1 0x0 PUSH2 0x432F PUSH1 0x29 DUP4 PUSH2 0x4A8C JUMP JUMPDEST SWAP2 POP PUSH2 0x433A DUP3 PUSH2 0x5218 JUMP JUMPDEST PUSH1 0x40 DUP3 ADD SWAP1 POP SWAP2 SWAP1 POP JUMP JUMPDEST PUSH1 0x0 PUSH2 0x4352 PUSH1 0x2E DUP4 PUSH2 0x4A8C JUMP JUMPDEST SWAP2 POP PUSH2 0x435D DUP3 PUSH2 0x5267 JUMP JUMPDEST PUSH1 0x40 DUP3 ADD SWAP1 POP SWAP2 SWAP1 POP JUMP JUMPDEST PUSH1 0x0 PUSH2 0x4375 PUSH1 0x10 DUP4 PUSH2 0x4A8C JUMP JUMPDEST SWAP2 POP PUSH2 0x4380 DUP3 PUSH2 0x52B6 JUMP JUMPDEST PUSH1 0x20 DUP3 ADD SWAP1 POP SWAP2 SWAP1 POP JUMP JUMPDEST PUSH1 0x0 PUSH2 0x4398 PUSH1 0x22 DUP4 PUSH2 0x4A8C JUMP JUMPDEST SWAP2 POP PUSH2 0x43A3 DUP3 PUSH2 0x52DF JUMP JUMPDEST PUSH1 0x40 DUP3 ADD SWAP1 POP SWAP2 SWAP1 POP JUMP JUMPDEST PUSH1 0x0 PUSH2 0x43BB PUSH1 0x20 DUP4 PUSH2 0x4A8C JUMP JUMPDEST SWAP2 POP PUSH2 0x43C6 DUP3 PUSH2 0x532E JUMP JUMPDEST PUSH1 0x20 DUP3 ADD SWAP1 POP SWAP2 SWAP1 POP JUMP JUMPDEST PUSH1 0x0 PUSH2 0x43DE PUSH1 0x2C DUP4 PUSH2 0x4A8C JUMP JUMPDEST SWAP2 POP PUSH2 0x43E9 DUP3 PUSH2 0x5357 JUMP JUMPDEST PUSH1 0x40 DUP3 ADD SWAP1 POP SWAP2 SWAP1 POP JUMP JUMPDEST PUSH1 0x0 PUSH2 0x4401 PUSH1 0x29 DUP4 PUSH2 0x4A8C JUMP JUMPDEST SWAP2 POP PUSH2 0x440C DUP3 PUSH2 0x53A6 JUMP JUMPDEST PUSH1 0x40 DUP3 ADD SWAP1 POP SWAP2 SWAP1 POP JUMP JUMPDEST PUSH1 0x0 PUSH2 0x4424 PUSH1 0x2F DUP4 PUSH2 0x4A8C JUMP JUMPDEST SWAP2 POP PUSH2 0x442F DUP3 PUSH2 0x53F5 JUMP JUMPDEST PUSH1 0x40 DUP3 ADD SWAP1 POP SWAP2 SWAP1 POP JUMP JUMPDEST PUSH1 0x0 PUSH2 0x4447 PUSH1 0x13 DUP4 PUSH2 0x4A8C JUMP JUMPDEST SWAP2 POP PUSH2 0x4452 DUP3 PUSH2 0x5444 JUMP JUMPDEST PUSH1 0x20 DUP3 ADD SWAP1 POP SWAP2 SWAP1 POP JUMP JUMPDEST PUSH1 0x0 PUSH2 0x446A PUSH1 0x21 DUP4 PUSH2 0x4A8C JUMP JUMPDEST SWAP2 POP PUSH2 0x4475 DUP3 PUSH2 0x546D JUMP JUMPDEST PUSH1 0x40 DUP3 ADD SWAP1 POP SWAP2 SWAP1 POP JUMP JUMPDEST PUSH1 0x0 PUSH2 0x448D PUSH1 0x31 DUP4 PUSH2 0x4A8C JUMP JUMPDEST SWAP2 POP PUSH2 0x4498 DUP3 PUSH2 0x54BC JUMP JUMPDEST PUSH1 0x40 DUP3 ADD SWAP1 POP SWAP2 SWAP1 POP JUMP JUMPDEST PUSH2 0x44AC DUP2 PUSH2 0x4C27 JUMP JUMPDEST DUP3 MSTORE POP POP JUMP JUMPDEST PUSH2 0x44BB DUP2 PUSH2 0x4C27 JUMP JUMPDEST DUP3 MSTORE POP POP JUMP JUMPDEST PUSH2 0x44D2 PUSH2 0x44CD DUP3 PUSH2 0x4C27 JUMP JUMPDEST PUSH2 0x4D43 JUMP JUMPDEST DUP3 MSTORE POP POP JUMP JUMPDEST PUSH1 0x0 PUSH2 0x44E4 DUP3 DUP8 PUSH2 0x3FCB JUMP JUMPDEST PUSH1 0x14 DUP3 ADD SWAP2 POP PUSH2 0x44F4 DUP3 DUP7 PUSH2 0x44C1 JUMP JUMPDEST PUSH1 0x20 DUP3 ADD SWAP2 POP PUSH2 0x4504 DUP3 DUP6 PUSH2 0x44C1 JUMP JUMPDEST PUSH1 0x20 DUP3 ADD SWAP2 POP PUSH2 0x4513 DUP3 PUSH2 0x4138 JUMP JUMPDEST SWAP2 POP PUSH2 0x451F DUP3 DUP5 PUSH2 0x44C1 JUMP JUMPDEST PUSH1 0x20 DUP3 ADD SWAP2 POP DUP2 SWAP1 POP SWAP6 SWAP5 POP POP POP POP POP JUMP JUMPDEST PUSH1 0x0 PUSH2 0x453D DUP3 DUP6 PUSH2 0x40C1 JUMP JUMPDEST SWAP2 POP PUSH2 0x4549 DUP3 DUP5 PUSH2 0x40C1 JUMP JUMPDEST SWAP2 POP DUP2 SWAP1 POP SWAP4 SWAP3 POP POP POP JUMP JUMPDEST PUSH1 0x0 PUSH1 0x20 DUP3 ADD SWAP1 POP PUSH2 0x456A PUSH1 0x0 DUP4 ADD DUP5 PUSH2 0x3FBC JUMP JUMPDEST SWAP3 SWAP2 POP POP JUMP JUMPDEST PUSH1 0x0 PUSH1 0x80 DUP3 ADD SWAP1 POP PUSH2 0x4585 PUSH1 0x0 DUP4 ADD DUP8 PUSH2 0x3FBC JUMP JUMPDEST PUSH2 0x4592 PUSH1 0x20 DUP4 ADD DUP7 PUSH2 0x3FBC JUMP JUMPDEST PUSH2 0x459F PUSH1 0x40 DUP4 ADD DUP6 PUSH2 0x44B2 JUMP JUMPDEST DUP2 DUP2 SUB PUSH1 0x60 DUP4 ADD MSTORE PUSH2 0x45B1 DUP2 DUP5 PUSH2 0x404F JUMP JUMPDEST SWAP1 POP SWAP6 SWAP5 POP POP POP POP POP JUMP JUMPDEST PUSH1 0x0 PUSH1 0x20 DUP3 ADD SWAP1 POP DUP2 DUP2 SUB PUSH1 0x0 DUP4 ADD MSTORE PUSH2 0x45D6 DUP2 DUP5 PUSH2 0x3FE2 JUMP JUMPDEST SWAP1 POP SWAP3 SWAP2 POP POP JUMP JUMPDEST PUSH1 0x0 PUSH1 0x20 DUP3 ADD SWAP1 POP PUSH2 0x45F3 PUSH1 0x0 DUP4 ADD DUP5 PUSH2 0x4040 JUMP JUMPDEST SWAP3 SWAP2 POP POP JUMP JUMPDEST PUSH1 0x0 PUSH1 0x20 DUP3 ADD SWAP1 POP DUP2 DUP2 SUB PUSH1 0x0 DUP4 ADD MSTORE PUSH2 0x4613 DUP2 DUP5 PUSH2 0x4088 JUMP JUMPDEST SWAP1 POP SWAP3 SWAP2 POP POP JUMP JUMPDEST PUSH1 0x0 PUSH1 0x20 DUP3 ADD SWAP1 POP DUP2 DUP2 SUB PUSH1 0x0 DUP4 ADD MSTORE PUSH2 0x4634 DUP2 PUSH2 0x40F2 JUMP JUMPDEST SWAP1 POP SWAP2 SWAP1 POP JUMP JUMPDEST PUSH1 0x0 PUSH1 0x20 DUP3 ADD SWAP1 POP DUP2 DUP2 SUB PUSH1 0x0 DUP4 ADD MSTORE PUSH2 0x4654 DUP2 PUSH2 0x4115 JUMP JUMPDEST SWAP1 POP SWAP2 SWAP1 POP JUMP JUMPDEST PUSH1 0x0 PUSH1 0x20 DUP3 ADD SWAP1 POP DUP2 DUP2 SUB PUSH1 0x0 DUP4 ADD MSTORE PUSH2 0x4674 DUP2 PUSH2 0x415B JUMP JUMPDEST SWAP1 POP SWAP2 SWAP1 POP JUMP JUMPDEST PUSH1 0x0 PUSH1 0x20 DUP3 ADD SWAP1 POP DUP2 DUP2 SUB PUSH1 0x0 DUP4 ADD MSTORE PUSH2 0x4694 DUP2 PUSH2 0x417E JUMP JUMPDEST SWAP1 POP SWAP2 SWAP1 POP JUMP JUMPDEST PUSH1 0x0 PUSH1 0x20 DUP3 ADD SWAP1 POP DUP2 DUP2 SUB PUSH1 0x0 DUP4 ADD MSTORE PUSH2 0x46B4 DUP2 PUSH2 0x41A1 JUMP JUMPDEST SWAP1 POP SWAP2 SWAP1 POP JUMP JUMPDEST PUSH1 0x0 PUSH1 0x20 DUP3 ADD SWAP1 POP DUP2 DUP2 SUB PUSH1 0x0 DUP4 ADD MSTORE PUSH2 0x46D4 DUP2 PUSH2 0x41C4 JUMP JUMPDEST SWAP1 POP SWAP2 SWAP1 POP JUMP JUMPDEST PUSH1 0x0 PUSH1 0x20 DUP3 ADD SWAP1 POP DUP2 DUP2 SUB PUSH1 0x0 DUP4 ADD MSTORE PUSH2 0x46F4 DUP2 PUSH2 0x41E7 JUMP JUMPDEST SWAP1 POP SWAP2 SWAP1 POP JUMP JUMPDEST PUSH1 0x0 PUSH1 0x20 DUP3 ADD SWAP1 POP DUP2 DUP2 SUB PUSH1 0x0 DUP4 ADD MSTORE PUSH2 0x4714 DUP2 PUSH2 0x420A JUMP JUMPDEST SWAP1 POP SWAP2 SWAP1 POP JUMP JUMPDEST PUSH1 0x0 PUSH1 0x20 DUP3 ADD SWAP1 POP DUP2 DUP2 SUB PUSH1 0x0 DUP4 ADD MSTORE PUSH2 0x4734 DUP2 PUSH2 0x422D JUMP JUMPDEST SWAP1 POP SWAP2 SWAP1 POP JUMP JUMPDEST PUSH1 0x0 PUSH1 0x20 DUP3 ADD SWAP1 POP DUP2 DUP2 SUB PUSH1 0x0 DUP4 ADD MSTORE PUSH2 0x4754 DUP2 PUSH2 0x4250 JUMP JUMPDEST SWAP1 POP SWAP2 SWAP1 POP JUMP JUMPDEST PUSH1 0x0 PUSH1 0x20 DUP3 ADD SWAP1 POP DUP2 DUP2 SUB PUSH1 0x0 DUP4 ADD MSTORE PUSH2 0x4774 DUP2 PUSH2 0x4273 JUMP JUMPDEST SWAP1 POP SWAP2 SWAP1 POP JUMP JUMPDEST PUSH1 0x0 PUSH1 0x20 DUP3 ADD SWAP1 POP DUP2 DUP2 SUB PUSH1 0x0 DUP4 ADD MSTORE PUSH2 0x4794 DUP2 PUSH2 0x4296 JUMP JUMPDEST SWAP1 POP SWAP2 SWAP1 POP JUMP JUMPDEST PUSH1 0x0 PUSH1 0x20 DUP3 ADD SWAP1 POP DUP2 DUP2 SUB PUSH1 0x0 DUP4 ADD MSTORE PUSH2 0x47B4 DUP2 PUSH2 0x42B9 JUMP JUMPDEST SWAP1 POP SWAP2 SWAP1 POP JUMP JUMPDEST PUSH1 0x0 PUSH1 0x20 DUP3 ADD SWAP1 POP DUP2 DUP2 SUB PUSH1 0x0 DUP4 ADD MSTORE PUSH2 0x47D4 DUP2 PUSH2 0x42DC JUMP JUMPDEST SWAP1 POP SWAP2 SWAP1 POP JUMP JUMPDEST PUSH1 0x0 PUSH1 0x20 DUP3 ADD SWAP1 POP DUP2 DUP2 SUB PUSH1 0x0 DUP4 ADD MSTORE PUSH2 0x47F4 DUP2 PUSH2 0x42FF JUMP JUMPDEST SWAP1 POP SWAP2 SWAP1 POP JUMP JUMPDEST PUSH1 0x0 PUSH1 0x20 DUP3 ADD SWAP1 POP DUP2 DUP2 SUB PUSH1 0x0 DUP4 ADD MSTORE PUSH2 0x4814 DUP2 PUSH2 0x4322 JUMP JUMPDEST SWAP1 POP SWAP2 SWAP1 POP JUMP JUMPDEST PUSH1 0x0 PUSH1 0x20 DUP3 ADD SWAP1 POP DUP2 DUP2 SUB PUSH1 0x0 DUP4 ADD MSTORE PUSH2 0x4834 DUP2 PUSH2 0x4345 JUMP JUMPDEST SWAP1 POP SWAP2 SWAP1 POP JUMP JUMPDEST PUSH1 0x0 PUSH1 0x20 DUP3 ADD SWAP1 POP DUP2 DUP2 SUB PUSH1 0x0 DUP4 ADD MSTORE PUSH2 0x4854 DUP2 PUSH2 0x4368 JUMP JUMPDEST SWAP1 POP SWAP2 SWAP1 POP JUMP JUMPDEST PUSH1 0x0 PUSH1 0x20 DUP3 ADD SWAP1 POP DUP2 DUP2 SUB PUSH1 0x0 DUP4 ADD MSTORE PUSH2 0x4874 DUP2 PUSH2 0x438B JUMP JUMPDEST SWAP1 POP SWAP2 SWAP1 POP JUMP JUMPDEST PUSH1 0x0 PUSH1 0x20 DUP3 ADD SWAP1 POP DUP2 DUP2 SUB PUSH1 0x0 DUP4 ADD MSTORE PUSH2 0x4894 DUP2 PUSH2 0x43AE JUMP JUMPDEST SWAP1 POP SWAP2 SWAP1 POP JUMP JUMPDEST PUSH1 0x0 PUSH1 0x20 DUP3 ADD SWAP1 POP DUP2 DUP2 SUB PUSH1 0x0 DUP4 ADD MSTORE PUSH2 0x48B4 DUP2 PUSH2 0x43D1 JUMP JUMPDEST SWAP1 POP SWAP2 SWAP1 POP JUMP JUMPDEST PUSH1 0x0 PUSH1 0x20 DUP3 ADD SWAP1 POP DUP2 DUP2 SUB PUSH1 0x0 DUP4 ADD MSTORE PUSH2 0x48D4 DUP2 PUSH2 0x43F4 JUMP JUMPDEST SWAP1 POP SWAP2 SWAP1 POP JUMP JUMPDEST PUSH1 0x0 PUSH1 0x20 DUP3 ADD SWAP1 POP DUP2 DUP2 SUB PUSH1 0x0 DUP4 ADD MSTORE PUSH2 0x48F4 DUP2 PUSH2 0x4417 JUMP JUMPDEST SWAP1 POP SWAP2 SWAP1 POP JUMP JUMPDEST PUSH1 0x0 PUSH1 0x20 DUP3 ADD SWAP1 POP DUP2 DUP2 SUB PUSH1 0x0 DUP4 ADD MSTORE PUSH2 0x4914 DUP2 PUSH2 0x443A JUMP JUMPDEST SWAP1 POP SWAP2 SWAP1 POP JUMP JUMPDEST PUSH1 0x0 PUSH1 0x20 DUP3 ADD SWAP1 POP DUP2 DUP2 SUB PUSH1 0x0 DUP4 ADD MSTORE PUSH2 0x4934 DUP2 PUSH2 0x445D JUMP JUMPDEST SWAP1 POP SWAP2 SWAP1 POP JUMP JUMPDEST PUSH1 0x0 PUSH1 0x20 DUP3 ADD SWAP1 POP DUP2 DUP2 SUB PUSH1 0x0 DUP4 ADD MSTORE PUSH2 0x4954 DUP2 PUSH2 0x4480 JUMP JUMPDEST SWAP1 POP SWAP2 SWAP1 POP JUMP JUMPDEST PUSH1 0x0 PUSH1 0x20 DUP3 ADD SWAP1 POP PUSH2 0x4970 PUSH1 0x0 DUP4 ADD DUP5 PUSH2 0x44B2 JUMP JUMPDEST SWAP3 SWAP2 POP POP JUMP JUMPDEST PUSH1 0x0 PUSH1 0x40 DUP3 ADD SWAP1 POP PUSH2 0x498B PUSH1 0x0 DUP4 ADD DUP6 PUSH2 0x44B2 JUMP JUMPDEST PUSH2 0x4998 PUSH1 0x20 DUP4 ADD DUP5 PUSH2 0x44B2 JUMP JUMPDEST SWAP4 SWAP3 POP POP POP JUMP JUMPDEST PUSH1 0x0 PUSH1 0x60 DUP3 ADD SWAP1 POP PUSH2 0x49B4 PUSH1 0x0 DUP4 ADD DUP7 PUSH2 0x44B2 JUMP JUMPDEST PUSH2 0x49C1 PUSH1 0x20 DUP4 ADD DUP6 PUSH2 0x44B2 JUMP JUMPDEST PUSH2 0x49CE PUSH1 0x40 DUP4 ADD DUP5 PUSH2 0x44B2 JUMP JUMPDEST SWAP5 SWAP4 POP POP POP POP JUMP JUMPDEST PUSH1 0x0 PUSH2 0x49E0 PUSH2 0x49F1 JUMP JUMPDEST SWAP1 POP PUSH2 0x49EC DUP3 DUP3 PUSH2 0x4CA5 JUMP JUMPDEST SWAP2 SWAP1 POP JUMP JUMPDEST PUSH1 0x0 PUSH1 0x40 MLOAD SWAP1 POP SWAP1 JUMP JUMPDEST PUSH1 0x0 PUSH8 0xFFFFFFFFFFFFFFFF DUP3 GT ISZERO PUSH2 0x4A16 JUMPI PUSH2 0x4A15 PUSH2 0x4E0B JUMP JUMPDEST JUMPDEST PUSH2 0x4A1F DUP3 PUSH2 0x4E3A JUMP JUMPDEST SWAP1 POP PUSH1 0x20 DUP2 ADD SWAP1 POP SWAP2 SWAP1 POP JUMP JUMPDEST PUSH1 0x0 DUP2 SWAP1 POP PUSH1 0x20 DUP3 ADD SWAP1 POP SWAP2 SWAP1 POP JUMP JUMPDEST PUSH1 0x0 DUP2 MLOAD SWAP1 POP SWAP2 SWAP1 POP JUMP JUMPDEST PUSH1 0x0 DUP2 MLOAD SWAP1 POP SWAP2 SWAP1 POP JUMP JUMPDEST PUSH1 0x0 DUP2 MLOAD SWAP1 POP SWAP2 SWAP1 POP JUMP JUMPDEST PUSH1 0x0 PUSH1 0x20 DUP3 ADD SWAP1 POP SWAP2 SWAP1 POP JUMP JUMPDEST PUSH1 0x0 DUP3 DUP3 MSTORE PUSH1 0x20 DUP3 ADD SWAP1 POP SWAP3 SWAP2 POP POP JUMP JUMPDEST PUSH1 0x0 DUP3 DUP3 MSTORE PUSH1 0x20 DUP3 ADD SWAP1 POP SWAP3 SWAP2 POP POP JUMP JUMPDEST PUSH1 0x0 DUP3 DUP3 MSTORE PUSH1 0x20 DUP3 ADD SWAP1 POP SWAP3 SWAP2 POP POP JUMP JUMPDEST PUSH1 0x0 DUP2 SWAP1 POP SWAP3 SWAP2 POP POP JUMP JUMPDEST PUSH1 0x0 PUSH2 0x4AB3 DUP3 PUSH2 0x4C27 JUMP JUMPDEST SWAP2 POP PUSH2 0x4ABE DUP4 PUSH2 0x4C27 JUMP JUMPDEST SWAP3 POP DUP3 PUSH32 0xFFFFFFFFFFFFFFFFFFFFFFFFFFFFFFFFFFFFFFFFFFFFFFFFFFFFFFFFFFFFFFFF SUB DUP3 GT ISZERO PUSH2 0x4AF3 JUMPI PUSH2 0x4AF2 PUSH2 0x4D7E JUMP JUMPDEST JUMPDEST DUP3 DUP3 ADD SWAP1 POP SWAP3 SWAP2 POP POP JUMP JUMPDEST PUSH1 0x0 PUSH2 0x4B09 DUP3 PUSH2 0x4C27 JUMP JUMPDEST SWAP2 POP PUSH2 0x4B14 DUP4 PUSH2 0x4C27 JUMP JUMPDEST SWAP3 POP DUP3 PUSH2 0x4B24 JUMPI PUSH2 0x4B23 PUSH2 0x4DAD JUMP JUMPDEST JUMPDEST DUP3 DUP3 DIV SWAP1 POP SWAP3 SWAP2 POP POP JUMP JUMPDEST PUSH1 0x0 PUSH2 0x4B3A DUP3 PUSH2 0x4C27 JUMP JUMPDEST SWAP2 POP PUSH2 0x4B45 DUP4 PUSH2 0x4C27 JUMP JUMPDEST SWAP3 POP DUP2 PUSH32 0xFFFFFFFFFFFFFFFFFFFFFFFFFFFFFFFFFFFFFFFFFFFFFFFFFFFFFFFFFFFFFFFF DIV DUP4 GT DUP3 ISZERO ISZERO AND ISZERO PUSH2 0x4B7E JUMPI PUSH2 0x4B7D PUSH2 0x4D7E JUMP JUMPDEST JUMPDEST DUP3 DUP3 MUL SWAP1 POP SWAP3 SWAP2 POP POP JUMP JUMPDEST PUSH1 0x0 PUSH2 0x4B94 DUP3 PUSH2 0x4C27 JUMP JUMPDEST SWAP2 POP PUSH2 0x4B9F DUP4 PUSH2 0x4C27 JUMP JUMPDEST SWAP3 POP DUP3 DUP3 LT ISZERO PUSH2 0x4BB2 JUMPI PUSH2 0x4BB1 PUSH2 0x4D7E JUMP JUMPDEST JUMPDEST DUP3 DUP3 SUB SWAP1 POP SWAP3 SWAP2 POP POP JUMP JUMPDEST PUSH1 0x0 PUSH2 0x4BC8 DUP3 PUSH2 0x4C07 JUMP JUMPDEST SWAP1 POP SWAP2 SWAP1 POP JUMP JUMPDEST PUSH1 0x0 DUP2 ISZERO ISZERO SWAP1 POP SWAP2 SWAP1 POP JUMP JUMPDEST PUSH1 0x0 PUSH32 0xFFFFFFFF00000000000000000000000000000000000000000000000000000000 DUP3 AND SWAP1 POP SWAP2 SWAP1 POP JUMP JUMPDEST PUSH1 0x0 PUSH20 0xFFFFFFFFFFFFFFFFFFFFFFFFFFFFFFFFFFFFFFFF DUP3 AND SWAP1 POP SWAP2 SWAP1 POP JUMP JUMPDEST PUSH1 0x0 DUP2 SWAP1 POP SWAP2 SWAP1 POP JUMP JUMPDEST DUP3 DUP2 DUP4 CALLDATACOPY PUSH1 0x0 DUP4 DUP4 ADD MSTORE POP POP POP JUMP JUMPDEST PUSH1 0x0 JUMPDEST DUP4 DUP2 LT ISZERO PUSH2 0x4C5E JUMPI DUP1 DUP3 ADD MLOAD DUP2 DUP5 ADD MSTORE PUSH1 0x20 DUP2 ADD SWAP1 POP PUSH2 0x4C43 JUMP JUMPDEST DUP4 DUP2 GT ISZERO PUSH2 0x4C6D JUMPI PUSH1 0x0 DUP5 DUP5 ADD MSTORE JUMPDEST POP POP POP POP JUMP JUMPDEST PUSH1 0x0 PUSH1 0x2 DUP3 DIV SWAP1 POP PUSH1 0x1 DUP3 AND DUP1 PUSH2 0x4C8B JUMPI PUSH1 0x7F DUP3 AND SWAP2 POP JUMPDEST PUSH1 0x20 DUP3 LT DUP2 EQ ISZERO PUSH2 0x4C9F JUMPI PUSH2 0x4C9E PUSH2 0x4DDC JUMP JUMPDEST JUMPDEST POP SWAP2 SWAP1 POP JUMP JUMPDEST PUSH2 0x4CAE DUP3 PUSH2 0x4E3A JUMP JUMPDEST DUP2 ADD DUP2 DUP2 LT PUSH8 0xFFFFFFFFFFFFFFFF DUP3 GT OR ISZERO PUSH2 0x4CCD JUMPI PUSH2 0x4CCC PUSH2 0x4E0B JUMP JUMPDEST JUMPDEST DUP1 PUSH1 0x40 MSTORE POP POP POP JUMP JUMPDEST PUSH1 0x0 PUSH2 0x4CE1 DUP3 PUSH2 0x4C27 JUMP JUMPDEST SWAP2 POP PUSH32 0xFFFFFFFFFFFFFFFFFFFFFFFFFFFFFFFFFFFFFFFFFFFFFFFFFFFFFFFFFFFFFFFF DUP3 EQ ISZERO PUSH2 0x4D14 JUMPI PUSH2 0x4D13 PUSH2 0x4D7E JUMP JUMPDEST JUMPDEST PUSH1 0x1 DUP3 ADD SWAP1 POP SWAP2 SWAP1 POP JUMP JUMPDEST PUSH1 0x0 PUSH2 0x4D2A DUP3 PUSH2 0x4D31 JUMP JUMPDEST SWAP1 POP SWAP2 SWAP1 POP JUMP JUMPDEST PUSH1 0x0 PUSH2 0x4D3C DUP3 PUSH2 0x4E4B JUMP JUMPDEST SWAP1 POP SWAP2 SWAP1 POP JUMP JUMPDEST PUSH1 0x0 DUP2 SWAP1 POP SWAP2 SWAP1 POP JUMP JUMPDEST PUSH1 0x0 PUSH2 0x4D58 DUP3 PUSH2 0x4C27 JUMP JUMPDEST SWAP2 POP PUSH2 0x4D63 DUP4 PUSH2 0x4C27 JUMP JUMPDEST SWAP3 POP DUP3 PUSH2 0x4D73 JUMPI PUSH2 0x4D72 PUSH2 0x4DAD JUMP JUMPDEST JUMPDEST DUP3 DUP3 MOD SWAP1 POP SWAP3 SWAP2 POP POP JUMP JUMPDEST PUSH32 0x4E487B7100000000000000000000000000000000000000000000000000000000 PUSH1 0x0 MSTORE PUSH1 0x11 PUSH1 0x4 MSTORE PUSH1 0x24 PUSH1 0x0 REVERT JUMPDEST PUSH32 0x4E487B7100000000000000000000000000000000000000000000000000000000 PUSH1 0x0 MSTORE PUSH1 0x12 PUSH1 0x4 MSTORE PUSH1 0x24 PUSH1 0x0 REVERT JUMPDEST PUSH32 0x4E487B7100000000000000000000000000000000000000000000000000000000 PUSH1 0x0 MSTORE PUSH1 0x22 PUSH1 0x4 MSTORE PUSH1 0x24 PUSH1 0x0 REVERT JUMPDEST PUSH32 0x4E487B7100000000000000000000000000000000000000000000000000000000 PUSH1 0x0 MSTORE PUSH1 0x41 PUSH1 0x4 MSTORE PUSH1 0x24 PUSH1 0x0 REVERT JUMPDEST PUSH1 0x0 PUSH1 0x1F NOT PUSH1 0x1F DUP4 ADD AND SWAP1 POP SWAP2 SWAP1 POP JUMP JUMPDEST PUSH1 0x0 DUP2 PUSH1 0x60 SHL SWAP1 POP SWAP2 SWAP1 POP JUMP JUMPDEST PUSH32 0x546F74616C2070657263656E74206973206E6F74203130300000000000000000 PUSH1 0x0 DUP3 ADD MSTORE POP JUMP JUMPDEST PUSH32 0x44696E6F2067656E6573206973206E6F742076616C6964000000000000000000 PUSH1 0x0 DUP3 ADD MSTORE POP JUMP JUMPDEST PUSH32 0x44696E6F4C616E64000000000000000000000000000000000000000000000000 PUSH1 0x0 DUP3 ADD MSTORE POP JUMP JUMPDEST PUSH32 0x4552433732313A207472616E7366657220746F206E6F6E204552433732315265 PUSH1 0x0 DUP3 ADD MSTORE PUSH32 0x63656976657220696D706C656D656E7465720000000000000000000000000000 PUSH1 0x20 DUP3 ADD MSTORE POP JUMP JUMPDEST PUSH32 0x596F7520646F206E6F742068617665207065726D697373696F6E000000000000 PUSH1 0x0 DUP3 ADD MSTORE POP JUMP JUMPDEST PUSH32 0x4552433732313A20746F6B656E20616C7265616479206D696E74656400000000 PUSH1 0x0 DUP3 ADD MSTORE POP JUMP JUMPDEST PUSH32 0x5065726D697373696F6E202064656E6965642C206F6E6C7920616C6C6F772043 PUSH1 0x0 DUP3 ADD MSTORE PUSH32 0x4C6576656C000000000000000000000000000000000000000000000000000000 PUSH1 0x20 DUP3 ADD MSTORE POP JUMP JUMPDEST PUSH32 0x4552433732313A207472616E7366657220746F20746865207A65726F20616464 PUSH1 0x0 DUP3 ADD MSTORE PUSH32 0x7265737300000000000000000000000000000000000000000000000000000000 PUSH1 0x20 DUP3 ADD MSTORE POP JUMP JUMPDEST PUSH32 0x4552433732313A20617070726F766520746F2063616C6C657200000000000000 PUSH1 0x0 DUP3 ADD MSTORE POP JUMP JUMPDEST PUSH32 0x4974206973206E6F7420616E2065676700000000000000000000000000000000 PUSH1 0x0 DUP3 ADD MSTORE POP JUMP JUMPDEST PUSH32 0x4552433732313A206F70657261746F7220717565727920666F72206E6F6E6578 PUSH1 0x0 DUP3 ADD MSTORE PUSH32 0x697374656E7420746F6B656E0000000000000000000000000000000000000000 PUSH1 0x20 DUP3 ADD MSTORE POP JUMP JUMPDEST PUSH32 0x5065726D697373696F6E202064656E6965642C206F6E6C7920616C6C6F772073 PUSH1 0x0 DUP3 ADD MSTORE PUSH32 0x7061776E696E67206D616E616765720000000000000000000000000000000000 PUSH1 0x20 DUP3 ADD MSTORE POP JUMP JUMPDEST PUSH32 0x44696E6F206567672067656E6573206973206E6F742076616C69640000000000 PUSH1 0x0 DUP3 ADD MSTORE POP JUMP JUMPDEST PUSH32 0x43616E206E6F742063616C6C2066726F6D20616E6F7468657220636F6E747261 PUSH1 0x0 DUP3 ADD MSTORE PUSH32 0x6374000000000000000000000000000000000000000000000000000000000000 PUSH1 0x20 DUP3 ADD MSTORE POP JUMP JUMPDEST PUSH32 0x4552433732313A20617070726F76652063616C6C6572206973206E6F74206F77 PUSH1 0x0 DUP3 ADD MSTORE PUSH32 0x6E6572206E6F7220617070726F76656420666F7220616C6C0000000000000000 PUSH1 0x20 DUP3 ADD MSTORE POP JUMP JUMPDEST PUSH32 0x4552433732313A2062616C616E636520717565727920666F7220746865207A65 PUSH1 0x0 DUP3 ADD MSTORE PUSH32 0x726F206164647265737300000000000000000000000000000000000000000000 PUSH1 0x20 DUP3 ADD MSTORE POP JUMP JUMPDEST PUSH32 0x4552433732313A206F776E657220717565727920666F72206E6F6E6578697374 PUSH1 0x0 DUP3 ADD MSTORE PUSH32 0x656E7420746F6B656E0000000000000000000000000000000000000000000000 PUSH1 0x20 DUP3 ADD MSTORE POP JUMP JUMPDEST PUSH32 0x496E697469616C697A61626C653A20636F6E747261637420697320616C726561 PUSH1 0x0 DUP3 ADD MSTORE PUSH32 0x647920696E697469616C697A6564000000000000000000000000000000000000 PUSH1 0x20 DUP3 ADD MSTORE POP JUMP JUMPDEST PUSH32 0x456767206973206E6F7420726561647900000000000000000000000000000000 PUSH1 0x0 DUP3 ADD MSTORE POP JUMP JUMPDEST PUSH32 0x5065726D697373696F6E202064656E6965642C206F6E6C7920616C6C6F772043 PUSH1 0x0 DUP3 ADD MSTORE PUSH32 0x454F000000000000000000000000000000000000000000000000000000000000 PUSH1 0x20 DUP3 ADD MSTORE POP JUMP JUMPDEST PUSH32 0x4552433732313A206D696E7420746F20746865207A65726F2061646472657373 PUSH1 0x0 DUP3 ADD MSTORE POP JUMP JUMPDEST PUSH32 0x4552433732313A20617070726F76656420717565727920666F72206E6F6E6578 PUSH1 0x0 DUP3 ADD MSTORE PUSH32 0x697374656E7420746F6B656E0000000000000000000000000000000000000000 PUSH1 0x20 DUP3 ADD MSTORE POP JUMP JUMPDEST PUSH32 0x4552433732313A207472616E73666572206F6620746F6B656E20746861742069 PUSH1 0x0 DUP3 ADD MSTORE PUSH32 0x73206E6F74206F776E0000000000000000000000000000000000000000000000 PUSH1 0x20 DUP3 ADD MSTORE POP JUMP JUMPDEST PUSH32 0x4552433732314D657461646174613A2055524920717565727920666F72206E6F PUSH1 0x0 DUP3 ADD MSTORE PUSH32 0x6E6578697374656E7420746F6B656E0000000000000000000000000000000000 PUSH1 0x20 DUP3 ADD MSTORE POP JUMP JUMPDEST PUSH32 0x4E6F742076616C6964206567672067656E657300000000000000000000000000 PUSH1 0x0 DUP3 ADD MSTORE POP JUMP JUMPDEST PUSH32 0x4552433732313A20617070726F76616C20746F2063757272656E74206F776E65 PUSH1 0x0 DUP3 ADD MSTORE PUSH32 0x7200000000000000000000000000000000000000000000000000000000000000 PUSH1 0x20 DUP3 ADD MSTORE POP JUMP JUMPDEST PUSH32 0x4552433732313A207472616E736665722063616C6C6572206973206E6F74206F PUSH1 0x0 DUP3 ADD MSTORE PUSH32 0x776E6572206E6F7220617070726F766564000000000000000000000000000000 PUSH1 0x20 DUP3 ADD MSTORE POP JUMP JUMPDEST PUSH2 0x5514 DUP2 PUSH2 0x4BBD JUMP JUMPDEST DUP2 EQ PUSH2 0x551F JUMPI PUSH1 0x0 DUP1 REVERT JUMPDEST POP JUMP JUMPDEST PUSH2 0x552B DUP2 PUSH2 0x4BCF JUMP JUMPDEST DUP2 EQ PUSH2 0x5536 JUMPI PUSH1 0x0 DUP1 REVERT JUMPDEST POP JUMP JUMPDEST PUSH2 0x5542 DUP2 PUSH2 0x4BDB JUMP JUMPDEST DUP2 EQ PUSH2 0x554D JUMPI PUSH1 0x0 DUP1 REVERT JUMPDEST POP JUMP JUMPDEST PUSH2 0x5559 DUP2 PUSH2 0x4C27 JUMP JUMPDEST DUP2 EQ PUSH2 0x5564 JUMPI PUSH1 0x0 DUP1 REVERT JUMPDEST POP JUMP INVALID LOG2 PUSH5 0x6970667358 0x22 SLT KECCAK256 0xBF SELFDESTRUCT CALLDATALOAD SWAP3 SHR 0xC7 SUB 0xA7 PUSH6 0x93F82E6A617 0x29 0xD6 PUSH19 0x1523BE4912626E7E3041C845937964736F6C63 NUMBER STOP ADDMOD DIV STOP CALLER "
		},
		"gasEstimates": {
			"creation": {
				"codeDepositCost": "4383400",
				"executionCost": "130980",
				"totalCost": "4514380"
			},
			"external": {
				"approve(address,uint256)": "infinite",
				"balanceOf(address)": "1625",
				"ceoAddress()": "1282",
				"cfoAddress()": "1283",
				"cooAddress()": "1325",
				"createDino(uint256,address)": "infinite",
				"createDinoEgg(uint256,address,uint256)": "infinite",
				"createDinoFromEggGenes(uint256,address)": "infinite",
				"dinoIsAtIndex(uint256)": "infinite",
				"evolveDino(uint256,uint256)": "infinite",
				"getApproved(uint256)": "2695",
				"getDino(uint256)": "infinite",
				"getDinosByOwner(address)": "infinite",
				"hatchEgg(uint256)": "infinite",
				"initialize()": "infinite",
				"isApprovedForAll(address,address)": "infinite",
				"lengendaryRate()": "1220",
				"mysticRate()": "1218",
				"name()": "infinite",
				"normalRate()": "1240",
				"ownerOf(uint256)": "1832",
				"pause()": "24554",
				"paused()": "1304",
				"rareRate()": "1240",
				"retireDino(uint256,bool)": "infinite",
				"safeTransferFrom(address,address,uint256)": "infinite",
				"safeTransferFrom(address,address,uint256,bytes)": "infinite",
				"setApprovalForAll(address,bool)": "infinite",
				"setCEO(address)": "22298",
				"setCFO(address)": "22297",
				"setCOO(address)": "22320",
				"setHatchingEggRate(uint256,uint256,uint256,uint256,uint256)": "infinite",
				"setSpawner(address,bool)": "23376",
				"setSpawningManager(address)": "24031",
				"spawningManager()": "1369",
				"superRareRate()": "1262",
				"supportsInterface(bytes4)": "820",
				"symbol()": "infinite",
				"tokenURI(uint256)": "2117",
				"totalSupply()": "1235",
				"transferFrom(address,address,uint256)": "infinite",
				"unpause()": "22846",
				"whitelistedSpawner(address)": "1611"
			},
			"internal": {
				"_createDino(uint256,address,uint256)": "infinite",
				"_getRandomDinoGenesFromEgg(uint256)": "infinite",
				"_getRandomPercent()": "infinite",
				"isContract(address)": "747"
			}
		},
		"methodIdentifiers": {
			"approve(address,uint256)": "095ea7b3",
			"balanceOf(address)": "70a08231",
			"ceoAddress()": "0a0f8168",
			"cfoAddress()": "0519ce79",
			"cooAddress()": "b047fb50",
			"createDino(uint256,address)": "7d42e1a7",
			"createDinoEgg(uint256,address,uint256)": "4f18a5db",
			"createDinoFromEggGenes(uint256,address)": "77932011",
			"dinoIsAtIndex(uint256)": "81808d41",
			"evolveDino(uint256,uint256)": "cc5a3661",
			"getApproved(uint256)": "081812fc",
			"getDino(uint256)": "80ad40a5",
			"getDinosByOwner(address)": "c990ac7e",
			"hatchEgg(uint256)": "2385554c",
			"initialize()": "8129fc1c",
			"isApprovedForAll(address,address)": "e985e9c5",
			"lengendaryRate()": "05ad815e",
			"mysticRate()": "a37959cd",
			"name()": "06fdde03",
			"normalRate()": "530d44f4",
			"ownerOf(uint256)": "6352211e",
			"pause()": "8456cb59",
			"paused()": "5c975abb",
			"rareRate()": "94a3f89a",
			"retireDino(uint256,bool)": "18f04090",
			"safeTransferFrom(address,address,uint256)": "42842e0e",
			"safeTransferFrom(address,address,uint256,bytes)": "b88d4fde",
			"setApprovalForAll(address,bool)": "a22cb465",
			"setCEO(address)": "27d7874c",
			"setCFO(address)": "4e0a3379",
			"setCOO(address)": "2ba73c15",
			"setHatchingEggRate(uint256,uint256,uint256,uint256,uint256)": "47cb72fe",
			"setSpawner(address,bool)": "9f186edb",
			"setSpawningManager(address)": "8c37e31e",
			"spawningManager()": "98f5ee5d",
			"superRareRate()": "b746118f",
			"supportsInterface(bytes4)": "01ffc9a7",
			"symbol()": "95d89b41",
			"tokenURI(uint256)": "c87b56dd",
			"totalSupply()": "18160ddd",
			"transferFrom(address,address,uint256)": "23b872dd",
			"unpause()": "3f4ba83a",
			"whitelistedSpawner(address)": "c84c9e45"
		}
	},
	"abi": [
		{
			"anonymous": false,
			"inputs": [
				{
					"indexed": true,
					"internalType": "address",
					"name": "owner",
					"type": "address"
				},
				{
					"indexed": true,
					"internalType": "address",
					"name": "approved",
					"type": "address"
				},
				{
					"indexed": true,
					"internalType": "uint256",
					"name": "tokenId",
					"type": "uint256"
				}
			],
			"name": "Approval",
			"type": "event"
		},
		{
			"anonymous": false,
			"inputs": [
				{
					"indexed": true,
					"internalType": "address",
					"name": "owner",
					"type": "address"
				},
				{
					"indexed": true,
					"internalType": "address",
					"name": "operator",
					"type": "address"
				},
				{
					"indexed": false,
					"internalType": "bool",
					"name": "approved",
					"type": "bool"
				}
			],
			"name": "ApprovalForAll",
			"type": "event"
		},
		{
			"anonymous": false,
			"inputs": [
				{
					"indexed": false,
					"internalType": "address",
					"name": "newContract",
					"type": "address"
				}
			],
			"name": "ContractUpgrade",
			"type": "event"
		},
		{
			"anonymous": false,
			"inputs": [
				{
					"indexed": true,
					"internalType": "uint256",
					"name": "_dinoId",
					"type": "uint256"
				},
				{
					"indexed": false,
					"internalType": "uint256",
					"name": "_oldGenes",
					"type": "uint256"
				},
				{
					"indexed": false,
					"internalType": "uint256",
					"name": "_newGenes",
					"type": "uint256"
				}
			],
			"name": "DinoEvolved",
			"type": "event"
		},
		{
			"anonymous": false,
			"inputs": [
				{
					"indexed": true,
					"internalType": "uint256",
					"name": "_dinoId",
					"type": "uint256"
				}
			],
			"name": "DinoRetired",
			"type": "event"
		},
		{
			"anonymous": false,
			"inputs": [
				{
					"indexed": true,
					"internalType": "uint256",
					"name": "_dinoId",
					"type": "uint256"
				},
				{
					"indexed": true,
					"internalType": "address",
					"name": "_owner",
					"type": "address"
				},
				{
					"indexed": false,
					"internalType": "uint256",
					"name": "_genes",
					"type": "uint256"
				}
			],
			"name": "DinoSpawned",
			"type": "event"
		},
		{
			"anonymous": false,
			"inputs": [
				{
					"indexed": true,
					"internalType": "address",
					"name": "from",
					"type": "address"
				},
				{
					"indexed": true,
					"internalType": "address",
					"name": "to",
					"type": "address"
				},
				{
					"indexed": true,
					"internalType": "uint256",
					"name": "tokenId",
					"type": "uint256"
				}
			],
			"name": "Transfer",
			"type": "event"
		},
		{
			"inputs": [
				{
					"internalType": "address",
					"name": "to",
					"type": "address"
				},
				{
					"internalType": "uint256",
					"name": "tokenId",
					"type": "uint256"
				}
			],
			"name": "approve",
			"outputs": [],
			"stateMutability": "nonpayable",
			"type": "function"
		},
		{
			"inputs": [
				{
					"internalType": "address",
					"name": "owner",
					"type": "address"
				}
			],
			"name": "balanceOf",
			"outputs": [
				{
					"internalType": "uint256",
					"name": "",
					"type": "uint256"
				}
			],
			"stateMutability": "view",
			"type": "function"
		},
		{
			"inputs": [],
			"name": "ceoAddress",
			"outputs": [
				{
					"internalType": "address",
					"name": "",
					"type": "address"
				}
			],
			"stateMutability": "view",
			"type": "function"
		},
		{
			"inputs": [],
			"name": "cfoAddress",
			"outputs": [
				{
					"internalType": "address",
					"name": "",
					"type": "address"
				}
			],
			"stateMutability": "view",
			"type": "function"
		},
		{
			"inputs": [],
			"name": "cooAddress",
			"outputs": [
				{
					"internalType": "address",
					"name": "",
					"type": "address"
				}
			],
			"stateMutability": "view",
			"type": "function"
		},
		{
			"inputs": [
				{
					"internalType": "uint256",
					"name": "_genes",
					"type": "uint256"
				},
				{
					"internalType": "address",
					"name": "_owner",
					"type": "address"
				}
			],
			"name": "createDino",
			"outputs": [
				{
					"internalType": "uint256",
					"name": "",
					"type": "uint256"
				}
			],
			"stateMutability": "nonpayable",
			"type": "function"
		},
		{
			"inputs": [
				{
					"internalType": "uint256",
					"name": "_genes",
					"type": "uint256"
				},
				{
					"internalType": "address",
					"name": "_owner",
					"type": "address"
				},
				{
					"internalType": "uint256",
					"name": "_incubationDuraion",
					"type": "uint256"
				}
			],
			"name": "createDinoEgg",
			"outputs": [
				{
					"internalType": "uint256",
					"name": "",
					"type": "uint256"
				}
			],
			"stateMutability": "nonpayable",
			"type": "function"
		},
		{
			"inputs": [
				{
					"internalType": "uint256",
					"name": "_eggGenes",
					"type": "uint256"
				},
				{
					"internalType": "address",
					"name": "_owner",
					"type": "address"
				}
			],
			"name": "createDinoFromEggGenes",
			"outputs": [
				{
					"internalType": "uint256",
					"name": "",
					"type": "uint256"
				}
			],
			"stateMutability": "nonpayable",
			"type": "function"
		},
		{
			"inputs": [
				{
					"internalType": "uint256",
					"name": "",
					"type": "uint256"
				}
			],
			"name": "dinoIsAtIndex",
			"outputs": [
				{
					"internalType": "uint256",
					"name": "",
					"type": "uint256"
				}
			],
			"stateMutability": "view",
			"type": "function"
		},
		{
			"inputs": [
				{
					"internalType": "uint256",
					"name": "_dinoId",
					"type": "uint256"
				},
				{
					"internalType": "uint256",
					"name": "_newGenes",
					"type": "uint256"
				}
			],
			"name": "evolveDino",
			"outputs": [],
			"stateMutability": "nonpayable",
			"type": "function"
		},
		{
			"inputs": [
				{
					"internalType": "uint256",
					"name": "tokenId",
					"type": "uint256"
				}
			],
			"name": "getApproved",
			"outputs": [
				{
					"internalType": "address",
					"name": "",
					"type": "address"
				}
			],
			"stateMutability": "view",
			"type": "function"
		},
		{
			"inputs": [
				{
					"internalType": "uint256",
					"name": "_dinoId",
					"type": "uint256"
				}
			],
			"name": "getDino",
			"outputs": [
				{
					"internalType": "uint256",
					"name": "",
					"type": "uint256"
				},
				{
					"internalType": "uint256",
					"name": "",
					"type": "uint256"
				},
				{
					"internalType": "uint256",
					"name": "",
					"type": "uint256"
				}
			],
			"stateMutability": "view",
			"type": "function"
		},
		{
			"inputs": [
				{
					"internalType": "address",
					"name": "_ownerAddress",
					"type": "address"
				}
			],
			"name": "getDinosByOwner",
			"outputs": [
				{
					"internalType": "uint256[]",
					"name": "",
					"type": "uint256[]"
				}
			],
			"stateMutability": "view",
			"type": "function"
		},
		{
			"inputs": [
				{
					"internalType": "uint256",
					"name": "_dinoId",
					"type": "uint256"
				}
			],
			"name": "hatchEgg",
			"outputs": [],
			"stateMutability": "nonpayable",
			"type": "function"
		},
		{
			"inputs": [],
			"name": "initialize",
			"outputs": [],
			"stateMutability": "nonpayable",
			"type": "function"
		},
		{
			"inputs": [
				{
					"internalType": "address",
					"name": "owner",
					"type": "address"
				},
				{
					"internalType": "address",
					"name": "operator",
					"type": "address"
				}
			],
			"name": "isApprovedForAll",
			"outputs": [
				{
					"internalType": "bool",
					"name": "",
					"type": "bool"
				}
			],
			"stateMutability": "view",
			"type": "function"
		},
		{
			"inputs": [],
			"name": "lengendaryRate",
			"outputs": [
				{
					"internalType": "uint256",
					"name": "",
					"type": "uint256"
				}
			],
			"stateMutability": "view",
			"type": "function"
		},
		{
			"inputs": [],
			"name": "mysticRate",
			"outputs": [
				{
					"internalType": "uint256",
					"name": "",
					"type": "uint256"
				}
			],
			"stateMutability": "view",
			"type": "function"
		},
		{
			"inputs": [],
			"name": "name",
			"outputs": [
				{
					"internalType": "string",
					"name": "",
					"type": "string"
				}
			],
			"stateMutability": "view",
			"type": "function"
		},
		{
			"inputs": [],
			"name": "normalRate",
			"outputs": [
				{
					"internalType": "uint256",
					"name": "",
					"type": "uint256"
				}
			],
			"stateMutability": "view",
			"type": "function"
		},
		{
			"inputs": [
				{
					"internalType": "uint256",
					"name": "tokenId",
					"type": "uint256"
				}
			],
			"name": "ownerOf",
			"outputs": [
				{
					"internalType": "address",
					"name": "",
					"type": "address"
				}
			],
			"stateMutability": "view",
			"type": "function"
		},
		{
			"inputs": [],
			"name": "pause",
			"outputs": [],
			"stateMutability": "nonpayable",
			"type": "function"
		},
		{
			"inputs": [],
			"name": "paused",
			"outputs": [
				{
					"internalType": "bool",
					"name": "",
					"type": "bool"
				}
			],
			"stateMutability": "view",
			"type": "function"
		},
		{
			"inputs": [],
			"name": "rareRate",
			"outputs": [
				{
					"internalType": "uint256",
					"name": "",
					"type": "uint256"
				}
			],
			"stateMutability": "view",
			"type": "function"
		},
		{
			"inputs": [
				{
					"internalType": "uint256",
					"name": "_dinoId",
					"type": "uint256"
				},
				{
					"internalType": "bool",
					"name": "_rip",
					"type": "bool"
				}
			],
			"name": "retireDino",
			"outputs": [],
			"stateMutability": "nonpayable",
			"type": "function"
		},
		{
			"inputs": [
				{
					"internalType": "address",
					"name": "from",
					"type": "address"
				},
				{
					"internalType": "address",
					"name": "to",
					"type": "address"
				},
				{
					"internalType": "uint256",
					"name": "tokenId",
					"type": "uint256"
				}
			],
			"name": "safeTransferFrom",
			"outputs": [],
			"stateMutability": "nonpayable",
			"type": "function"
		},
		{
			"inputs": [
				{
					"internalType": "address",
					"name": "from",
					"type": "address"
				},
				{
					"internalType": "address",
					"name": "to",
					"type": "address"
				},
				{
					"internalType": "uint256",
					"name": "tokenId",
					"type": "uint256"
				},
				{
					"internalType": "bytes",
					"name": "_data",
					"type": "bytes"
				}
			],
			"name": "safeTransferFrom",
			"outputs": [],
			"stateMutability": "nonpayable",
			"type": "function"
		},
		{
			"inputs": [
				{
					"internalType": "address",
					"name": "operator",
					"type": "address"
				},
				{
					"internalType": "bool",
					"name": "approved",
					"type": "bool"
				}
			],
			"name": "setApprovalForAll",
			"outputs": [],
			"stateMutability": "nonpayable",
			"type": "function"
		},
		{
			"inputs": [
				{
					"internalType": "address",
					"name": "_newCEO",
					"type": "address"
				}
			],
			"name": "setCEO",
			"outputs": [],
			"stateMutability": "nonpayable",
			"type": "function"
		},
		{
			"inputs": [
				{
					"internalType": "address",
					"name": "_newCFO",
					"type": "address"
				}
			],
			"name": "setCFO",
			"outputs": [],
			"stateMutability": "nonpayable",
			"type": "function"
		},
		{
			"inputs": [
				{
					"internalType": "address",
					"name": "_newCOO",
					"type": "address"
				}
			],
			"name": "setCOO",
			"outputs": [],
			"stateMutability": "nonpayable",
			"type": "function"
		},
		{
			"inputs": [
				{
					"internalType": "uint256",
					"name": "_normalRate",
					"type": "uint256"
				},
				{
					"internalType": "uint256",
					"name": "_rareRate",
					"type": "uint256"
				},
				{
					"internalType": "uint256",
					"name": "_superRareRate",
					"type": "uint256"
				},
				{
					"internalType": "uint256",
					"name": "_lengendaryRate",
					"type": "uint256"
				},
				{
					"internalType": "uint256",
					"name": "_mysticRate",
					"type": "uint256"
				}
			],
			"name": "setHatchingEggRate",
			"outputs": [],
			"stateMutability": "nonpayable",
			"type": "function"
		},
		{
			"inputs": [
				{
					"internalType": "address",
					"name": "_spawner",
					"type": "address"
				},
				{
					"internalType": "bool",
					"name": "_whitelisted",
					"type": "bool"
				}
			],
			"name": "setSpawner",
			"outputs": [],
			"stateMutability": "nonpayable",
			"type": "function"
		},
		{
			"inputs": [
				{
					"internalType": "address",
					"name": "_manager",
					"type": "address"
				}
			],
			"name": "setSpawningManager",
			"outputs": [],
			"stateMutability": "nonpayable",
			"type": "function"
		},
		{
			"inputs": [],
			"name": "spawningManager",
			"outputs": [
				{
					"internalType": "address",
					"name": "",
					"type": "address"
				}
			],
			"stateMutability": "view",
			"type": "function"
		},
		{
			"inputs": [],
			"name": "superRareRate",
			"outputs": [
				{
					"internalType": "uint256",
					"name": "",
					"type": "uint256"
				}
			],
			"stateMutability": "view",
			"type": "function"
		},
		{
			"inputs": [
				{
					"internalType": "bytes4",
					"name": "interfaceId",
					"type": "bytes4"
				}
			],
			"name": "supportsInterface",
			"outputs": [
				{
					"internalType": "bool",
					"name": "",
					"type": "bool"
				}
			],
			"stateMutability": "view",
			"type": "function"
		},
		{
			"inputs": [],
			"name": "symbol",
			"outputs": [
				{
					"internalType": "string",
					"name": "",
					"type": "string"
				}
			],
			"stateMutability": "view",
			"type": "function"
		},
		{
			"inputs": [
				{
					"internalType": "uint256",
					"name": "tokenId",
					"type": "uint256"
				}
			],
			"name": "tokenURI",
			"outputs": [
				{
					"internalType": "string",
					"name": "",
					"type": "string"
				}
			],
			"stateMutability": "view",
			"type": "function"
		},
		{
			"inputs": [],
			"name": "totalSupply",
			"outputs": [
				{
					"internalType": "uint256",
					"name": "",
					"type": "uint256"
				}
			],
			"stateMutability": "view",
			"type": "function"
		},
		{
			"inputs": [
				{
					"internalType": "address",
					"name": "from",
					"type": "address"
				},
				{
					"internalType": "address",
					"name": "to",
					"type": "address"
				},
				{
					"internalType": "uint256",
					"name": "tokenId",
					"type": "uint256"
				}
			],
			"name": "transferFrom",
			"outputs": [],
			"stateMutability": "nonpayable",
			"type": "function"
		},
		{
			"inputs": [],
			"name": "unpause",
			"outputs": [],
			"stateMutability": "nonpayable",
			"type": "function"
		},
		{
			"inputs": [
				{
					"internalType": "address",
					"name": "",
					"type": "address"
				}
			],
			"name": "whitelistedSpawner",
			"outputs": [
				{
					"internalType": "bool",
					"name": "",
					"type": "bool"
				}
			],
			"stateMutability": "view",
			"type": "function"
		}
	]
}